{
  "_format": "hh-sol-artifact-1",
  "contractName": "NashEscrow",
  "sourceName": "contracts/NashEscrow.sol",
  "abi": [
    {
      "inputs": [
        {
          "internalType": "address",
          "name": "_cUSDTokenAddress",
          "type": "address"
        },
        {
          "internalType": "uint256",
          "name": "_agentFee",
          "type": "uint256"
        },
        {
          "internalType": "uint256",
          "name": "_nashFee",
          "type": "uint256"
        },
        {
          "internalType": "address",
          "name": "_nashTreasuryAddress",
          "type": "address"
        }
      ],
      "stateMutability": "nonpayable",
      "type": "constructor"
    },
    {
      "anonymous": false,
      "inputs": [
        {
          "components": [
            {
              "internalType": "uint256",
              "name": "id",
              "type": "uint256"
            },
            {
              "internalType": "enum NashEscrow.TransactionType",
              "name": "txType",
              "type": "uint8"
            },
            {
              "internalType": "address",
              "name": "clientAddress",
              "type": "address"
            },
            {
              "internalType": "address",
              "name": "agentAddress",
              "type": "address"
            },
            {
              "internalType": "enum NashEscrow.Status",
              "name": "status",
              "type": "uint8"
            },
            {
              "internalType": "uint256",
              "name": "netAmount",
              "type": "uint256"
            },
            {
              "internalType": "uint256",
              "name": "agentFee",
              "type": "uint256"
            },
            {
              "internalType": "uint256",
              "name": "nashFee",
              "type": "uint256"
            },
            {
              "internalType": "uint256",
              "name": "grossAmount",
              "type": "uint256"
            },
            {
              "internalType": "bool",
              "name": "agentApproval",
              "type": "bool"
            },
            {
              "internalType": "bool",
              "name": "clientApproval",
              "type": "bool"
            },
            {
              "internalType": "string",
              "name": "agentPhoneNumber",
              "type": "string"
            },
            {
              "internalType": "string",
              "name": "clientPhoneNumber",
              "type": "string"
            }
          ],
          "indexed": false,
          "internalType": "struct NashEscrow.NashTransaction",
          "name": "wtx",
          "type": "tuple"
        }
      ],
      "name": "AgentConfirmationEvent",
      "type": "event"
    },
    {
      "anonymous": false,
      "inputs": [
        {
          "components": [
            {
              "internalType": "uint256",
              "name": "id",
              "type": "uint256"
            },
            {
              "internalType": "enum NashEscrow.TransactionType",
              "name": "txType",
              "type": "uint8"
            },
            {
              "internalType": "address",
              "name": "clientAddress",
              "type": "address"
            },
            {
              "internalType": "address",
              "name": "agentAddress",
              "type": "address"
            },
            {
              "internalType": "enum NashEscrow.Status",
              "name": "status",
              "type": "uint8"
            },
            {
              "internalType": "uint256",
              "name": "netAmount",
              "type": "uint256"
            },
            {
              "internalType": "uint256",
              "name": "agentFee",
              "type": "uint256"
            },
            {
              "internalType": "uint256",
              "name": "nashFee",
              "type": "uint256"
            },
            {
              "internalType": "uint256",
              "name": "grossAmount",
              "type": "uint256"
            },
            {
              "internalType": "bool",
              "name": "agentApproval",
              "type": "bool"
            },
            {
              "internalType": "bool",
              "name": "clientApproval",
              "type": "bool"
            },
            {
              "internalType": "string",
              "name": "agentPhoneNumber",
              "type": "string"
            },
            {
              "internalType": "string",
              "name": "clientPhoneNumber",
              "type": "string"
            }
          ],
          "indexed": false,
          "internalType": "struct NashEscrow.NashTransaction",
          "name": "wtx",
          "type": "tuple"
        }
      ],
      "name": "AgentPairingEvent",
      "type": "event"
    },
    {
      "anonymous": false,
      "inputs": [
        {
          "components": [
            {
              "internalType": "uint256",
              "name": "id",
              "type": "uint256"
            },
            {
              "internalType": "enum NashEscrow.TransactionType",
              "name": "txType",
              "type": "uint8"
            },
            {
              "internalType": "address",
              "name": "clientAddress",
              "type": "address"
            },
            {
              "internalType": "address",
              "name": "agentAddress",
              "type": "address"
            },
            {
              "internalType": "enum NashEscrow.Status",
              "name": "status",
              "type": "uint8"
            },
            {
              "internalType": "uint256",
              "name": "netAmount",
              "type": "uint256"
            },
            {
              "internalType": "uint256",
              "name": "agentFee",
              "type": "uint256"
            },
            {
              "internalType": "uint256",
              "name": "nashFee",
              "type": "uint256"
            },
            {
              "internalType": "uint256",
              "name": "grossAmount",
              "type": "uint256"
            },
            {
              "internalType": "bool",
              "name": "agentApproval",
              "type": "bool"
            },
            {
              "internalType": "bool",
              "name": "clientApproval",
              "type": "bool"
            },
            {
              "internalType": "string",
              "name": "agentPhoneNumber",
              "type": "string"
            },
            {
              "internalType": "string",
              "name": "clientPhoneNumber",
              "type": "string"
            }
          ],
          "indexed": false,
          "internalType": "struct NashEscrow.NashTransaction",
          "name": "wtx",
          "type": "tuple"
        }
      ],
      "name": "ClientConfirmationEvent",
      "type": "event"
    },
    {
      "anonymous": false,
      "inputs": [
        {
          "components": [
            {
              "internalType": "uint256",
              "name": "id",
              "type": "uint256"
            },
            {
              "internalType": "enum NashEscrow.TransactionType",
              "name": "txType",
              "type": "uint8"
            },
            {
              "internalType": "address",
              "name": "clientAddress",
              "type": "address"
            },
            {
              "internalType": "address",
              "name": "agentAddress",
              "type": "address"
            },
            {
              "internalType": "enum NashEscrow.Status",
              "name": "status",
              "type": "uint8"
            },
            {
              "internalType": "uint256",
              "name": "netAmount",
              "type": "uint256"
            },
            {
              "internalType": "uint256",
              "name": "agentFee",
              "type": "uint256"
            },
            {
              "internalType": "uint256",
              "name": "nashFee",
              "type": "uint256"
            },
            {
              "internalType": "uint256",
              "name": "grossAmount",
              "type": "uint256"
            },
            {
              "internalType": "bool",
              "name": "agentApproval",
              "type": "bool"
            },
            {
              "internalType": "bool",
              "name": "clientApproval",
              "type": "bool"
            },
            {
              "internalType": "string",
              "name": "agentPhoneNumber",
              "type": "string"
            },
            {
              "internalType": "string",
              "name": "clientPhoneNumber",
              "type": "string"
            }
          ],
          "indexed": false,
          "internalType": "struct NashEscrow.NashTransaction",
          "name": "wtx",
          "type": "tuple"
        }
      ],
      "name": "ConfirmationCompletedEvent",
      "type": "event"
    },
    {
      "anonymous": false,
      "inputs": [
        {
          "components": [
            {
              "internalType": "uint256",
              "name": "id",
              "type": "uint256"
            },
            {
              "internalType": "enum NashEscrow.TransactionType",
              "name": "txType",
              "type": "uint8"
            },
            {
              "internalType": "address",
              "name": "clientAddress",
              "type": "address"
            },
            {
              "internalType": "address",
              "name": "agentAddress",
              "type": "address"
            },
            {
              "internalType": "enum NashEscrow.Status",
              "name": "status",
              "type": "uint8"
            },
            {
              "internalType": "uint256",
              "name": "netAmount",
              "type": "uint256"
            },
            {
              "internalType": "uint256",
              "name": "agentFee",
              "type": "uint256"
            },
            {
              "internalType": "uint256",
              "name": "nashFee",
              "type": "uint256"
            },
            {
              "internalType": "uint256",
              "name": "grossAmount",
              "type": "uint256"
            },
            {
              "internalType": "bool",
              "name": "agentApproval",
              "type": "bool"
            },
            {
              "internalType": "bool",
              "name": "clientApproval",
              "type": "bool"
            },
            {
              "internalType": "string",
              "name": "agentPhoneNumber",
              "type": "string"
            },
            {
              "internalType": "string",
              "name": "clientPhoneNumber",
              "type": "string"
            }
          ],
          "indexed": false,
          "internalType": "struct NashEscrow.NashTransaction",
          "name": "wtx",
          "type": "tuple"
        }
      ],
      "name": "TransactionCompletionEvent",
      "type": "event"
    },
    {
      "anonymous": false,
      "inputs": [
        {
          "components": [
            {
              "internalType": "uint256",
              "name": "id",
              "type": "uint256"
            },
            {
              "internalType": "enum NashEscrow.TransactionType",
              "name": "txType",
              "type": "uint8"
            },
            {
              "internalType": "address",
              "name": "clientAddress",
              "type": "address"
            },
            {
              "internalType": "address",
              "name": "agentAddress",
              "type": "address"
            },
            {
              "internalType": "enum NashEscrow.Status",
              "name": "status",
              "type": "uint8"
            },
            {
              "internalType": "uint256",
              "name": "netAmount",
              "type": "uint256"
            },
            {
              "internalType": "uint256",
              "name": "agentFee",
              "type": "uint256"
            },
            {
              "internalType": "uint256",
              "name": "nashFee",
              "type": "uint256"
            },
            {
              "internalType": "uint256",
              "name": "grossAmount",
              "type": "uint256"
            },
            {
              "internalType": "bool",
              "name": "agentApproval",
              "type": "bool"
            },
            {
              "internalType": "bool",
              "name": "clientApproval",
              "type": "bool"
            },
            {
              "internalType": "string",
              "name": "agentPhoneNumber",
              "type": "string"
            },
            {
              "internalType": "string",
              "name": "clientPhoneNumber",
              "type": "string"
            }
          ],
          "indexed": false,
          "internalType": "struct NashEscrow.NashTransaction",
          "name": "wtx",
          "type": "tuple"
        }
      ],
      "name": "TransactionInitEvent",
      "type": "event"
    },
    {
      "inputs": [
        {
          "internalType": "uint256",
          "name": "_transactionid",
          "type": "uint256"
        },
        {
          "internalType": "string",
          "name": "_phoneNumber",
          "type": "string"
        }
      ],
      "name": "agentAcceptDepositTransaction",
      "outputs": [],
      "stateMutability": "payable",
      "type": "function"
    },
    {
      "inputs": [
        {
          "internalType": "uint256",
          "name": "_transactionid",
          "type": "uint256"
        },
        {
          "internalType": "string",
          "name": "_phoneNumber",
          "type": "string"
        }
      ],
      "name": "agentAcceptWithdrawalTransaction",
      "outputs": [],
      "stateMutability": "nonpayable",
      "type": "function"
    },
    {
      "inputs": [
        {
          "internalType": "uint256",
          "name": "_transactionid",
          "type": "uint256"
        }
      ],
      "name": "agentConfirmPayment",
      "outputs": [],
      "stateMutability": "nonpayable",
      "type": "function"
    },
    {
      "inputs": [
        {
          "internalType": "uint256",
          "name": "_transactionid",
          "type": "uint256"
        }
      ],
      "name": "clientConfirmPayment",
      "outputs": [],
      "stateMutability": "nonpayable",
      "type": "function"
    },
    {
      "inputs": [],
      "name": "countSuccessfulTransactions",
      "outputs": [
        {
          "internalType": "uint256",
          "name": "",
          "type": "uint256"
        }
      ],
      "stateMutability": "view",
      "type": "function"
    },
    {
      "inputs": [
        {
          "internalType": "uint256",
          "name": "_transactionid",
          "type": "uint256"
        }
      ],
      "name": "finalizeTransaction",
      "outputs": [],
      "stateMutability": "nonpayable",
      "type": "function"
    },
    {
      "inputs": [],
      "name": "getAgentFee",
      "outputs": [
        {
          "internalType": "uint256",
          "name": "",
          "type": "uint256"
        }
      ],
      "stateMutability": "view",
      "type": "function"
    },
    {
      "inputs": [],
      "name": "getNashFee",
      "outputs": [
        {
          "internalType": "uint256",
          "name": "",
          "type": "uint256"
        }
      ],
      "stateMutability": "view",
      "type": "function"
    },
    {
      "inputs": [],
      "name": "getNextTransactionIndex",
      "outputs": [
        {
          "internalType": "uint256",
          "name": "",
          "type": "uint256"
        }
      ],
      "stateMutability": "view",
      "type": "function"
    },
    {
      "inputs": [
        {
          "internalType": "uint256",
          "name": "_transactionID",
          "type": "uint256"
        }
      ],
      "name": "getNextUnpairedTransaction",
      "outputs": [
        {
          "components": [
            {
              "internalType": "uint256",
              "name": "id",
              "type": "uint256"
            },
            {
              "internalType": "enum NashEscrow.TransactionType",
              "name": "txType",
              "type": "uint8"
            },
            {
              "internalType": "address",
              "name": "clientAddress",
              "type": "address"
            },
            {
              "internalType": "address",
              "name": "agentAddress",
              "type": "address"
            },
            {
              "internalType": "enum NashEscrow.Status",
              "name": "status",
              "type": "uint8"
            },
            {
              "internalType": "uint256",
              "name": "netAmount",
              "type": "uint256"
            },
            {
              "internalType": "uint256",
              "name": "agentFee",
              "type": "uint256"
            },
            {
              "internalType": "uint256",
              "name": "nashFee",
              "type": "uint256"
            },
            {
              "internalType": "uint256",
              "name": "grossAmount",
              "type": "uint256"
            },
            {
              "internalType": "bool",
              "name": "agentApproval",
              "type": "bool"
            },
            {
              "internalType": "bool",
              "name": "clientApproval",
              "type": "bool"
            },
            {
              "internalType": "string",
              "name": "agentPhoneNumber",
              "type": "string"
            },
            {
              "internalType": "string",
              "name": "clientPhoneNumber",
              "type": "string"
            }
          ],
          "internalType": "struct NashEscrow.NashTransaction",
          "name": "",
          "type": "tuple"
        }
      ],
      "stateMutability": "view",
      "type": "function"
    },
    {
      "inputs": [
        {
          "internalType": "uint256",
          "name": "_transactionID",
          "type": "uint256"
        }
      ],
      "name": "getTransactionByIndex",
      "outputs": [
        {
          "components": [
            {
              "internalType": "uint256",
              "name": "id",
              "type": "uint256"
            },
            {
              "internalType": "enum NashEscrow.TransactionType",
              "name": "txType",
              "type": "uint8"
            },
            {
              "internalType": "address",
              "name": "clientAddress",
              "type": "address"
            },
            {
              "internalType": "address",
              "name": "agentAddress",
              "type": "address"
            },
            {
              "internalType": "enum NashEscrow.Status",
              "name": "status",
              "type": "uint8"
            },
            {
              "internalType": "uint256",
              "name": "netAmount",
              "type": "uint256"
            },
            {
              "internalType": "uint256",
              "name": "agentFee",
              "type": "uint256"
            },
            {
              "internalType": "uint256",
              "name": "nashFee",
              "type": "uint256"
            },
            {
              "internalType": "uint256",
              "name": "grossAmount",
              "type": "uint256"
            },
            {
              "internalType": "bool",
              "name": "agentApproval",
              "type": "bool"
            },
            {
              "internalType": "bool",
              "name": "clientApproval",
              "type": "bool"
            },
            {
              "internalType": "string",
              "name": "agentPhoneNumber",
              "type": "string"
            },
            {
              "internalType": "string",
              "name": "clientPhoneNumber",
              "type": "string"
            }
          ],
          "internalType": "struct NashEscrow.NashTransaction",
          "name": "",
          "type": "tuple"
        }
      ],
      "stateMutability": "view",
      "type": "function"
    },
    {
      "inputs": [
        {
          "internalType": "uint256",
          "name": "_paginationCount",
          "type": "uint256"
        },
        {
          "internalType": "uint256",
          "name": "_startingPoint",
          "type": "uint256"
        },
        {
          "internalType": "enum NashEscrow.Status",
          "name": "_status",
          "type": "uint8"
        }
      ],
      "name": "getTransactions",
      "outputs": [
        {
          "components": [
            {
              "internalType": "uint256",
              "name": "id",
              "type": "uint256"
            },
            {
              "internalType": "enum NashEscrow.TransactionType",
              "name": "txType",
              "type": "uint8"
            },
            {
              "internalType": "address",
              "name": "clientAddress",
              "type": "address"
            },
            {
              "internalType": "address",
              "name": "agentAddress",
              "type": "address"
            },
            {
              "internalType": "enum NashEscrow.Status",
              "name": "status",
              "type": "uint8"
            },
            {
              "internalType": "uint256",
              "name": "netAmount",
              "type": "uint256"
            },
            {
              "internalType": "uint256",
              "name": "agentFee",
              "type": "uint256"
            },
            {
              "internalType": "uint256",
              "name": "nashFee",
              "type": "uint256"
            },
            {
              "internalType": "uint256",
              "name": "grossAmount",
              "type": "uint256"
            },
            {
              "internalType": "bool",
              "name": "agentApproval",
              "type": "bool"
            },
            {
              "internalType": "bool",
              "name": "clientApproval",
              "type": "bool"
            },
            {
              "internalType": "string",
              "name": "agentPhoneNumber",
              "type": "string"
            },
            {
              "internalType": "string",
              "name": "clientPhoneNumber",
              "type": "string"
            }
          ],
          "internalType": "struct NashEscrow.NashTransaction[]",
          "name": "",
          "type": "tuple[]"
        }
      ],
      "stateMutability": "view",
      "type": "function"
    },
    {
      "inputs": [
        {
          "internalType": "uint256",
          "name": "_amount",
          "type": "uint256"
        },
        {
          "internalType": "string",
          "name": "_phoneNumber",
          "type": "string"
        }
      ],
      "name": "initializeDepositTransaction",
      "outputs": [],
      "stateMutability": "nonpayable",
      "type": "function"
    },
    {
      "inputs": [
        {
          "internalType": "uint256",
          "name": "_amount",
          "type": "uint256"
        },
        {
          "internalType": "string",
          "name": "_phoneNumber",
          "type": "string"
        }
      ],
      "name": "initializeWithdrawalTransaction",
      "outputs": [],
      "stateMutability": "payable",
      "type": "function"
    }
  ],
  "bytecode": "0x6080604052600060015566b1a2bc2ec50000600255668e1bc9bf040000600355600060045573ff096016a3b65cdda688a8f7237ac94f3efba245600560006101000a81548173ffffffffffffffffffffffffffffffffffffffff021916908373ffffffffffffffffffffffffffffffffffffffff16021790555073874069fa1eb16d44d622f2e0ca25eea172369bc1600660006101000a81548173ffffffffffffffffffffffffffffffffffffffff021916908373ffffffffffffffffffffffffffffffffffffffff160217905550348015620000db57600080fd5b5060405162004c2938038062004c2983398181016040528101906200010191906200024b565b600073ffffffffffffffffffffffffffffffffffffffff168473ffffffffffffffffffffffffffffffffffffffff1614620001785783600660006101000a81548173ffffffffffffffffffffffffffffffffffffffff021916908373ffffffffffffffffffffffffffffffffffffffff1602179055505b600073ffffffffffffffffffffffffffffffffffffffff168173ffffffffffffffffffffffffffffffffffffffff1614620001ef5780600560006101000a81548173ffffffffffffffffffffffffffffffffffffffff021916908373ffffffffffffffffffffffffffffffffffffffff1602179055505b60008311156200020157826002819055505b60008211156200021357816003819055505b5050505062000329565b6000815190506200022e81620002f5565b92915050565b60008151905062000245816200030f565b92915050565b600080600080608085870312156200026257600080fd5b600062000272878288016200021d565b9450506020620002858782880162000234565b9350506040620002988782880162000234565b9250506060620002ab878288016200021d565b91505092959194509250565b6000620002c482620002cb565b9050919050565b600073ffffffffffffffffffffffffffffffffffffffff82169050919050565b6000819050919050565b6200030081620002b7565b81146200030c57600080fd5b50565b6200031a81620002eb565b81146200032657600080fd5b50565b6148f080620003396000396000f3fe6080604052600436106100dd5760003560e01c8063869152e71161007f578063bcc9b5ad11610059578063bcc9b5ad146102ac578063d677d86d146102d5578063de22287e14610312578063f6b5d6581461032e576100dd565b8063869152e71461020757806391b8f09914610244578063954bbb8b14610281576100dd565b80634a57e1c9116100bb5780634a57e1c91461015f57806350b8a90a146101885780636a54c620146101b35780636e5f147d146101dc576100dd565b806325322bd2146100e257806330a9de621461010d5780633f3bf8d414610136575b600080fd5b3480156100ee57600080fd5b506100f761034a565b6040516101049190613f08565b60405180910390f35b34801561011957600080fd5b50610134600480360381019061012f91906133a3565b610354565b005b34801561014257600080fd5b5061015d600480360381019061015891906133a3565b6106ba565b005b34801561016b57600080fd5b5061018660048036038101906101819190613351565b6108f9565b005b34801561019457600080fd5b5061019d61100e565b6040516101aa9190613f08565b60405180910390f35b3480156101bf57600080fd5b506101da60048036038101906101d59190613351565b611018565b005b3480156101e857600080fd5b506101f161130e565b6040516101fe9190613f08565b60405180910390f35b34801561021357600080fd5b5061022e60048036038101906102299190613351565b611318565b60405161023b9190613ec4565b60405180910390f35b34801561025057600080fd5b5061026b60048036038101906102669190613351565b611692565b6040516102789190613ec4565b60405180910390f35b34801561028d57600080fd5b50610296611e6f565b6040516102a39190613f08565b60405180910390f35b3480156102b857600080fd5b506102d360048036038101906102ce9190613351565b611e79565b005b3480156102e157600080fd5b506102fc60048036038101906102f791906133fb565b61216f565b6040516103099190613c82565b60405180910390f35b61032c600480360381019061032791906133a3565b612889565b005b610348600480360381019061034391906133a3565b612b7a565b005b6000600154905090565b826000600760008381526020019081526020016000209050600060048111156103a6577f4e487b7100000000000000000000000000000000000000000000000000000000600052602160045260246000fd5b8160020160149054906101000a900460ff1660048111156103f0577f4e487b7100000000000000000000000000000000000000000000000000000000600052602160045260246000fd5b14610430576040517f08c379a000000000000000000000000000000000000000000000000000000000815260040161042790613d84565b60405180910390fd5b846000600760008381526020019081526020016000209050600180811115610481577f4e487b7100000000000000000000000000000000000000000000000000000000600052602160045260246000fd5b8160010160009054906101000a900460ff1660018111156104cb577f4e487b7100000000000000000000000000000000000000000000000000000000600052602160045260246000fd5b1461050b576040517f08c379a000000000000000000000000000000000000000000000000000000000815260040161050290613e44565b60405180910390fd5b8660006007600083815260200190815260200160002090508060010160019054906101000a900473ffffffffffffffffffffffffffffffffffffffff1673ffffffffffffffffffffffffffffffffffffffff163373ffffffffffffffffffffffffffffffffffffffff1614156105b6576040517f08c379a00000000000000000000000000000000000000000000000000000000081526004016105ad90613ca4565b60405180910390fd5b6000600760008b81526020019081526020016000209050338160020160006101000a81548173ffffffffffffffffffffffffffffffffffffffff021916908373ffffffffffffffffffffffffffffffffffffffff16021790555060018160020160146101000a81548160ff0219169083600481111561065e577f4e487b7100000000000000000000000000000000000000000000000000000000600052602160045260246000fd5b021790555088888260080191906106769291906130df565b507f59230f91c9ea3a0da6f2991ebf39b1b1efa9e321f42c6622eb3dd622ab849e56816040516106a69190613ee6565b60405180910390a150505050505050505050565b600083116106fd576040517f08c379a00000000000000000000000000000000000000000000000000000000081526004016106f490613e24565b60405180910390fd5b600060015490506001600081548092919061071790614279565b919050555060006007600083815260200190815260200160002090506000859050338260010160016101000a81548173ffffffffffffffffffffffffffffffffffffffff021916908373ffffffffffffffffffffffffffffffffffffffff16021790555082826000018190555060008260010160006101000a81548160ff021916908360018111156107d2577f4e487b7100000000000000000000000000000000000000000000000000000000600052602160045260246000fd5b02179055506002546003546107e79190613f9e565b816107f29190613ff4565b82600301819055506002548260040181905550600354826005018190555080826006018190555060008260020160146101000a81548160ff02191690836004811115610867577f4e487b7100000000000000000000000000000000000000000000000000000000600052602160045260246000fd5b0217905550848483600901919061087f9291906130df565b5060008260070160006101000a81548160ff02191690831515021790555060008260070160016101000a81548160ff0219169083151502179055507f8cebfb97f77ce25b9aa133b5f81fd8d5fe9b9a9d196417059095cc13edc72d2a826040516108e99190613ee6565b60405180910390a1505050505050565b60006007600083815260200190815260200160002090503373ffffffffffffffffffffffffffffffffffffffff168160010160019054906101000a900473ffffffffffffffffffffffffffffffffffffffff1673ffffffffffffffffffffffffffffffffffffffff1614806109bd57503373ffffffffffffffffffffffffffffffffffffffff168160020160009054906101000a900473ffffffffffffffffffffffffffffffffffffffff1673ffffffffffffffffffffffffffffffffffffffff16145b6109fc576040517f08c379a00000000000000000000000000000000000000000000000000000000081526004016109f390613e64565b60405180910390fd5b60026004811115610a36577f4e487b7100000000000000000000000000000000000000000000000000000000600052602160045260246000fd5b8160020160149054906101000a900460ff166004811115610a80577f4e487b7100000000000000000000000000000000000000000000000000000000600052602160045260246000fd5b14610ac0576040517f08c379a0000000000000000000000000000000000000000000000000000000008152600401610ab790613e84565b60405180910390fd5b60006001811115610afa577f4e487b7100000000000000000000000000000000000000000000000000000000600052602160045260246000fd5b8160010160009054906101000a900460ff166001811115610b44577f4e487b7100000000000000000000000000000000000000000000000000000000600052602160045260246000fd5b1415610c2757600660009054906101000a900473ffffffffffffffffffffffffffffffffffffffff1673ffffffffffffffffffffffffffffffffffffffff1663a9059cbb8260010160019054906101000a900473ffffffffffffffffffffffffffffffffffffffff1683600301546040518363ffffffff1660e01b8152600401610bcf929190613c59565b602060405180830381600087803b158015610be957600080fd5b505af1158015610bfd573d6000803e3d6000fd5b505050506040513d601f19601f82011682018060405250810190610c219190613328565b50610d3e565b600660009054906101000a900473ffffffffffffffffffffffffffffffffffffffff1673ffffffffffffffffffffffffffffffffffffffff1663a9059cbb8260020160009054906101000a900473ffffffffffffffffffffffffffffffffffffffff1683600301546040518363ffffffff1660e01b8152600401610cac929190613c59565b602060405180830381600087803b158015610cc657600080fd5b505af1158015610cda573d6000803e3d6000fd5b505050506040513d601f19601f82011682018060405250810190610cfe9190613328565b610d3d576040517f08c379a0000000000000000000000000000000000000000000000000000000008152600401610d3490613cc4565b60405180910390fd5b5b600660009054906101000a900473ffffffffffffffffffffffffffffffffffffffff1673ffffffffffffffffffffffffffffffffffffffff1663a9059cbb8260020160009054906101000a900473ffffffffffffffffffffffffffffffffffffffff1683600401546040518363ffffffff1660e01b8152600401610dc3929190613c59565b602060405180830381600087803b158015610ddd57600080fd5b505af1158015610df1573d6000803e3d6000fd5b505050506040513d601f19601f82011682018060405250810190610e159190613328565b610e54576040517f08c379a0000000000000000000000000000000000000000000000000000000008152600401610e4b90613ce4565b60405180910390fd5b600660009054906101000a900473ffffffffffffffffffffffffffffffffffffffff1673ffffffffffffffffffffffffffffffffffffffff1663a9059cbb600560009054906101000a900473ffffffffffffffffffffffffffffffffffffffff1683600501546040518363ffffffff1660e01b8152600401610ed7929190613c59565b602060405180830381600087803b158015610ef157600080fd5b505af1158015610f05573d6000803e3d6000fd5b505050506040513d601f19601f82011682018060405250810190610f299190613328565b610f68576040517f08c379a0000000000000000000000000000000000000000000000000000000008152600401610f5f90613d64565b60405180910390fd5b60046000815480929190610f7b90614279565b919050555060048160020160146101000a81548160ff02191690836004811115610fce577f4e487b7100000000000000000000000000000000000000000000000000000000600052602160045260246000fd5b02179055507f76e068e2026a471baa221d996fa7d776608af6de33cd8fe7f853bf253305c4d9816040516110029190613ee6565b60405180910390a15050565b6000600454905090565b8060006007600083815260200190815260200160002090506001600481111561106a577f4e487b7100000000000000000000000000000000000000000000000000000000600052602160045260246000fd5b8160020160149054906101000a900460ff1660048111156110b4577f4e487b7100000000000000000000000000000000000000000000000000000000600052602160045260246000fd5b146110f4576040517f08c379a00000000000000000000000000000000000000000000000000000000081526004016110eb90613d44565b60405180910390fd5b8260006007600083815260200190815260200160002090508060020160009054906101000a900473ffffffffffffffffffffffffffffffffffffffff1673ffffffffffffffffffffffffffffffffffffffff163373ffffffffffffffffffffffffffffffffffffffff161461119e576040517f08c379a000000000000000000000000000000000000000000000000000000000815260040161119590613de4565b60405180910390fd5b60006007600087815260200190815260200160002090508060070160009054906101000a900460ff1615611207576040517f08c379a00000000000000000000000000000000000000000000000000000000081526004016111fe90613da4565b60405180910390fd5b60018160070160006101000a81548160ff0219169083151502179055507fb0b9c6f3b67bc63df3e622865dd30b029df41c8c8e030efb6962841f0b0bdcf6816040516112539190613ee6565b60405180910390a18060070160019054906101000a900460ff16156113065760028160020160146101000a81548160ff021916908360048111156112c0577f4e487b7100000000000000000000000000000000000000000000000000000000600052602160045260246000fd5b02179055507f67482e5102dc960d6027c2fd6a0a55dce6c86385e0951603a4315dc2a12d60b2816040516112f49190613ee6565b60405180910390a1611305866108f9565b5b505050505050565b6000600254905090565b611320613165565b600060076000848152602001908152602001600020604051806101a0016040529081600082015481526020016001820160009054906101000a900460ff166001811115611396577f4e487b7100000000000000000000000000000000000000000000000000000000600052602160045260246000fd5b60018111156113ce577f4e487b7100000000000000000000000000000000000000000000000000000000600052602160045260246000fd5b81526020016001820160019054906101000a900473ffffffffffffffffffffffffffffffffffffffff1673ffffffffffffffffffffffffffffffffffffffff1673ffffffffffffffffffffffffffffffffffffffff1681526020016002820160009054906101000a900473ffffffffffffffffffffffffffffffffffffffff1673ffffffffffffffffffffffffffffffffffffffff1673ffffffffffffffffffffffffffffffffffffffff1681526020016002820160149054906101000a900460ff1660048111156114c9577f4e487b7100000000000000000000000000000000000000000000000000000000600052602160045260246000fd5b6004811115611501577f4e487b7100000000000000000000000000000000000000000000000000000000600052602160045260246000fd5b8152602001600382015481526020016004820154815260200160058201548152602001600682015481526020016007820160009054906101000a900460ff161515151581526020016007820160019054906101000a900460ff1615151515815260200160088201805461157390614191565b80601f016020809104026020016040519081016040528092919081815260200182805461159f90614191565b80156115ec5780601f106115c1576101008083540402835291602001916115ec565b820191906000526020600020905b8154815290600101906020018083116115cf57829003601f168201915b5050505050815260200160098201805461160590614191565b80601f016020809104026020016040519081016040528092919081815260200182805461163190614191565b801561167e5780601f106116535761010080835404028352916020019161167e565b820191906000526020600020905b81548152906001019060200180831161166157829003601f168201915b505050505081525050905080915050919050565b61169a613165565b600082905060006001548411156116b15760015491505b60008290505b60008112611afa57600760008281526020019081526020016000209150600073ffffffffffffffffffffffffffffffffffffffff168260010160019054906101000a900473ffffffffffffffffffffffffffffffffffffffff1673ffffffffffffffffffffffffffffffffffffffff16141580156117855750600073ffffffffffffffffffffffffffffffffffffffff168260020160009054906101000a900473ffffffffffffffffffffffffffffffffffffffff1673ffffffffffffffffffffffffffffffffffffffff16145b15611ae75781604051806101a0016040529081600082015481526020016001820160009054906101000a900460ff1660018111156117ec577f4e487b7100000000000000000000000000000000000000000000000000000000600052602160045260246000fd5b6001811115611824577f4e487b7100000000000000000000000000000000000000000000000000000000600052602160045260246000fd5b81526020016001820160019054906101000a900473ffffffffffffffffffffffffffffffffffffffff1673ffffffffffffffffffffffffffffffffffffffff1673ffffffffffffffffffffffffffffffffffffffff1681526020016002820160009054906101000a900473ffffffffffffffffffffffffffffffffffffffff1673ffffffffffffffffffffffffffffffffffffffff1673ffffffffffffffffffffffffffffffffffffffff1681526020016002820160149054906101000a900460ff16600481111561191f577f4e487b7100000000000000000000000000000000000000000000000000000000600052602160045260246000fd5b6004811115611957577f4e487b7100000000000000000000000000000000000000000000000000000000600052602160045260246000fd5b8152602001600382015481526020016004820154815260200160058201548152602001600682015481526020016007820160009054906101000a900460ff161515151581526020016007820160019054906101000a900460ff161515151581526020016008820180546119c990614191565b80601f01602080910402602001604051908101604052809291908181526020018280546119f590614191565b8015611a425780601f10611a1757610100808354040283529160200191611a42565b820191906000526020600020905b815481529060010190602001808311611a2557829003601f168201915b50505050508152602001600982018054611a5b90614191565b80601f0160208091040260200160405190810160405280929190818152602001828054611a8790614191565b8015611ad45780601f10611aa957610100808354040283529160200191611ad4565b820191906000526020600020905b815481529060010190602001808311611ab757829003601f168201915b5050505050815250509350505050611e6a565b8080611af290614148565b9150506116b7565b50600760006001548152602001908152602001600020905080604051806101a0016040529081600082015481526020016001820160009054906101000a900460ff166001811115611b74577f4e487b7100000000000000000000000000000000000000000000000000000000600052602160045260246000fd5b6001811115611bac577f4e487b7100000000000000000000000000000000000000000000000000000000600052602160045260246000fd5b81526020016001820160019054906101000a900473ffffffffffffffffffffffffffffffffffffffff1673ffffffffffffffffffffffffffffffffffffffff1673ffffffffffffffffffffffffffffffffffffffff1681526020016002820160009054906101000a900473ffffffffffffffffffffffffffffffffffffffff1673ffffffffffffffffffffffffffffffffffffffff1673ffffffffffffffffffffffffffffffffffffffff1681526020016002820160149054906101000a900460ff166004811115611ca7577f4e487b7100000000000000000000000000000000000000000000000000000000600052602160045260246000fd5b6004811115611cdf577f4e487b7100000000000000000000000000000000000000000000000000000000600052602160045260246000fd5b8152602001600382015481526020016004820154815260200160058201548152602001600682015481526020016007820160009054906101000a900460ff161515151581526020016007820160019054906101000a900460ff16151515158152602001600882018054611d5190614191565b80601f0160208091040260200160405190810160405280929190818152602001828054611d7d90614191565b8015611dca5780601f10611d9f57610100808354040283529160200191611dca565b820191906000526020600020905b815481529060010190602001808311611dad57829003601f168201915b50505050508152602001600982018054611de390614191565b80601f0160208091040260200160405190810160405280929190818152602001828054611e0f90614191565b8015611e5c5780601f10611e3157610100808354040283529160200191611e5c565b820191906000526020600020905b815481529060010190602001808311611e3f57829003601f168201915b505050505081525050925050505b919050565b6000600354905090565b80600060076000838152602001908152602001600020905060016004811115611ecb577f4e487b7100000000000000000000000000000000000000000000000000000000600052602160045260246000fd5b8160020160149054906101000a900460ff166004811115611f15577f4e487b7100000000000000000000000000000000000000000000000000000000600052602160045260246000fd5b14611f55576040517f08c379a0000000000000000000000000000000000000000000000000000000008152600401611f4c90613d44565b60405180910390fd5b8260006007600083815260200190815260200160002090508060010160019054906101000a900473ffffffffffffffffffffffffffffffffffffffff1673ffffffffffffffffffffffffffffffffffffffff163373ffffffffffffffffffffffffffffffffffffffff1614611fff576040517f08c379a0000000000000000000000000000000000000000000000000000000008152600401611ff690613d24565b60405180910390fd5b60006007600087815260200190815260200160002090508060070160019054906101000a900460ff1615612068576040517f08c379a000000000000000000000000000000000000000000000000000000000815260040161205f90613dc4565b60405180910390fd5b60018160070160016101000a81548160ff0219169083151502179055507f51f00369f0da368ad2090e8396a3a16c8b717fac5eddecad3bc692cb66481f5d816040516120b49190613ee6565b60405180910390a18060070160009054906101000a900460ff16156121675760028160020160146101000a81548160ff02191690836004811115612121577f4e487b7100000000000000000000000000000000000000000000000000000000600052602160045260246000fd5b02179055507f67482e5102dc960d6027c2fd6a0a55dce6c86385e0951603a4315dc2a12d60b2816040516121559190613ee6565b60405180910390a1612166866108f9565b5b505050505050565b60606000839050600085905060015482111561218b5760015491505b60015486111561219b5760015490505b600f8611156121a957600f90505b60008167ffffffffffffffff8111156121eb577f4e487b7100000000000000000000000000000000000000000000000000000000600052604160045260246000fd5b60405190808252806020026020018201604052801561222457816020015b612211613165565b8152602001906001900390816122095790505b5090506000805b838110156127175761223b613165565b6000808790505b600081126126f55760076000828152602001908152602001600020604051806101a0016040529081600082015481526020016001820160009054906101000a900460ff1660018111156122be577f4e487b7100000000000000000000000000000000000000000000000000000000600052602160045260246000fd5b60018111156122f6577f4e487b7100000000000000000000000000000000000000000000000000000000600052602160045260246000fd5b81526020016001820160019054906101000a900473ffffffffffffffffffffffffffffffffffffffff1673ffffffffffffffffffffffffffffffffffffffff1673ffffffffffffffffffffffffffffffffffffffff1681526020016002820160009054906101000a900473ffffffffffffffffffffffffffffffffffffffff1673ffffffffffffffffffffffffffffffffffffffff1673ffffffffffffffffffffffffffffffffffffffff1681526020016002820160149054906101000a900460ff1660048111156123f1577f4e487b7100000000000000000000000000000000000000000000000000000000600052602160045260246000fd5b6004811115612429577f4e487b7100000000000000000000000000000000000000000000000000000000600052602160045260246000fd5b8152602001600382015481526020016004820154815260200160058201548152602001600682015481526020016007820160009054906101000a900460ff161515151581526020016007820160019054906101000a900460ff1615151515815260200160088201805461249b90614191565b80601f01602080910402602001604051908101604052809291908181526020018280546124c790614191565b80156125145780601f106124e957610100808354040283529160200191612514565b820191906000526020600020905b8154815290600101906020018083116124f757829003601f168201915b5050505050815260200160098201805461252d90614191565b80601f016020809104026020016040519081016040528092919081815260200182805461255990614191565b80156125a65780601f1061257b576101008083540402835291602001916125a6565b820191906000526020600020905b81548152906001019060200180831161258957829003601f168201915b50505050508152505092508960048111156125ea577f4e487b7100000000000000000000000000000000000000000000000000000000600052602160045260246000fd5b83608001516004811115612627577f4e487b7100000000000000000000000000000000000000000000000000000000600052602160045260246000fd5b1480156126655750600073ffffffffffffffffffffffffffffffffffffffff16836040015173ffffffffffffffffffffffffffffffffffffffff1614155b156126e257828685815181106126a4577f4e487b7100000000000000000000000000000000000000000000000000000000600052603260045260246000fd5b602002602001018190525060008113156126c8576001816126c59190613ff4565b97505b6000811415915084806126da90614279565b9550506126f5565b80806126ed90614148565b915050612242565b5080612702575050612717565b5050808061270f90614279565b91505061222b565b5060008167ffffffffffffffff81111561275a577f4e487b7100000000000000000000000000000000000000000000000000000000600052604160045260246000fd5b60405190808252806020026020018201604052801561279357816020015b612780613165565b8152602001906001900390816127785790505b50905060005b83518110156128795760008482815181106127dd577f4e487b7100000000000000000000000000000000000000000000000000000000600052603260045260246000fd5b60200260200101519050600073ffffffffffffffffffffffffffffffffffffffff16816040015173ffffffffffffffffffffffffffffffffffffffff16146128655780838381518110612859577f4e487b7100000000000000000000000000000000000000000000000000000000600052603260045260246000fd5b60200260200101819052505b50808061287190614279565b915050612799565b5080955050505050509392505050565b600083116128cc576040517f08c379a00000000000000000000000000000000000000000000000000000000081526004016128c390613e24565b60405180910390fd5b60006001549050600160008154809291906128e690614279565b919050555060008490506000600760008481526020019081526020016000209050338160010160016101000a81548173ffffffffffffffffffffffffffffffffffffffff021916908373ffffffffffffffffffffffffffffffffffffffff16021790555082816000018190555060018160010160006101000a81548160ff021916908360018111156129a1577f4e487b7100000000000000000000000000000000000000000000000000000000600052602160045260246000fd5b02179055506002546003546129b69190613f9e565b826129c19190613ff4565b81600301819055506002548160040181905550600354816005018190555081816006018190555060008160020160146101000a81548160ff02191690836004811115612a36577f4e487b7100000000000000000000000000000000000000000000000000000000600052602160045260246000fd5b02179055508484826009019190612a4e9291906130df565b5060008160070160006101000a81548160ff02191690831515021790555060008160070160016101000a81548160ff021916908315150217905550600660009054906101000a900473ffffffffffffffffffffffffffffffffffffffff1673ffffffffffffffffffffffffffffffffffffffff166323b872dd3330856040518463ffffffff1660e01b8152600401612ae893929190613c22565b602060405180830381600087803b158015612b0257600080fd5b505af1158015612b16573d6000803e3d6000fd5b505050506040513d601f19601f82011682018060405250810190612b3a9190613328565b507f8cebfb97f77ce25b9aa133b5f81fd8d5fe9b9a9d196417059095cc13edc72d2a81604051612b6a9190613ee6565b60405180910390a1505050505050565b82600060076000838152602001908152602001600020905060006004811115612bcc577f4e487b7100000000000000000000000000000000000000000000000000000000600052602160045260246000fd5b8160020160149054906101000a900460ff166004811115612c16577f4e487b7100000000000000000000000000000000000000000000000000000000600052602160045260246000fd5b14612c56576040517f08c379a0000000000000000000000000000000000000000000000000000000008152600401612c4d90613d84565b60405180910390fd5b84600060076000838152602001908152602001600020905060006001811115612ca8577f4e487b7100000000000000000000000000000000000000000000000000000000600052602160045260246000fd5b8160010160009054906101000a900460ff166001811115612cf2577f4e487b7100000000000000000000000000000000000000000000000000000000600052602160045260246000fd5b14612d32576040517f08c379a0000000000000000000000000000000000000000000000000000000008152600401612d2990613e04565b60405180910390fd5b8660006007600083815260200190815260200160002090508060010160019054906101000a900473ffffffffffffffffffffffffffffffffffffffff1673ffffffffffffffffffffffffffffffffffffffff163373ffffffffffffffffffffffffffffffffffffffff161415612ddd576040517f08c379a0000000000000000000000000000000000000000000000000000000008152600401612dd490613ca4565b60405180910390fd5b8860006007600083815260200190815260200160002090508060060154600660009054906101000a900473ffffffffffffffffffffffffffffffffffffffff1673ffffffffffffffffffffffffffffffffffffffff166370a08231336040518263ffffffff1660e01b8152600401612e559190613c07565b60206040518083038186803b158015612e6d57600080fd5b505afa158015612e81573d6000803e3d6000fd5b505050506040513d601f19601f82011682018060405250810190612ea5919061337a565b11612ee5576040517f08c379a0000000000000000000000000000000000000000000000000000000008152600401612edc90613ea4565b60405180910390fd5b6000600760008d81526020019081526020016000209050338160020160006101000a81548173ffffffffffffffffffffffffffffffffffffffff021916908373ffffffffffffffffffffffffffffffffffffffff16021790555060018160020160146101000a81548160ff02191690836004811115612f8d577f4e487b7100000000000000000000000000000000000000000000000000000000600052602160045260246000fd5b0217905550600660009054906101000a900473ffffffffffffffffffffffffffffffffffffffff1673ffffffffffffffffffffffffffffffffffffffff166323b872dd333084600601546040518463ffffffff1660e01b8152600401612ff593929190613c22565b602060405180830381600087803b15801561300f57600080fd5b505af1158015613023573d6000803e3d6000fd5b505050506040513d601f19601f820116820180604052508101906130479190613328565b613086576040517f08c379a000000000000000000000000000000000000000000000000000000000815260040161307d90613d04565b60405180910390fd5b8a8a8260080191906130999291906130df565b507f59230f91c9ea3a0da6f2991ebf39b1b1efa9e321f42c6622eb3dd622ab849e56816040516130c99190613ee6565b60405180910390a1505050505050505050505050565b8280546130eb90614191565b90600052602060002090601f01602090048101928261310d5760008555613154565b82601f1061312657803560ff1916838001178555613154565b82800160010185558215613154579182015b82811115613153578235825591602001919060010190613138565b5b509050613161919061326d565b5090565b604051806101a0016040528060008152602001600060018111156131b2577f4e487b7100000000000000000000000000000000000000000000000000000000600052602160045260246000fd5b8152602001600073ffffffffffffffffffffffffffffffffffffffff168152602001600073ffffffffffffffffffffffffffffffffffffffff1681526020016000600481111561322b577f4e487b7100000000000000000000000000000000000000000000000000000000600052602160045260246000fd5b81526020016000815260200160008152602001600081526020016000815260200160001515815260200160001515815260200160608152602001606081525090565b5b8082111561328657600081600090555060010161326e565b5090565b6000815190506132998161487c565b92915050565b6000813590506132ae81614893565b92915050565b60008083601f8401126132c657600080fd5b8235905067ffffffffffffffff8111156132df57600080fd5b6020830191508360018202830111156132f757600080fd5b9250929050565b60008135905061330d816148a3565b92915050565b600081519050613322816148a3565b92915050565b60006020828403121561333a57600080fd5b60006133488482850161328a565b91505092915050565b60006020828403121561336357600080fd5b6000613371848285016132fe565b91505092915050565b60006020828403121561338c57600080fd5b600061339a84828501613313565b91505092915050565b6000806000604084860312156133b857600080fd5b60006133c6868287016132fe565b935050602084013567ffffffffffffffff8111156133e357600080fd5b6133ef868287016132b4565b92509250509250925092565b60008060006060848603121561341057600080fd5b600061341e868287016132fe565b935050602061342f868287016132fe565b92505060406134408682870161329f565b9150509250925092565b6000613456838361382a565b905092915050565b61346781614079565b82525050565b61347681614079565b82525050565b600061348782613f48565b6134918185613f6b565b9350836020820285016134a385613f23565b8060005b858110156134df57848403895281516134c0858261344a565b94506134cb83613f5e565b925060208a019950506001810190506134a7565b50829750879550505050505092915050565b6134fa8161408b565b82525050565b613509816140f1565b82525050565b61351881614103565b82525050565b600061352982613f53565b6135338185613f7c565b9350613543818560208601614115565b61354c8161434f565b840191505092915050565b6000815461356481614191565b61356e8186613f7c565b94506001821660008114613589576001811461359b576135ce565b60ff19831686526020860193506135ce565b6135a485613f33565b60005b838110156135c6578154818901526001820191506020810190506135a7565b808801955050505b50505092915050565b60006135e4602b83613f8d565b91506135ef82614387565b604082019050919050565b6000613607601383613f8d565b9150613612826143d6565b602082019050919050565b600061362a601a83613f8d565b9150613635826143ff565b602082019050919050565b600061364d603283613f8d565b915061365882614428565b604082019050919050565b6000613670602c83613f8d565b915061367b82614477565b604082019050919050565b6000613693603583613f8d565b915061369e826144c6565b604082019050919050565b60006136b6602083613f8d565b91506136c182614515565b602082019050919050565b60006136d9602883613f8d565b91506136e48261453e565b604082019050919050565b60006136fc602183613f8d565b91506137078261458d565b604082019050919050565b600061371f602283613f8d565b915061372a826145dc565b604082019050919050565b6000613742602983613f8d565b915061374d8261462b565b604082019050919050565b6000613765603c83613f8d565b91506137708261467a565b604082019050919050565b6000613788602983613f8d565b9150613793826146c9565b604082019050919050565b60006137ab603f83613f8d565b91506137b682614718565b604082019050919050565b60006137ce603983613f8d565b91506137d982614767565b604082019050919050565b60006137f1602f83613f8d565b91506137fc826147b6565b604082019050919050565b6000613814603f83613f8d565b915061381f82614805565b604082019050919050565b60006101a0830160008301516138436000860182613be9565b506020830151613856602086018261350f565b506040830151613869604086018261345e565b50606083015161387c606086018261345e565b50608083015161388f6080860182613500565b5060a08301516138a260a0860182613be9565b5060c08301516138b560c0860182613be9565b5060e08301516138c860e0860182613be9565b506101008301516138dd610100860182613be9565b506101208301516138f26101208601826134f1565b506101408301516139076101408601826134f1565b50610160830151848203610160860152613921828261351e565b91505061018083015184820361018086015261393d828261351e565b9150508091505092915050565b60006101a0830160008301516139636000860182613be9565b506020830151613976602086018261350f565b506040830151613989604086018261345e565b50606083015161399c606086018261345e565b5060808301516139af6080860182613500565b5060a08301516139c260a0860182613be9565b5060c08301516139d560c0860182613be9565b5060e08301516139e860e0860182613be9565b506101008301516139fd610100860182613be9565b50610120830151613a126101208601826134f1565b50610140830151613a276101408601826134f1565b50610160830151848203610160860152613a41828261351e565b915050610180830151848203610180860152613a5d828261351e565b9150508091505092915050565b60006101a083016000808401549050613a8281614211565b613a8f6000870182613be9565b5060018401549050613aa0816141f7565b613aad602087018261350f565b50613ab78161422b565b613ac4604087018261345e565b5060028401549050613ad5816141c3565b613ae2606087018261345e565b50613aec8161425f565b613af96080870182613500565b5060038401549050613b0a81614211565b613b1760a0870182613be9565b5060048401549050613b2881614211565b613b3560c0870182613be9565b5060058401549050613b4681614211565b613b5360e0870182613be9565b5060068401549050613b6481614211565b613b72610100870182613be9565b5060078401549050613b83816141dd565b613b916101208701826134f1565b50613b9b81614245565b613ba96101408701826134f1565b5060088401858303610160870152613bc18382613557565b92505060098401858303610180870152613bdb8382613557565b925050819250505092915050565b613bf2816140e7565b82525050565b613c01816140e7565b82525050565b6000602082019050613c1c600083018461346d565b92915050565b6000606082019050613c37600083018661346d565b613c44602083018561346d565b613c516040830184613bf8565b949350505050565b6000604082019050613c6e600083018561346d565b613c7b6020830184613bf8565b9392505050565b60006020820190508181036000830152613c9c818461347c565b905092915050565b60006020820190508181036000830152613cbd816135d7565b9050919050565b60006020820190508181036000830152613cdd816135fa565b9050919050565b60006020820190508181036000830152613cfd8161361d565b9050919050565b60006020820190508181036000830152613d1d81613640565b9050919050565b60006020820190508181036000830152613d3d81613663565b9050919050565b60006020820190508181036000830152613d5d81613686565b9050919050565b60006020820190508181036000830152613d7d816136a9565b9050919050565b60006020820190508181036000830152613d9d816136cc565b9050919050565b60006020820190508181036000830152613dbd816136ef565b9050919050565b60006020820190508181036000830152613ddd81613712565b9050919050565b60006020820190508181036000830152613dfd81613735565b9050919050565b60006020820190508181036000830152613e1d81613758565b9050919050565b60006020820190508181036000830152613e3d8161377b565b9050919050565b60006020820190508181036000830152613e5d8161379e565b9050919050565b60006020820190508181036000830152613e7d816137c1565b9050919050565b60006020820190508181036000830152613e9d816137e4565b9050919050565b60006020820190508181036000830152613ebd81613807565b9050919050565b60006020820190508181036000830152613ede818461394a565b905092915050565b60006020820190508181036000830152613f008184613a6a565b905092915050565b6000602082019050613f1d6000830184613bf8565b92915050565b6000819050602082019050919050565b60008190508160005260206000209050919050565b600081519050919050565b600081519050919050565b6000602082019050919050565b600082825260208201905092915050565b600082825260208201905092915050565b600082825260208201905092915050565b6000613fa9826140e7565b9150613fb4836140e7565b9250827fffffffffffffffffffffffffffffffffffffffffffffffffffffffffffffffff03821115613fe957613fe86142c2565b5b828201905092915050565b6000613fff826140e7565b915061400a836140e7565b92508282101561401d5761401c6142c2565b5b828203905092915050565b600073ffffffffffffffffffffffffffffffffffffffff82169050919050565b600060ff82169050919050565b600060ff82169050919050565b600060ff82169050919050565b6000819050919050565b6000614084826140c7565b9050919050565b60008115159050919050565b60008190506140a582614854565b919050565b60008190506140b882614868565b919050565b6000819050919050565b600073ffffffffffffffffffffffffffffffffffffffff82169050919050565b6000819050919050565b60006140fc82614097565b9050919050565b600061410e826140aa565b9050919050565b60005b83811015614133578082015181840152602081019050614118565b83811115614142576000848401525b50505050565b6000614153826140bd565b91507f8000000000000000000000000000000000000000000000000000000000000000821415614186576141856142c2565b5b600182039050919050565b600060028204905060018216806141a957607f821691505b602082108114156141bd576141bc614320565b5b50919050565b60006141d66141d183614360565b614028565b9050919050565b60006141f06141eb83614360565b614048565b9050919050565b600061420a61420583614360565b614062565b9050919050565b600061422461421f83614360565b61406f565b9050919050565b600061423e6142398361437a565b614028565b9050919050565b60006142586142538361437a565b614048565b9050919050565b600061427261426d8361436d565b614055565b9050919050565b6000614284826140e7565b91507fffffffffffffffffffffffffffffffffffffffffffffffffffffffffffffffff8214156142b7576142b66142c2565b5b600182019050919050565b7f4e487b7100000000000000000000000000000000000000000000000000000000600052601160045260246000fd5b7f4e487b7100000000000000000000000000000000000000000000000000000000600052602160045260246000fd5b7f4e487b7100000000000000000000000000000000000000000000000000000000600052602260045260246000fd5b6000601f19601f8301169050919050565b60008160001c9050919050565b60008160a01c9050919050565b60008160081c9050919050565b7f416374696f6e2063616e206e6f7420626520706572666f726d6564206279207460008201527f686520636c69656e742121000000000000000000000000000000000000000000602082015250565b7f5472616e73616374696f6e206661696c65642e00000000000000000000000000600082015250565b7f4167656e7420666565207472616e73666572206661696c65642e000000000000600082015250565b7f596f7520646f6e2774206861766520656e6f756768206355534420746f20616360008201527f63657074207468697320726571756573742e0000000000000000000000000000602082015250565b7f416374696f6e2063616e206f6e6c7920626520706572666f726d65642062792060008201527f74686520636c69656e7421210000000000000000000000000000000000000000602082015250565b7f5472616e73616374696f6e206973206e6f74206177616974696e6720636f6e6660008201527f69726d6174696f6e2066726f6d20616e796f6e652e0000000000000000000000602082015250565b7f5472616e73616374696f6e20666565207472616e73666572206661696c65642e600082015250565b7f5472616e73616374696f6e20616c72656164792070616972656420746f20616e60008201527f206167656e742121000000000000000000000000000000000000000000000000602082015250565b7f4167656e7420616c726561647920636f6e6669726d6564207061796d656e742160008201527f2100000000000000000000000000000000000000000000000000000000000000602082015250565b7f436c69656e7420616c726561647920636f6e6669726d6564207061796d656e7460008201527f2121000000000000000000000000000000000000000000000000000000000000602082015250565b7f416374696f6e2063616e206f6e6c7920626520706572666f726d65642062792060008201527f746865206167656e740000000000000000000000000000000000000000000000602082015250565b7f416374696f6e2063616e206f6e6c7920626520706572666f726d656420666f7260008201527f206465706f736974207472616e73616374696f6e73206f6e6c79212100000000602082015250565b7f416d6f756e7420746f206465706f736974206d7573742062652067726561746560008201527f72207468616e20302e0000000000000000000000000000000000000000000000602082015250565b7f416374696f6e2063616e206f6e6c7920626520706572666f726d656420666f7260008201527f207769746864726177616c207472616e73616374696f6e73206f6e6c79212100602082015250565b7f4f6e6c792074686520696e766f6c76656420706172746965732063616e20666960008201527f6e616c697a6520746865207472616e73616374696f6e2e212100000000000000602082015250565b7f5472616e73616374696f6e206e6f742079657420636f6e6669726d656420627960008201527f20626f7468207061727469657321210000000000000000000000000000000000602082015250565b7f596f75722062616c616e6365206d75737420626520677265617465722074686160008201527f6e20746865207472616e73616374696f6e2067726f737320616d6f756e742e00602082015250565b60058110614865576148646142f1565b5b50565b60028110614879576148786142f1565b5b50565b6148858161408b565b811461489057600080fd5b50565b600581106148a057600080fd5b50565b6148ac816140e7565b81146148b757600080fd5b5056fea26469706673582212204049ccdf73a9f0eb3e716794bbe46f5e08c0766e80fc5766e9d749e6f6bbb30664736f6c63430008040033",
  "linkReferences": {},
  "deployedLinkReferences": {}
}