{"contracts/NashEscrow.sol":{"NashEscrow":{"abi":[{"inputs":[{"internalType":"address","name":"_cUSDTokenAddress","type":"address"},{"internalType":"uint256","name":"_agentFee","type":"uint256"},{"internalType":"uint256","name":"_nashFee","type":"uint256"},{"internalType":"address","name":"_nashTreasuryAddress","type":"address"}],"stateMutability":"nonpayable","type":"constructor"},{"anonymous":false,"inputs":[{"components":[{"internalType":"uint256","name":"id","type":"uint256"},{"internalType":"enum NashEscrow.TransactionType","name":"txType","type":"uint8"},{"internalType":"address","name":"clientAddress","type":"address"},{"internalType":"address","name":"agentAddress","type":"address"},{"internalType":"enum NashEscrow.Status","name":"status","type":"uint8"},{"internalType":"uint256","name":"netAmount","type":"uint256"},{"internalType":"uint256","name":"agentFee","type":"uint256"},{"internalType":"uint256","name":"nashFee","type":"uint256"},{"internalType":"uint256","name":"grossAmount","type":"uint256"},{"internalType":"bool","name":"agentApproval","type":"bool"},{"internalType":"bool","name":"clientApproval","type":"bool"},{"internalType":"string","name":"agentPhoneNumber","type":"string"},{"internalType":"string","name":"clientPhoneNumber","type":"string"}],"indexed":false,"internalType":"struct NashEscrow.NashTransaction","name":"wtx","type":"tuple"}],"name":"AgentConfirmationEvent","type":"event"},{"anonymous":false,"inputs":[{"components":[{"internalType":"uint256","name":"id","type":"uint256"},{"internalType":"enum NashEscrow.TransactionType","name":"txType","type":"uint8"},{"internalType":"address","name":"clientAddress","type":"address"},{"internalType":"address","name":"agentAddress","type":"address"},{"internalType":"enum NashEscrow.Status","name":"status","type":"uint8"},{"internalType":"uint256","name":"netAmount","type":"uint256"},{"internalType":"uint256","name":"agentFee","type":"uint256"},{"internalType":"uint256","name":"nashFee","type":"uint256"},{"internalType":"uint256","name":"grossAmount","type":"uint256"},{"internalType":"bool","name":"agentApproval","type":"bool"},{"internalType":"bool","name":"clientApproval","type":"bool"},{"internalType":"string","name":"agentPhoneNumber","type":"string"},{"internalType":"string","name":"clientPhoneNumber","type":"string"}],"indexed":false,"internalType":"struct NashEscrow.NashTransaction","name":"wtx","type":"tuple"}],"name":"AgentPairingEvent","type":"event"},{"anonymous":false,"inputs":[{"components":[{"internalType":"uint256","name":"id","type":"uint256"},{"internalType":"enum NashEscrow.TransactionType","name":"txType","type":"uint8"},{"internalType":"address","name":"clientAddress","type":"address"},{"internalType":"address","name":"agentAddress","type":"address"},{"internalType":"enum NashEscrow.Status","name":"status","type":"uint8"},{"internalType":"uint256","name":"netAmount","type":"uint256"},{"internalType":"uint256","name":"agentFee","type":"uint256"},{"internalType":"uint256","name":"nashFee","type":"uint256"},{"internalType":"uint256","name":"grossAmount","type":"uint256"},{"internalType":"bool","name":"agentApproval","type":"bool"},{"internalType":"bool","name":"clientApproval","type":"bool"},{"internalType":"string","name":"agentPhoneNumber","type":"string"},{"internalType":"string","name":"clientPhoneNumber","type":"string"}],"indexed":false,"internalType":"struct NashEscrow.NashTransaction","name":"wtx","type":"tuple"}],"name":"ClientConfirmationEvent","type":"event"},{"anonymous":false,"inputs":[{"components":[{"internalType":"uint256","name":"id","type":"uint256"},{"internalType":"enum NashEscrow.TransactionType","name":"txType","type":"uint8"},{"internalType":"address","name":"clientAddress","type":"address"},{"internalType":"address","name":"agentAddress","type":"address"},{"internalType":"enum NashEscrow.Status","name":"status","type":"uint8"},{"internalType":"uint256","name":"netAmount","type":"uint256"},{"internalType":"uint256","name":"agentFee","type":"uint256"},{"internalType":"uint256","name":"nashFee","type":"uint256"},{"internalType":"uint256","name":"grossAmount","type":"uint256"},{"internalType":"bool","name":"agentApproval","type":"bool"},{"internalType":"bool","name":"clientApproval","type":"bool"},{"internalType":"string","name":"agentPhoneNumber","type":"string"},{"internalType":"string","name":"clientPhoneNumber","type":"string"}],"indexed":false,"internalType":"struct NashEscrow.NashTransaction","name":"wtx","type":"tuple"}],"name":"ConfirmationCompletedEvent","type":"event"},{"anonymous":false,"inputs":[{"components":[{"internalType":"uint256","name":"id","type":"uint256"},{"internalType":"enum NashEscrow.TransactionType","name":"txType","type":"uint8"},{"internalType":"address","name":"clientAddress","type":"address"},{"internalType":"address","name":"agentAddress","type":"address"},{"internalType":"enum NashEscrow.Status","name":"status","type":"uint8"},{"internalType":"uint256","name":"netAmount","type":"uint256"},{"internalType":"uint256","name":"agentFee","type":"uint256"},{"internalType":"uint256","name":"nashFee","type":"uint256"},{"internalType":"uint256","name":"grossAmount","type":"uint256"},{"internalType":"bool","name":"agentApproval","type":"bool"},{"internalType":"bool","name":"clientApproval","type":"bool"},{"internalType":"string","name":"agentPhoneNumber","type":"string"},{"internalType":"string","name":"clientPhoneNumber","type":"string"}],"indexed":false,"internalType":"struct NashEscrow.NashTransaction","name":"wtx","type":"tuple"}],"name":"TransactionCompletionEvent","type":"event"},{"anonymous":false,"inputs":[{"components":[{"internalType":"uint256","name":"id","type":"uint256"},{"internalType":"enum NashEscrow.TransactionType","name":"txType","type":"uint8"},{"internalType":"address","name":"clientAddress","type":"address"},{"internalType":"address","name":"agentAddress","type":"address"},{"internalType":"enum NashEscrow.Status","name":"status","type":"uint8"},{"internalType":"uint256","name":"netAmount","type":"uint256"},{"internalType":"uint256","name":"agentFee","type":"uint256"},{"internalType":"uint256","name":"nashFee","type":"uint256"},{"internalType":"uint256","name":"grossAmount","type":"uint256"},{"internalType":"bool","name":"agentApproval","type":"bool"},{"internalType":"bool","name":"clientApproval","type":"bool"},{"internalType":"string","name":"agentPhoneNumber","type":"string"},{"internalType":"string","name":"clientPhoneNumber","type":"string"}],"indexed":false,"internalType":"struct NashEscrow.NashTransaction","name":"wtx","type":"tuple"}],"name":"TransactionInitEvent","type":"event"},{"inputs":[{"internalType":"uint256","name":"_transactionid","type":"uint256"},{"internalType":"string","name":"_phoneNumber","type":"string"}],"name":"agentAcceptDepositTransaction","outputs":[],"stateMutability":"payable","type":"function"},{"inputs":[{"internalType":"uint256","name":"_transactionid","type":"uint256"},{"internalType":"string","name":"_phoneNumber","type":"string"}],"name":"agentAcceptWithdrawalTransaction","outputs":[],"stateMutability":"nonpayable","type":"function"},{"inputs":[{"internalType":"uint256","name":"_transactionid","type":"uint256"}],"name":"agentConfirmPayment","outputs":[],"stateMutability":"nonpayable","type":"function"},{"inputs":[{"internalType":"uint256","name":"_transactionid","type":"uint256"}],"name":"clientConfirmPayment","outputs":[],"stateMutability":"nonpayable","type":"function"},{"inputs":[],"name":"countSuccessfulTransactions","outputs":[{"internalType":"uint256","name":"","type":"uint256"}],"stateMutability":"view","type":"function"},{"inputs":[{"internalType":"uint256","name":"_transactionid","type":"uint256"}],"name":"finalizeTransaction","outputs":[],"stateMutability":"nonpayable","type":"function"},{"inputs":[],"name":"getAgentFee","outputs":[{"internalType":"uint256","name":"","type":"uint256"}],"stateMutability":"view","type":"function"},{"inputs":[{"internalType":"uint256","name":"_paginationCount","type":"uint256"},{"internalType":"uint256","name":"_startingPoint","type":"uint256"},{"internalType":"enum NashEscrow.Status[]","name":"_status","type":"uint8[]"},{"internalType":"address","name":"myAddress","type":"address"}],"name":"getMyTransactions","outputs":[{"components":[{"internalType":"uint256","name":"id","type":"uint256"},{"internalType":"enum NashEscrow.TransactionType","name":"txType","type":"uint8"},{"internalType":"address","name":"clientAddress","type":"address"},{"internalType":"address","name":"agentAddress","type":"address"},{"internalType":"enum NashEscrow.Status","name":"status","type":"uint8"},{"internalType":"uint256","name":"netAmount","type":"uint256"},{"internalType":"uint256","name":"agentFee","type":"uint256"},{"internalType":"uint256","name":"nashFee","type":"uint256"},{"internalType":"uint256","name":"grossAmount","type":"uint256"},{"internalType":"bool","name":"agentApproval","type":"bool"},{"internalType":"bool","name":"clientApproval","type":"bool"},{"internalType":"string","name":"agentPhoneNumber","type":"string"},{"internalType":"string","name":"clientPhoneNumber","type":"string"}],"internalType":"struct NashEscrow.NashTransaction[]","name":"","type":"tuple[]"}],"stateMutability":"view","type":"function"},{"inputs":[],"name":"getNashFee","outputs":[{"internalType":"uint256","name":"","type":"uint256"}],"stateMutability":"view","type":"function"},{"inputs":[],"name":"getNextTransactionIndex","outputs":[{"internalType":"uint256","name":"","type":"uint256"}],"stateMutability":"view","type":"function"},{"inputs":[{"internalType":"uint256","name":"_transactionID","type":"uint256"}],"name":"getNextUnpairedTransaction","outputs":[{"components":[{"internalType":"uint256","name":"id","type":"uint256"},{"internalType":"enum NashEscrow.TransactionType","name":"txType","type":"uint8"},{"internalType":"address","name":"clientAddress","type":"address"},{"internalType":"address","name":"agentAddress","type":"address"},{"internalType":"enum NashEscrow.Status","name":"status","type":"uint8"},{"internalType":"uint256","name":"netAmount","type":"uint256"},{"internalType":"uint256","name":"agentFee","type":"uint256"},{"internalType":"uint256","name":"nashFee","type":"uint256"},{"internalType":"uint256","name":"grossAmount","type":"uint256"},{"internalType":"bool","name":"agentApproval","type":"bool"},{"internalType":"bool","name":"clientApproval","type":"bool"},{"internalType":"string","name":"agentPhoneNumber","type":"string"},{"internalType":"string","name":"clientPhoneNumber","type":"string"}],"internalType":"struct NashEscrow.NashTransaction","name":"","type":"tuple"}],"stateMutability":"view","type":"function"},{"inputs":[{"internalType":"uint256","name":"_transactionID","type":"uint256"}],"name":"getTransactionByIndex","outputs":[{"components":[{"internalType":"uint256","name":"id","type":"uint256"},{"internalType":"enum NashEscrow.TransactionType","name":"txType","type":"uint8"},{"internalType":"address","name":"clientAddress","type":"address"},{"internalType":"address","name":"agentAddress","type":"address"},{"internalType":"enum NashEscrow.Status","name":"status","type":"uint8"},{"internalType":"uint256","name":"netAmount","type":"uint256"},{"internalType":"uint256","name":"agentFee","type":"uint256"},{"internalType":"uint256","name":"nashFee","type":"uint256"},{"internalType":"uint256","name":"grossAmount","type":"uint256"},{"internalType":"bool","name":"agentApproval","type":"bool"},{"internalType":"bool","name":"clientApproval","type":"bool"},{"internalType":"string","name":"agentPhoneNumber","type":"string"},{"internalType":"string","name":"clientPhoneNumber","type":"string"}],"internalType":"struct NashEscrow.NashTransaction","name":"","type":"tuple"}],"stateMutability":"view","type":"function"},{"inputs":[{"internalType":"uint256","name":"_paginationCount","type":"uint256"},{"internalType":"uint256","name":"_startingPoint","type":"uint256"},{"internalType":"enum NashEscrow.Status","name":"_status","type":"uint8"}],"name":"getTransactions","outputs":[{"components":[{"internalType":"uint256","name":"id","type":"uint256"},{"internalType":"enum NashEscrow.TransactionType","name":"txType","type":"uint8"},{"internalType":"address","name":"clientAddress","type":"address"},{"internalType":"address","name":"agentAddress","type":"address"},{"internalType":"enum NashEscrow.Status","name":"status","type":"uint8"},{"internalType":"uint256","name":"netAmount","type":"uint256"},{"internalType":"uint256","name":"agentFee","type":"uint256"},{"internalType":"uint256","name":"nashFee","type":"uint256"},{"internalType":"uint256","name":"grossAmount","type":"uint256"},{"internalType":"bool","name":"agentApproval","type":"bool"},{"internalType":"bool","name":"clientApproval","type":"bool"},{"internalType":"string","name":"agentPhoneNumber","type":"string"},{"internalType":"string","name":"clientPhoneNumber","type":"string"}],"internalType":"struct NashEscrow.NashTransaction[]","name":"","type":"tuple[]"}],"stateMutability":"view","type":"function"},{"inputs":[{"internalType":"uint256","name":"_amount","type":"uint256"},{"internalType":"string","name":"_phoneNumber","type":"string"}],"name":"initializeDepositTransaction","outputs":[],"stateMutability":"nonpayable","type":"function"},{"inputs":[{"internalType":"uint256","name":"_amount","type":"uint256"},{"internalType":"string","name":"_phoneNumber","type":"string"}],"name":"initializeWithdrawalTransaction","outputs":[],"stateMutability":"payable","type":"function"},{"inputs":[{"components":[{"internalType":"uint256","name":"id","type":"uint256"},{"internalType":"enum NashEscrow.TransactionType","name":"txType","type":"uint8"},{"internalType":"address","name":"clientAddress","type":"address"},{"internalType":"address","name":"agentAddress","type":"address"},{"internalType":"enum NashEscrow.Status","name":"status","type":"uint8"},{"internalType":"uint256","name":"netAmount","type":"uint256"},{"internalType":"uint256","name":"agentFee","type":"uint256"},{"internalType":"uint256","name":"nashFee","type":"uint256"},{"internalType":"uint256","name":"grossAmount","type":"uint256"},{"internalType":"bool","name":"agentApproval","type":"bool"},{"internalType":"bool","name":"clientApproval","type":"bool"},{"internalType":"string","name":"agentPhoneNumber","type":"string"},{"internalType":"string","name":"clientPhoneNumber","type":"string"}],"internalType":"struct NashEscrow.NashTransaction","name":"wtx","type":"tuple"},{"internalType":"enum NashEscrow.Status[]","name":"_status","type":"uint8[]"}],"name":"isTxInStatus","outputs":[{"internalType":"bool","name":"","type":"bool"}],"stateMutability":"pure","type":"function"}],"evm":{"bytecode":{"linkReferences":{},"object":"6080604052600060015566b1a2bc2ec50000600255668e1bc9bf040000600355600060045573ff096016a3b65cdda688a8f7237ac94f3efba245600560006101000a81548173ffffffffffffffffffffffffffffffffffffffff021916908373ffffffffffffffffffffffffffffffffffffffff16021790555073874069fa1eb16d44d622f2e0ca25eea172369bc1600660006101000a81548173ffffffffffffffffffffffffffffffffffffffff021916908373ffffffffffffffffffffffffffffffffffffffff160217905550348015620000db57600080fd5b506040516200595f3803806200595f83398181016040528101906200010191906200024b565b600073ffffffffffffffffffffffffffffffffffffffff168473ffffffffffffffffffffffffffffffffffffffff1614620001785783600660006101000a81548173ffffffffffffffffffffffffffffffffffffffff021916908373ffffffffffffffffffffffffffffffffffffffff1602179055505b600073ffffffffffffffffffffffffffffffffffffffff168173ffffffffffffffffffffffffffffffffffffffff1614620001ef5780600560006101000a81548173ffffffffffffffffffffffffffffffffffffffff021916908373ffffffffffffffffffffffffffffffffffffffff1602179055505b60008311156200020157826002819055505b60008211156200021357816003819055505b5050505062000329565b6000815190506200022e81620002f5565b92915050565b60008151905062000245816200030f565b92915050565b600080600080608085870312156200026257600080fd5b600062000272878288016200021d565b9450506020620002858782880162000234565b9350506040620002988782880162000234565b9250506060620002ab878288016200021d565b91505092959194509250565b6000620002c482620002cb565b9050919050565b600073ffffffffffffffffffffffffffffffffffffffff82169050919050565b6000819050919050565b6200030081620002b7565b81146200030c57600080fd5b50565b6200031a81620002eb565b81146200032657600080fd5b50565b61562680620003396000396000f3fe6080604052600436106100f35760003560e01c806391b8f0991161008a578063d677d86d11610059578063d677d86d14610328578063de22287e14610365578063f6b5d65814610381578063fda2789e1461039d576100f3565b806391b8f0991461025a578063954bbb8b14610297578063ba1005d9146102c2578063bcc9b5ad146102ff576100f3565b806350b8a90a116100c657806350b8a90a1461019e5780636a54c620146101c95780636e5f147d146101f2578063869152e71461021d576100f3565b806325322bd2146100f857806330a9de62146101235780633f3bf8d41461014c5780634a57e1c914610175575b600080fd5b34801561010457600080fd5b5061010d6103da565b60405161011a9190614b26565b60405180910390f35b34801561012f57600080fd5b5061014a60048036038101906101459190613f1c565b6103e4565b005b34801561015857600080fd5b50610173600480360381019061016e9190613f1c565b61074a565b005b34801561018157600080fd5b5061019c60048036038101906101979190613eca565b610989565b005b3480156101aa57600080fd5b506101b361109e565b6040516101c09190614b26565b60405180910390f35b3480156101d557600080fd5b506101f060048036038101906101eb9190613eca565b6110a8565b005b3480156101fe57600080fd5b5061020761139e565b6040516102149190614b26565b60405180910390f35b34801561022957600080fd5b50610244600480360381019061023f9190613eca565b6113a8565b6040516102519190614ae2565b60405180910390f35b34801561026657600080fd5b50610281600480360381019061027c9190613eca565b611722565b60405161028e9190614ae2565b60405180910390f35b3480156102a357600080fd5b506102ac611eff565b6040516102b99190614b26565b60405180910390f35b3480156102ce57600080fd5b506102e960048036038101906102e49190613e5e565b611f09565b6040516102f691906148a7565b60405180910390f35b34801561030b57600080fd5b5061032660048036038101906103219190613eca565b611fff565b005b34801561033457600080fd5b5061034f600480360381019061034a9190613fef565b6122f5565b60405161035c9190614885565b60405180910390f35b61037f600480360381019061037a9190613f1c565b612a0f565b005b61039b60048036038101906103969190613f1c565b612d00565b005b3480156103a957600080fd5b506103c460048036038101906103bf9190613f74565b613265565b6040516103d19190614885565b60405180910390f35b6000600154905090565b82600060076000838152602001908152602001600020905060006004811115610436577f4e487b7100000000000000000000000000000000000000000000000000000000600052602160045260246000fd5b8160020160149054906101000a900460ff166004811115610480577f4e487b7100000000000000000000000000000000000000000000000000000000600052602160045260246000fd5b146104c0576040517f08c379a00000000000000000000000000000000000000000000000000000000081526004016104b7906149a2565b60405180910390fd5b846000600760008381526020019081526020016000209050600180811115610511577f4e487b7100000000000000000000000000000000000000000000000000000000600052602160045260246000fd5b8160010160009054906101000a900460ff16600181111561055b577f4e487b7100000000000000000000000000000000000000000000000000000000600052602160045260246000fd5b1461059b576040517f08c379a000000000000000000000000000000000000000000000000000000000815260040161059290614a62565b60405180910390fd5b8660006007600083815260200190815260200160002090508060010160019054906101000a900473ffffffffffffffffffffffffffffffffffffffff1673ffffffffffffffffffffffffffffffffffffffff163373ffffffffffffffffffffffffffffffffffffffff161415610646576040517f08c379a000000000000000000000000000000000000000000000000000000000815260040161063d906148c2565b60405180910390fd5b6000600760008b81526020019081526020016000209050338160020160006101000a81548173ffffffffffffffffffffffffffffffffffffffff021916908373ffffffffffffffffffffffffffffffffffffffff16021790555060018160020160146101000a81548160ff021916908360048111156106ee577f4e487b7100000000000000000000000000000000000000000000000000000000600052602160045260246000fd5b0217905550888882600801919061070692919061394b565b507f59230f91c9ea3a0da6f2991ebf39b1b1efa9e321f42c6622eb3dd622ab849e56816040516107369190614b04565b60405180910390a150505050505050505050565b6000831161078d576040517f08c379a000000000000000000000000000000000000000000000000000000000815260040161078490614a42565b60405180910390fd5b60006001549050600160008154809291906107a790614f59565b919050555060006007600083815260200190815260200160002090506000859050338260010160016101000a81548173ffffffffffffffffffffffffffffffffffffffff021916908373ffffffffffffffffffffffffffffffffffffffff16021790555082826000018190555060008260010160006101000a81548160ff02191690836001811115610862577f4e487b7100000000000000000000000000000000000000000000000000000000600052602160045260246000fd5b02179055506002546003546108779190614c3e565b816108829190614c94565b82600301819055506002548260040181905550600354826005018190555080826006018190555060008260020160146101000a81548160ff021916908360048111156108f7577f4e487b7100000000000000000000000000000000000000000000000000000000600052602160045260246000fd5b0217905550848483600901919061090f92919061394b565b5060008260070160006101000a81548160ff02191690831515021790555060008260070160016101000a81548160ff0219169083151502179055507f8cebfb97f77ce25b9aa133b5f81fd8d5fe9b9a9d196417059095cc13edc72d2a826040516109799190614b04565b60405180910390a1505050505050565b60006007600083815260200190815260200160002090503373ffffffffffffffffffffffffffffffffffffffff168160010160019054906101000a900473ffffffffffffffffffffffffffffffffffffffff1673ffffffffffffffffffffffffffffffffffffffff161480610a4d57503373ffffffffffffffffffffffffffffffffffffffff168160020160009054906101000a900473ffffffffffffffffffffffffffffffffffffffff1673ffffffffffffffffffffffffffffffffffffffff16145b610a8c576040517f08c379a0000000000000000000000000000000000000000000000000000000008152600401610a8390614a82565b60405180910390fd5b60026004811115610ac6577f4e487b7100000000000000000000000000000000000000000000000000000000600052602160045260246000fd5b8160020160149054906101000a900460ff166004811115610b10577f4e487b7100000000000000000000000000000000000000000000000000000000600052602160045260246000fd5b14610b50576040517f08c379a0000000000000000000000000000000000000000000000000000000008152600401610b4790614aa2565b60405180910390fd5b60006001811115610b8a577f4e487b7100000000000000000000000000000000000000000000000000000000600052602160045260246000fd5b8160010160009054906101000a900460ff166001811115610bd4577f4e487b7100000000000000000000000000000000000000000000000000000000600052602160045260246000fd5b1415610cb757600660009054906101000a900473ffffffffffffffffffffffffffffffffffffffff1673ffffffffffffffffffffffffffffffffffffffff1663a9059cbb8260010160019054906101000a900473ffffffffffffffffffffffffffffffffffffffff1683600301546040518363ffffffff1660e01b8152600401610c5f92919061485c565b602060405180830381600087803b158015610c7957600080fd5b505af1158015610c8d573d6000803e3d6000fd5b505050506040513d601f19601f82011682018060405250810190610cb19190613e35565b50610dce565b600660009054906101000a900473ffffffffffffffffffffffffffffffffffffffff1673ffffffffffffffffffffffffffffffffffffffff1663a9059cbb8260020160009054906101000a900473ffffffffffffffffffffffffffffffffffffffff1683600301546040518363ffffffff1660e01b8152600401610d3c92919061485c565b602060405180830381600087803b158015610d5657600080fd5b505af1158015610d6a573d6000803e3d6000fd5b505050506040513d601f19601f82011682018060405250810190610d8e9190613e35565b610dcd576040517f08c379a0000000000000000000000000000000000000000000000000000000008152600401610dc4906148e2565b60405180910390fd5b5b600660009054906101000a900473ffffffffffffffffffffffffffffffffffffffff1673ffffffffffffffffffffffffffffffffffffffff1663a9059cbb8260020160009054906101000a900473ffffffffffffffffffffffffffffffffffffffff1683600401546040518363ffffffff1660e01b8152600401610e5392919061485c565b602060405180830381600087803b158015610e6d57600080fd5b505af1158015610e81573d6000803e3d6000fd5b505050506040513d601f19601f82011682018060405250810190610ea59190613e35565b610ee4576040517f08c379a0000000000000000000000000000000000000000000000000000000008152600401610edb90614902565b60405180910390fd5b600660009054906101000a900473ffffffffffffffffffffffffffffffffffffffff1673ffffffffffffffffffffffffffffffffffffffff1663a9059cbb600560009054906101000a900473ffffffffffffffffffffffffffffffffffffffff1683600501546040518363ffffffff1660e01b8152600401610f6792919061485c565b602060405180830381600087803b158015610f8157600080fd5b505af1158015610f95573d6000803e3d6000fd5b505050506040513d601f19601f82011682018060405250810190610fb99190613e35565b610ff8576040517f08c379a0000000000000000000000000000000000000000000000000000000008152600401610fef90614982565b60405180910390fd5b6004600081548092919061100b90614f59565b919050555060048160020160146101000a81548160ff0219169083600481111561105e577f4e487b7100000000000000000000000000000000000000000000000000000000600052602160045260246000fd5b02179055507f76e068e2026a471baa221d996fa7d776608af6de33cd8fe7f853bf253305c4d9816040516110929190614b04565b60405180910390a15050565b6000600454905090565b806000600760008381526020019081526020016000209050600160048111156110fa577f4e487b7100000000000000000000000000000000000000000000000000000000600052602160045260246000fd5b8160020160149054906101000a900460ff166004811115611144577f4e487b7100000000000000000000000000000000000000000000000000000000600052602160045260246000fd5b14611184576040517f08c379a000000000000000000000000000000000000000000000000000000000815260040161117b90614962565b60405180910390fd5b8260006007600083815260200190815260200160002090508060020160009054906101000a900473ffffffffffffffffffffffffffffffffffffffff1673ffffffffffffffffffffffffffffffffffffffff163373ffffffffffffffffffffffffffffffffffffffff161461122e576040517f08c379a000000000000000000000000000000000000000000000000000000000815260040161122590614a02565b60405180910390fd5b60006007600087815260200190815260200160002090508060070160009054906101000a900460ff1615611297576040517f08c379a000000000000000000000000000000000000000000000000000000000815260040161128e906149c2565b60405180910390fd5b60018160070160006101000a81548160ff0219169083151502179055507fb0b9c6f3b67bc63df3e622865dd30b029df41c8c8e030efb6962841f0b0bdcf6816040516112e39190614b04565b60405180910390a18060070160019054906101000a900460ff16156113965760028160020160146101000a81548160ff02191690836004811115611350577f4e487b7100000000000000000000000000000000000000000000000000000000600052602160045260246000fd5b02179055507f67482e5102dc960d6027c2fd6a0a55dce6c86385e0951603a4315dc2a12d60b2816040516113849190614b04565b60405180910390a161139586610989565b5b505050505050565b6000600254905090565b6113b06139d1565b600060076000848152602001908152602001600020604051806101a0016040529081600082015481526020016001820160009054906101000a900460ff166001811115611426577f4e487b7100000000000000000000000000000000000000000000000000000000600052602160045260246000fd5b600181111561145e577f4e487b7100000000000000000000000000000000000000000000000000000000600052602160045260246000fd5b81526020016001820160019054906101000a900473ffffffffffffffffffffffffffffffffffffffff1673ffffffffffffffffffffffffffffffffffffffff1673ffffffffffffffffffffffffffffffffffffffff1681526020016002820160009054906101000a900473ffffffffffffffffffffffffffffffffffffffff1673ffffffffffffffffffffffffffffffffffffffff1673ffffffffffffffffffffffffffffffffffffffff1681526020016002820160149054906101000a900460ff166004811115611559577f4e487b7100000000000000000000000000000000000000000000000000000000600052602160045260246000fd5b6004811115611591577f4e487b7100000000000000000000000000000000000000000000000000000000600052602160045260246000fd5b8152602001600382015481526020016004820154815260200160058201548152602001600682015481526020016007820160009054906101000a900460ff161515151581526020016007820160019054906101000a900460ff1615151515815260200160088201805461160390614e40565b80601f016020809104026020016040519081016040528092919081815260200182805461162f90614e40565b801561167c5780601f106116515761010080835404028352916020019161167c565b820191906000526020600020905b81548152906001019060200180831161165f57829003601f168201915b5050505050815260200160098201805461169590614e40565b80601f01602080910402602001604051908101604052809291908181526020018280546116c190614e40565b801561170e5780601f106116e35761010080835404028352916020019161170e565b820191906000526020600020905b8154815290600101906020018083116116f157829003601f168201915b505050505081525050905080915050919050565b61172a6139d1565b600082905060006001548411156117415760015491505b60008290505b60008112611b8a57600760008281526020019081526020016000209150600073ffffffffffffffffffffffffffffffffffffffff168260010160019054906101000a900473ffffffffffffffffffffffffffffffffffffffff1673ffffffffffffffffffffffffffffffffffffffff16141580156118155750600073ffffffffffffffffffffffffffffffffffffffff168260020160009054906101000a900473ffffffffffffffffffffffffffffffffffffffff1673ffffffffffffffffffffffffffffffffffffffff16145b15611b775781604051806101a0016040529081600082015481526020016001820160009054906101000a900460ff16600181111561187c577f4e487b7100000000000000000000000000000000000000000000000000000000600052602160045260246000fd5b60018111156118b4577f4e487b7100000000000000000000000000000000000000000000000000000000600052602160045260246000fd5b81526020016001820160019054906101000a900473ffffffffffffffffffffffffffffffffffffffff1673ffffffffffffffffffffffffffffffffffffffff1673ffffffffffffffffffffffffffffffffffffffff1681526020016002820160009054906101000a900473ffffffffffffffffffffffffffffffffffffffff1673ffffffffffffffffffffffffffffffffffffffff1673ffffffffffffffffffffffffffffffffffffffff1681526020016002820160149054906101000a900460ff1660048111156119af577f4e487b7100000000000000000000000000000000000000000000000000000000600052602160045260246000fd5b60048111156119e7577f4e487b7100000000000000000000000000000000000000000000000000000000600052602160045260246000fd5b8152602001600382015481526020016004820154815260200160058201548152602001600682015481526020016007820160009054906101000a900460ff161515151581526020016007820160019054906101000a900460ff16151515158152602001600882018054611a5990614e40565b80601f0160208091040260200160405190810160405280929190818152602001828054611a8590614e40565b8015611ad25780601f10611aa757610100808354040283529160200191611ad2565b820191906000526020600020905b815481529060010190602001808311611ab557829003601f168201915b50505050508152602001600982018054611aeb90614e40565b80601f0160208091040260200160405190810160405280929190818152602001828054611b1790614e40565b8015611b645780601f10611b3957610100808354040283529160200191611b64565b820191906000526020600020905b815481529060010190602001808311611b4757829003601f168201915b5050505050815250509350505050611efa565b8080611b8290614df7565b915050611747565b50600760006001548152602001908152602001600020905080604051806101a0016040529081600082015481526020016001820160009054906101000a900460ff166001811115611c04577f4e487b7100000000000000000000000000000000000000000000000000000000600052602160045260246000fd5b6001811115611c3c577f4e487b7100000000000000000000000000000000000000000000000000000000600052602160045260246000fd5b81526020016001820160019054906101000a900473ffffffffffffffffffffffffffffffffffffffff1673ffffffffffffffffffffffffffffffffffffffff1673ffffffffffffffffffffffffffffffffffffffff1681526020016002820160009054906101000a900473ffffffffffffffffffffffffffffffffffffffff1673ffffffffffffffffffffffffffffffffffffffff1673ffffffffffffffffffffffffffffffffffffffff1681526020016002820160149054906101000a900460ff166004811115611d37577f4e487b7100000000000000000000000000000000000000000000000000000000600052602160045260246000fd5b6004811115611d6f577f4e487b7100000000000000000000000000000000000000000000000000000000600052602160045260246000fd5b8152602001600382015481526020016004820154815260200160058201548152602001600682015481526020016007820160009054906101000a900460ff161515151581526020016007820160019054906101000a900460ff16151515158152602001600882018054611de190614e40565b80601f0160208091040260200160405190810160405280929190818152602001828054611e0d90614e40565b8015611e5a5780601f10611e2f57610100808354040283529160200191611e5a565b820191906000526020600020905b815481529060010190602001808311611e3d57829003601f168201915b50505050508152602001600982018054611e7390614e40565b80601f0160208091040260200160405190810160405280929190818152602001828054611e9f90614e40565b8015611eec5780601f10611ec157610100808354040283529160200191611eec565b820191906000526020600020905b815481529060010190602001808311611ecf57829003601f168201915b505050505081525050925050505b919050565b6000600354905090565b600080600090505b8251811015611ff357828181518110611f53577f4e487b7100000000000000000000000000000000000000000000000000000000600052603260045260246000fd5b60200260200101516004811115611f93577f4e487b7100000000000000000000000000000000000000000000000000000000600052602160045260246000fd5b84608001516004811115611fd0577f4e487b7100000000000000000000000000000000000000000000000000000000600052602160045260246000fd5b1415611fe0576001915050611ff9565b8080611feb90614f59565b915050611f11565b50600090505b92915050565b80600060076000838152602001908152602001600020905060016004811115612051577f4e487b7100000000000000000000000000000000000000000000000000000000600052602160045260246000fd5b8160020160149054906101000a900460ff16600481111561209b577f4e487b7100000000000000000000000000000000000000000000000000000000600052602160045260246000fd5b146120db576040517f08c379a00000000000000000000000000000000000000000000000000000000081526004016120d290614962565b60405180910390fd5b8260006007600083815260200190815260200160002090508060010160019054906101000a900473ffffffffffffffffffffffffffffffffffffffff1673ffffffffffffffffffffffffffffffffffffffff163373ffffffffffffffffffffffffffffffffffffffff1614612185576040517f08c379a000000000000000000000000000000000000000000000000000000000815260040161217c90614942565b60405180910390fd5b60006007600087815260200190815260200160002090508060070160019054906101000a900460ff16156121ee576040517f08c379a00000000000000000000000000000000000000000000000000000000081526004016121e5906149e2565b60405180910390fd5b60018160070160016101000a81548160ff0219169083151502179055507f51f00369f0da368ad2090e8396a3a16c8b717fac5eddecad3bc692cb66481f5d8160405161223a9190614b04565b60405180910390a18060070160009054906101000a900460ff16156122ed5760028160020160146101000a81548160ff021916908360048111156122a7577f4e487b7100000000000000000000000000000000000000000000000000000000600052602160045260246000fd5b02179055507f67482e5102dc960d6027c2fd6a0a55dce6c86385e0951603a4315dc2a12d60b2816040516122db9190614b04565b60405180910390a16122ec86610989565b5b505050505050565b6060600083905060008590506001548211156123115760015491505b6001548611156123215760015490505b600f86111561232f57600f90505b60008167ffffffffffffffff811115612371577f4e487b7100000000000000000000000000000000000000000000000000000000600052604160045260246000fd5b6040519080825280602002602001820160405280156123aa57816020015b6123976139d1565b81526020019060019003908161238f5790505b5090506000805b8381101561289d576123c16139d1565b6000808790505b6000811261287b5760076000828152602001908152602001600020604051806101a0016040529081600082015481526020016001820160009054906101000a900460ff166001811115612444577f4e487b7100000000000000000000000000000000000000000000000000000000600052602160045260246000fd5b600181111561247c577f4e487b7100000000000000000000000000000000000000000000000000000000600052602160045260246000fd5b81526020016001820160019054906101000a900473ffffffffffffffffffffffffffffffffffffffff1673ffffffffffffffffffffffffffffffffffffffff1673ffffffffffffffffffffffffffffffffffffffff1681526020016002820160009054906101000a900473ffffffffffffffffffffffffffffffffffffffff1673ffffffffffffffffffffffffffffffffffffffff1673ffffffffffffffffffffffffffffffffffffffff1681526020016002820160149054906101000a900460ff166004811115612577577f4e487b7100000000000000000000000000000000000000000000000000000000600052602160045260246000fd5b60048111156125af577f4e487b7100000000000000000000000000000000000000000000000000000000600052602160045260246000fd5b8152602001600382015481526020016004820154815260200160058201548152602001600682015481526020016007820160009054906101000a900460ff161515151581526020016007820160019054906101000a900460ff1615151515815260200160088201805461262190614e40565b80601f016020809104026020016040519081016040528092919081815260200182805461264d90614e40565b801561269a5780601f1061266f5761010080835404028352916020019161269a565b820191906000526020600020905b81548152906001019060200180831161267d57829003601f168201915b505050505081526020016009820180546126b390614e40565b80601f01602080910402602001604051908101604052809291908181526020018280546126df90614e40565b801561272c5780601f106127015761010080835404028352916020019161272c565b820191906000526020600020905b81548152906001019060200180831161270f57829003601f168201915b5050505050815250509250896004811115612770577f4e487b7100000000000000000000000000000000000000000000000000000000600052602160045260246000fd5b836080015160048111156127ad577f4e487b7100000000000000000000000000000000000000000000000000000000600052602160045260246000fd5b1480156127eb5750600073ffffffffffffffffffffffffffffffffffffffff16836040015173ffffffffffffffffffffffffffffffffffffffff1614155b15612868578286858151811061282a577f4e487b7100000000000000000000000000000000000000000000000000000000600052603260045260246000fd5b6020026020010181905250600081131561284e5760018161284b9190614c94565b97505b60008114159150848061286090614f59565b95505061287b565b808061287390614df7565b9150506123c8565b508061288857505061289d565b5050808061289590614f59565b9150506123b1565b5060008167ffffffffffffffff8111156128e0577f4e487b7100000000000000000000000000000000000000000000000000000000600052604160045260246000fd5b60405190808252806020026020018201604052801561291957816020015b6129066139d1565b8152602001906001900390816128fe5790505b50905060005b83518110156129ff576000848281518110612963577f4e487b7100000000000000000000000000000000000000000000000000000000600052603260045260246000fd5b60200260200101519050600073ffffffffffffffffffffffffffffffffffffffff16816040015173ffffffffffffffffffffffffffffffffffffffff16146129eb57808383815181106129df577f4e487b7100000000000000000000000000000000000000000000000000000000600052603260045260246000fd5b60200260200101819052505b5080806129f790614f59565b91505061291f565b5080955050505050509392505050565b60008311612a52576040517f08c379a0000000000000000000000000000000000000000000000000000000008152600401612a4990614a42565b60405180910390fd5b6000600154905060016000815480929190612a6c90614f59565b919050555060008490506000600760008481526020019081526020016000209050338160010160016101000a81548173ffffffffffffffffffffffffffffffffffffffff021916908373ffffffffffffffffffffffffffffffffffffffff16021790555082816000018190555060018160010160006101000a81548160ff02191690836001811115612b27577f4e487b7100000000000000000000000000000000000000000000000000000000600052602160045260246000fd5b0217905550600254600354612b3c9190614c3e565b82612b479190614c94565b81600301819055506002548160040181905550600354816005018190555081816006018190555060008160020160146101000a81548160ff02191690836004811115612bbc577f4e487b7100000000000000000000000000000000000000000000000000000000600052602160045260246000fd5b02179055508484826009019190612bd492919061394b565b5060008160070160006101000a81548160ff02191690831515021790555060008160070160016101000a81548160ff021916908315150217905550600660009054906101000a900473ffffffffffffffffffffffffffffffffffffffff1673ffffffffffffffffffffffffffffffffffffffff166323b872dd3330856040518463ffffffff1660e01b8152600401612c6e93929190614825565b602060405180830381600087803b158015612c8857600080fd5b505af1158015612c9c573d6000803e3d6000fd5b505050506040513d601f19601f82011682018060405250810190612cc09190613e35565b507f8cebfb97f77ce25b9aa133b5f81fd8d5fe9b9a9d196417059095cc13edc72d2a81604051612cf09190614b04565b60405180910390a1505050505050565b82600060076000838152602001908152602001600020905060006004811115612d52577f4e487b7100000000000000000000000000000000000000000000000000000000600052602160045260246000fd5b8160020160149054906101000a900460ff166004811115612d9c577f4e487b7100000000000000000000000000000000000000000000000000000000600052602160045260246000fd5b14612ddc576040517f08c379a0000000000000000000000000000000000000000000000000000000008152600401612dd3906149a2565b60405180910390fd5b84600060076000838152602001908152602001600020905060006001811115612e2e577f4e487b7100000000000000000000000000000000000000000000000000000000600052602160045260246000fd5b8160010160009054906101000a900460ff166001811115612e78577f4e487b7100000000000000000000000000000000000000000000000000000000600052602160045260246000fd5b14612eb8576040517f08c379a0000000000000000000000000000000000000000000000000000000008152600401612eaf90614a22565b60405180910390fd5b8660006007600083815260200190815260200160002090508060010160019054906101000a900473ffffffffffffffffffffffffffffffffffffffff1673ffffffffffffffffffffffffffffffffffffffff163373ffffffffffffffffffffffffffffffffffffffff161415612f63576040517f08c379a0000000000000000000000000000000000000000000000000000000008152600401612f5a906148c2565b60405180910390fd5b8860006007600083815260200190815260200160002090508060060154600660009054906101000a900473ffffffffffffffffffffffffffffffffffffffff1673ffffffffffffffffffffffffffffffffffffffff166370a08231336040518263ffffffff1660e01b8152600401612fdb919061480a565b60206040518083038186803b158015612ff357600080fd5b505afa158015613007573d6000803e3d6000fd5b505050506040513d601f19601f8201168201806040525081019061302b9190613ef3565b1161306b576040517f08c379a000000000000000000000000000000000000000000000000000000000815260040161306290614ac2565b60405180910390fd5b6000600760008d81526020019081526020016000209050338160020160006101000a81548173ffffffffffffffffffffffffffffffffffffffff021916908373ffffffffffffffffffffffffffffffffffffffff16021790555060018160020160146101000a81548160ff02191690836004811115613113577f4e487b7100000000000000000000000000000000000000000000000000000000600052602160045260246000fd5b0217905550600660009054906101000a900473ffffffffffffffffffffffffffffffffffffffff1673ffffffffffffffffffffffffffffffffffffffff166323b872dd333084600601546040518463ffffffff1660e01b815260040161317b93929190614825565b602060405180830381600087803b15801561319557600080fd5b505af11580156131a9573d6000803e3d6000fd5b505050506040513d601f19601f820116820180604052508101906131cd9190613e35565b61320c576040517f08c379a000000000000000000000000000000000000000000000000000000000815260040161320390614922565b60405180910390fd5b8a8a82600801919061321f92919061394b565b507f59230f91c9ea3a0da6f2991ebf39b1b1efa9e321f42c6622eb3dd622ab849e568160405161324f9190614b04565b60405180910390a1505050505050505050505050565b6060600084905060008690506001548211156132815760015491505b6001548711156132915760015490505b600f87111561329f57600f90505b60008167ffffffffffffffff8111156132e1577f4e487b7100000000000000000000000000000000000000000000000000000000600052604160045260246000fd5b60405190808252806020026020018201604052801561331a57816020015b6133076139d1565b8152602001906001900390816132ff5790505b5090506000805b838110156137d8576133316139d1565b6000808790505b600081126137b65760076000828152602001908152602001600020604051806101a0016040529081600082015481526020016001820160009054906101000a900460ff1660018111156133b4577f4e487b7100000000000000000000000000000000000000000000000000000000600052602160045260246000fd5b60018111156133ec577f4e487b7100000000000000000000000000000000000000000000000000000000600052602160045260246000fd5b81526020016001820160019054906101000a900473ffffffffffffffffffffffffffffffffffffffff1673ffffffffffffffffffffffffffffffffffffffff1673ffffffffffffffffffffffffffffffffffffffff1681526020016002820160009054906101000a900473ffffffffffffffffffffffffffffffffffffffff1673ffffffffffffffffffffffffffffffffffffffff1673ffffffffffffffffffffffffffffffffffffffff1681526020016002820160149054906101000a900460ff1660048111156134e7577f4e487b7100000000000000000000000000000000000000000000000000000000600052602160045260246000fd5b600481111561351f577f4e487b7100000000000000000000000000000000000000000000000000000000600052602160045260246000fd5b8152602001600382015481526020016004820154815260200160058201548152602001600682015481526020016007820160009054906101000a900460ff161515151581526020016007820160019054906101000a900460ff1615151515815260200160088201805461359190614e40565b80601f01602080910402602001604051908101604052809291908181526020018280546135bd90614e40565b801561360a5780601f106135df5761010080835404028352916020019161360a565b820191906000526020600020905b8154815290600101906020018083116135ed57829003601f168201915b5050505050815260200160098201805461362390614e40565b80601f016020809104026020016040519081016040528092919081815260200182805461364f90614e40565b801561369c5780601f106136715761010080835404028352916020019161369c565b820191906000526020600020905b81548152906001019060200180831161367f57829003601f168201915b50505050508152505092506136b1838c611f09565b801561372657508973ffffffffffffffffffffffffffffffffffffffff16836040015173ffffffffffffffffffffffffffffffffffffffff16148061372557508973ffffffffffffffffffffffffffffffffffffffff16836060015173ffffffffffffffffffffffffffffffffffffffff16145b5b156137a35782868581518110613765577f4e487b7100000000000000000000000000000000000000000000000000000000600052603260045260246000fd5b60200260200101819052506000811315613789576001816137869190614c94565b97505b60008114159150848061379b90614f59565b9550506137b6565b80806137ae90614df7565b915050613338565b50806137c35750506137d8565b505080806137d090614f59565b915050613321565b5060008167ffffffffffffffff81111561381b577f4e487b7100000000000000000000000000000000000000000000000000000000600052604160045260246000fd5b60405190808252806020026020018201604052801561385457816020015b6138416139d1565b8152602001906001900390816138395790505b50905060005b835181101561393a57600084828151811061389e577f4e487b7100000000000000000000000000000000000000000000000000000000600052603260045260246000fd5b60200260200101519050600073ffffffffffffffffffffffffffffffffffffffff16816040015173ffffffffffffffffffffffffffffffffffffffff1614613926578083838151811061391a577f4e487b7100000000000000000000000000000000000000000000000000000000600052603260045260246000fd5b60200260200101819052505b50808061393290614f59565b91505061385a565b508095505050505050949350505050565b82805461395790614e40565b90600052602060002090601f01602090048101928261397957600085556139c0565b82601f1061399257803560ff19168380011785556139c0565b828001600101855582156139c0579182015b828111156139bf5782358255916020019190600101906139a4565b5b5090506139cd9190613ad9565b5090565b604051806101a001604052806000815260200160006001811115613a1e577f4e487b7100000000000000000000000000000000000000000000000000000000600052602160045260246000fd5b8152602001600073ffffffffffffffffffffffffffffffffffffffff168152602001600073ffffffffffffffffffffffffffffffffffffffff16815260200160006004811115613a97577f4e487b7100000000000000000000000000000000000000000000000000000000600052602160045260246000fd5b81526020016000815260200160008152602001600081526020016000815260200160001515815260200160001515815260200160608152602001606081525090565b5b80821115613af2576000816000905550600101613ada565b5090565b6000613b09613b0484614b66565b614b41565b90508083825260208201905082856020860282011115613b2857600080fd5b60005b85811015613b585781613b3e8882613c09565b845260208401935060208301925050600181019050613b2b565b5050509392505050565b6000613b75613b7084614b92565b614b41565b905082815260208101848484011115613b8d57600080fd5b613b98848285614db5565b509392505050565b600081359050613baf8161558b565b92915050565b600082601f830112613bc657600080fd5b8135613bd6848260208601613af6565b91505092915050565b600081359050613bee816155a2565b92915050565b600081519050613c03816155a2565b92915050565b600081359050613c18816155b9565b92915050565b600081359050613c2d816155c9565b92915050565b60008083601f840112613c4557600080fd5b8235905067ffffffffffffffff811115613c5e57600080fd5b602083019150836001820283011115613c7657600080fd5b9250929050565b600082601f830112613c8e57600080fd5b8135613c9e848260208601613b62565b91505092915050565b60006101a08284031215613cba57600080fd5b613cc56101a0614b41565b90506000613cd584828501613e0b565b6000830152506020613ce984828501613c1e565b6020830152506040613cfd84828501613ba0565b6040830152506060613d1184828501613ba0565b6060830152506080613d2584828501613c09565b60808301525060a0613d3984828501613e0b565b60a08301525060c0613d4d84828501613e0b565b60c08301525060e0613d6184828501613e0b565b60e083015250610100613d7684828501613e0b565b61010083015250610120613d8c84828501613bdf565b61012083015250610140613da284828501613bdf565b6101408301525061016082013567ffffffffffffffff811115613dc457600080fd5b613dd084828501613c7d565b6101608301525061018082013567ffffffffffffffff811115613df257600080fd5b613dfe84828501613c7d565b6101808301525092915050565b600081359050613e1a816155d9565b92915050565b600081519050613e2f816155d9565b92915050565b600060208284031215613e4757600080fd5b6000613e5584828501613bf4565b91505092915050565b60008060408385031215613e7157600080fd5b600083013567ffffffffffffffff811115613e8b57600080fd5b613e9785828601613ca7565b925050602083013567ffffffffffffffff811115613eb457600080fd5b613ec085828601613bb5565b9150509250929050565b600060208284031215613edc57600080fd5b6000613eea84828501613e0b565b91505092915050565b600060208284031215613f0557600080fd5b6000613f1384828501613e20565b91505092915050565b600080600060408486031215613f3157600080fd5b6000613f3f86828701613e0b565b935050602084013567ffffffffffffffff811115613f5c57600080fd5b613f6886828701613c33565b92509250509250925092565b60008060008060808587031215613f8a57600080fd5b6000613f9887828801613e0b565b9450506020613fa987828801613e0b565b935050604085013567ffffffffffffffff811115613fc657600080fd5b613fd287828801613bb5565b9250506060613fe387828801613ba0565b91505092959194509250565b60008060006060848603121561400457600080fd5b600061401286828701613e0b565b935050602061402386828701613e0b565b925050604061403486828701613c09565b9150509250925092565b600061404a838361442d565b905092915050565b61405b81614d19565b82525050565b61406a81614d19565b82525050565b600061407b82614be8565b6140858185614c0b565b93508360208202850161409785614bc3565b8060005b858110156140d357848403895281516140b4858261403e565b94506140bf83614bfe565b925060208a0199505060018101905061409b565b50829750879550505050505092915050565b6140ee81614d2b565b82525050565b6140fd81614d2b565b82525050565b61410c81614d91565b82525050565b61411b81614da3565b82525050565b600061412c82614bf3565b6141368185614c1c565b9350614146818560208601614dc4565b61414f8161505e565b840191505092915050565b6000815461416781614e40565b6141718186614c1c565b9450600182166000811461418c576001811461419e576141d1565b60ff19831686526020860193506141d1565b6141a785614bd3565b60005b838110156141c9578154818901526001820191506020810190506141aa565b808801955050505b50505092915050565b60006141e7602b83614c2d565b91506141f282615096565b604082019050919050565b600061420a601383614c2d565b9150614215826150e5565b602082019050919050565b600061422d601a83614c2d565b91506142388261510e565b602082019050919050565b6000614250603283614c2d565b915061425b82615137565b604082019050919050565b6000614273602c83614c2d565b915061427e82615186565b604082019050919050565b6000614296603583614c2d565b91506142a1826151d5565b604082019050919050565b60006142b9602083614c2d565b91506142c482615224565b602082019050919050565b60006142dc602883614c2d565b91506142e78261524d565b604082019050919050565b60006142ff602183614c2d565b915061430a8261529c565b604082019050919050565b6000614322602283614c2d565b915061432d826152eb565b604082019050919050565b6000614345602983614c2d565b91506143508261533a565b604082019050919050565b6000614368603c83614c2d565b915061437382615389565b604082019050919050565b600061438b602983614c2d565b9150614396826153d8565b604082019050919050565b60006143ae603f83614c2d565b91506143b982615427565b604082019050919050565b60006143d1603983614c2d565b91506143dc82615476565b604082019050919050565b60006143f4602f83614c2d565b91506143ff826154c5565b604082019050919050565b6000614417603f83614c2d565b915061442282615514565b604082019050919050565b60006101a08301600083015161444660008601826147ec565b5060208301516144596020860182614112565b50604083015161446c6040860182614052565b50606083015161447f6060860182614052565b5060808301516144926080860182614103565b5060a08301516144a560a08601826147ec565b5060c08301516144b860c08601826147ec565b5060e08301516144cb60e08601826147ec565b506101008301516144e06101008601826147ec565b506101208301516144f56101208601826140e5565b5061014083015161450a6101408601826140e5565b506101608301518482036101608601526145248282614121565b9150506101808301518482036101808601526145408282614121565b9150508091505092915050565b60006101a08301600083015161456660008601826147ec565b5060208301516145796020860182614112565b50604083015161458c6040860182614052565b50606083015161459f6060860182614052565b5060808301516145b26080860182614103565b5060a08301516145c560a08601826147ec565b5060c08301516145d860c08601826147ec565b5060e08301516145eb60e08601826147ec565b506101008301516146006101008601826147ec565b506101208301516146156101208601826140e5565b5061014083015161462a6101408601826140e5565b506101608301518482036101608601526146448282614121565b9150506101808301518482036101808601526146608282614121565b9150508091505092915050565b60006101a08301600080840154905061468581614ec0565b61469260008701826147ec565b50600184015490506146a381614ea6565b6146b06020870182614112565b506146ba81614eda565b6146c76040870182614052565b50600284015490506146d881614e72565b6146e56060870182614052565b506146ef81614f0e565b6146fc6080870182614103565b506003840154905061470d81614ec0565b61471a60a08701826147ec565b506004840154905061472b81614ec0565b61473860c08701826147ec565b506005840154905061474981614ec0565b61475660e08701826147ec565b506006840154905061476781614ec0565b6147756101008701826147ec565b506007840154905061478681614e8c565b6147946101208701826140e5565b5061479e81614ef4565b6147ac6101408701826140e5565b50600884018583036101608701526147c4838261415a565b925050600984018583036101808701526147de838261415a565b925050819250505092915050565b6147f581614d87565b82525050565b61480481614d87565b82525050565b600060208201905061481f6000830184614061565b92915050565b600060608201905061483a6000830186614061565b6148476020830185614061565b61485460408301846147fb565b949350505050565b60006040820190506148716000830185614061565b61487e60208301846147fb565b9392505050565b6000602082019050818103600083015261489f8184614070565b905092915050565b60006020820190506148bc60008301846140f4565b92915050565b600060208201905081810360008301526148db816141da565b9050919050565b600060208201905081810360008301526148fb816141fd565b9050919050565b6000602082019050818103600083015261491b81614220565b9050919050565b6000602082019050818103600083015261493b81614243565b9050919050565b6000602082019050818103600083015261495b81614266565b9050919050565b6000602082019050818103600083015261497b81614289565b9050919050565b6000602082019050818103600083015261499b816142ac565b9050919050565b600060208201905081810360008301526149bb816142cf565b9050919050565b600060208201905081810360008301526149db816142f2565b9050919050565b600060208201905081810360008301526149fb81614315565b9050919050565b60006020820190508181036000830152614a1b81614338565b9050919050565b60006020820190508181036000830152614a3b8161435b565b9050919050565b60006020820190508181036000830152614a5b8161437e565b9050919050565b60006020820190508181036000830152614a7b816143a1565b9050919050565b60006020820190508181036000830152614a9b816143c4565b9050919050565b60006020820190508181036000830152614abb816143e7565b9050919050565b60006020820190508181036000830152614adb8161440a565b9050919050565b60006020820190508181036000830152614afc818461454d565b905092915050565b60006020820190508181036000830152614b1e818461466d565b905092915050565b6000602082019050614b3b60008301846147fb565b92915050565b6000614b4b614b5c565b9050614b578282614f28565b919050565b6000604051905090565b600067ffffffffffffffff821115614b8157614b8061502f565b5b602082029050602081019050919050565b600067ffffffffffffffff821115614bad57614bac61502f565b5b614bb68261505e565b9050602081019050919050565b6000819050602082019050919050565b60008190508160005260206000209050919050565b600081519050919050565b600081519050919050565b6000602082019050919050565b600082825260208201905092915050565b600082825260208201905092915050565b600082825260208201905092915050565b6000614c4982614d87565b9150614c5483614d87565b9250827fffffffffffffffffffffffffffffffffffffffffffffffffffffffffffffffff03821115614c8957614c88614fa2565b5b828201905092915050565b6000614c9f82614d87565b9150614caa83614d87565b925082821015614cbd57614cbc614fa2565b5b828203905092915050565b600073ffffffffffffffffffffffffffffffffffffffff82169050919050565b600060ff82169050919050565b600060ff82169050919050565b600060ff82169050919050565b6000819050919050565b6000614d2482614d67565b9050919050565b60008115159050919050565b6000819050614d4582615563565b919050565b6000819050614d5882615577565b919050565b6000819050919050565b600073ffffffffffffffffffffffffffffffffffffffff82169050919050565b6000819050919050565b6000614d9c82614d37565b9050919050565b6000614dae82614d4a565b9050919050565b82818337600083830152505050565b60005b83811015614de2578082015181840152602081019050614dc7565b83811115614df1576000848401525b50505050565b6000614e0282614d5d565b91507f8000000000000000000000000000000000000000000000000000000000000000821415614e3557614e34614fa2565b5b600182039050919050565b60006002820490506001821680614e5857607f821691505b60208210811415614e6c57614e6b615000565b5b50919050565b6000614e85614e808361506f565b614cc8565b9050919050565b6000614e9f614e9a8361506f565b614ce8565b9050919050565b6000614eb9614eb48361506f565b614d02565b9050919050565b6000614ed3614ece8361506f565b614d0f565b9050919050565b6000614eed614ee883615089565b614cc8565b9050919050565b6000614f07614f0283615089565b614ce8565b9050919050565b6000614f21614f1c8361507c565b614cf5565b9050919050565b614f318261505e565b810181811067ffffffffffffffff82111715614f5057614f4f61502f565b5b80604052505050565b6000614f6482614d87565b91507fffffffffffffffffffffffffffffffffffffffffffffffffffffffffffffffff821415614f9757614f96614fa2565b5b600182019050919050565b7f4e487b7100000000000000000000000000000000000000000000000000000000600052601160045260246000fd5b7f4e487b7100000000000000000000000000000000000000000000000000000000600052602160045260246000fd5b7f4e487b7100000000000000000000000000000000000000000000000000000000600052602260045260246000fd5b7f4e487b7100000000000000000000000000000000000000000000000000000000600052604160045260246000fd5b6000601f19601f8301169050919050565b60008160001c9050919050565b60008160a01c9050919050565b60008160081c9050919050565b7f416374696f6e2063616e206e6f7420626520706572666f726d6564206279207460008201527f686520636c69656e742121000000000000000000000000000000000000000000602082015250565b7f5472616e73616374696f6e206661696c65642e00000000000000000000000000600082015250565b7f4167656e7420666565207472616e73666572206661696c65642e000000000000600082015250565b7f596f7520646f6e2774206861766520656e6f756768206355534420746f20616360008201527f63657074207468697320726571756573742e0000000000000000000000000000602082015250565b7f416374696f6e2063616e206f6e6c7920626520706572666f726d65642062792060008201527f74686520636c69656e7421210000000000000000000000000000000000000000602082015250565b7f5472616e73616374696f6e206973206e6f74206177616974696e6720636f6e6660008201527f69726d6174696f6e2066726f6d20616e796f6e652e0000000000000000000000602082015250565b7f5472616e73616374696f6e20666565207472616e73666572206661696c65642e600082015250565b7f5472616e73616374696f6e20616c72656164792070616972656420746f20616e60008201527f206167656e742121000000000000000000000000000000000000000000000000602082015250565b7f4167656e7420616c726561647920636f6e6669726d6564207061796d656e742160008201527f2100000000000000000000000000000000000000000000000000000000000000602082015250565b7f436c69656e7420616c726561647920636f6e6669726d6564207061796d656e7460008201527f2121000000000000000000000000000000000000000000000000000000000000602082015250565b7f416374696f6e2063616e206f6e6c7920626520706572666f726d65642062792060008201527f746865206167656e740000000000000000000000000000000000000000000000602082015250565b7f416374696f6e2063616e206f6e6c7920626520706572666f726d656420666f7260008201527f206465706f736974207472616e73616374696f6e73206f6e6c79212100000000602082015250565b7f416d6f756e7420746f206465706f736974206d7573742062652067726561746560008201527f72207468616e20302e0000000000000000000000000000000000000000000000602082015250565b7f416374696f6e2063616e206f6e6c7920626520706572666f726d656420666f7260008201527f207769746864726177616c207472616e73616374696f6e73206f6e6c79212100602082015250565b7f4f6e6c792074686520696e766f6c76656420706172746965732063616e20666960008201527f6e616c697a6520746865207472616e73616374696f6e2e212100000000000000602082015250565b7f5472616e73616374696f6e206e6f742079657420636f6e6669726d656420627960008201527f20626f7468207061727469657321210000000000000000000000000000000000602082015250565b7f596f75722062616c616e6365206d75737420626520677265617465722074686160008201527f6e20746865207472616e73616374696f6e2067726f737320616d6f756e742e00602082015250565b6005811061557457615573614fd1565b5b50565b6002811061558857615587614fd1565b5b50565b61559481614d19565b811461559f57600080fd5b50565b6155ab81614d2b565b81146155b657600080fd5b50565b600581106155c657600080fd5b50565b600281106155d657600080fd5b50565b6155e281614d87565b81146155ed57600080fd5b5056fea2646970667358221220cdfdae72a17181ee996387cd3ea666924904123d5f5c22b70076afb17d1a06dc64736f6c63430008040033","opcodes":"PUSH1 0x80 PUSH1 0x40 MSTORE PUSH1 0x0 PUSH1 0x1 SSTORE PUSH7 0xB1A2BC2EC50000 PUSH1 0x2 SSTORE PUSH7 0x8E1BC9BF040000 PUSH1 0x3 SSTORE PUSH1 0x0 PUSH1 0x4 SSTORE PUSH20 0xFF096016A3B65CDDA688A8F7237AC94F3EFBA245 PUSH1 0x5 PUSH1 0x0 PUSH2 0x100 EXP DUP2 SLOAD DUP2 PUSH20 0xFFFFFFFFFFFFFFFFFFFFFFFFFFFFFFFFFFFFFFFF MUL NOT AND SWAP1 DUP4 PUSH20 0xFFFFFFFFFFFFFFFFFFFFFFFFFFFFFFFFFFFFFFFF AND MUL OR SWAP1 SSTORE POP PUSH20 0x874069FA1EB16D44D622F2E0CA25EEA172369BC1 PUSH1 0x6 PUSH1 0x0 PUSH2 0x100 EXP DUP2 SLOAD DUP2 PUSH20 0xFFFFFFFFFFFFFFFFFFFFFFFFFFFFFFFFFFFFFFFF MUL NOT AND SWAP1 DUP4 PUSH20 0xFFFFFFFFFFFFFFFFFFFFFFFFFFFFFFFFFFFFFFFF AND MUL OR SWAP1 SSTORE POP CALLVALUE DUP1 ISZERO PUSH3 0xDB JUMPI PUSH1 0x0 DUP1 REVERT JUMPDEST POP PUSH1 0x40 MLOAD PUSH3 0x595F CODESIZE SUB DUP1 PUSH3 0x595F DUP4 CODECOPY DUP2 DUP2 ADD PUSH1 0x40 MSTORE DUP2 ADD SWAP1 PUSH3 0x101 SWAP2 SWAP1 PUSH3 0x24B JUMP JUMPDEST PUSH1 0x0 PUSH20 0xFFFFFFFFFFFFFFFFFFFFFFFFFFFFFFFFFFFFFFFF AND DUP5 PUSH20 0xFFFFFFFFFFFFFFFFFFFFFFFFFFFFFFFFFFFFFFFF AND EQ PUSH3 0x178 JUMPI DUP4 PUSH1 0x6 PUSH1 0x0 PUSH2 0x100 EXP DUP2 SLOAD DUP2 PUSH20 0xFFFFFFFFFFFFFFFFFFFFFFFFFFFFFFFFFFFFFFFF MUL NOT AND SWAP1 DUP4 PUSH20 0xFFFFFFFFFFFFFFFFFFFFFFFFFFFFFFFFFFFFFFFF AND MUL OR SWAP1 SSTORE POP JUMPDEST PUSH1 0x0 PUSH20 0xFFFFFFFFFFFFFFFFFFFFFFFFFFFFFFFFFFFFFFFF AND DUP2 PUSH20 0xFFFFFFFFFFFFFFFFFFFFFFFFFFFFFFFFFFFFFFFF AND EQ PUSH3 0x1EF JUMPI DUP1 PUSH1 0x5 PUSH1 0x0 PUSH2 0x100 EXP DUP2 SLOAD DUP2 PUSH20 0xFFFFFFFFFFFFFFFFFFFFFFFFFFFFFFFFFFFFFFFF MUL NOT AND SWAP1 DUP4 PUSH20 0xFFFFFFFFFFFFFFFFFFFFFFFFFFFFFFFFFFFFFFFF AND MUL OR SWAP1 SSTORE POP JUMPDEST PUSH1 0x0 DUP4 GT ISZERO PUSH3 0x201 JUMPI DUP3 PUSH1 0x2 DUP2 SWAP1 SSTORE POP JUMPDEST PUSH1 0x0 DUP3 GT ISZERO PUSH3 0x213 JUMPI DUP2 PUSH1 0x3 DUP2 SWAP1 SSTORE POP JUMPDEST POP POP POP POP PUSH3 0x329 JUMP JUMPDEST PUSH1 0x0 DUP2 MLOAD SWAP1 POP PUSH3 0x22E DUP2 PUSH3 0x2F5 JUMP JUMPDEST SWAP3 SWAP2 POP POP JUMP JUMPDEST PUSH1 0x0 DUP2 MLOAD SWAP1 POP PUSH3 0x245 DUP2 PUSH3 0x30F JUMP JUMPDEST SWAP3 SWAP2 POP POP JUMP JUMPDEST PUSH1 0x0 DUP1 PUSH1 0x0 DUP1 PUSH1 0x80 DUP6 DUP8 SUB SLT ISZERO PUSH3 0x262 JUMPI PUSH1 0x0 DUP1 REVERT JUMPDEST PUSH1 0x0 PUSH3 0x272 DUP8 DUP3 DUP9 ADD PUSH3 0x21D JUMP JUMPDEST SWAP5 POP POP PUSH1 0x20 PUSH3 0x285 DUP8 DUP3 DUP9 ADD PUSH3 0x234 JUMP JUMPDEST SWAP4 POP POP PUSH1 0x40 PUSH3 0x298 DUP8 DUP3 DUP9 ADD PUSH3 0x234 JUMP JUMPDEST SWAP3 POP POP PUSH1 0x60 PUSH3 0x2AB DUP8 DUP3 DUP9 ADD PUSH3 0x21D JUMP JUMPDEST SWAP2 POP POP SWAP3 SWAP6 SWAP2 SWAP5 POP SWAP3 POP JUMP JUMPDEST PUSH1 0x0 PUSH3 0x2C4 DUP3 PUSH3 0x2CB JUMP JUMPDEST SWAP1 POP SWAP2 SWAP1 POP JUMP JUMPDEST PUSH1 0x0 PUSH20 0xFFFFFFFFFFFFFFFFFFFFFFFFFFFFFFFFFFFFFFFF DUP3 AND SWAP1 POP SWAP2 SWAP1 POP JUMP JUMPDEST PUSH1 0x0 DUP2 SWAP1 POP SWAP2 SWAP1 POP JUMP JUMPDEST PUSH3 0x300 DUP2 PUSH3 0x2B7 JUMP JUMPDEST DUP2 EQ PUSH3 0x30C JUMPI PUSH1 0x0 DUP1 REVERT JUMPDEST POP JUMP JUMPDEST PUSH3 0x31A DUP2 PUSH3 0x2EB JUMP JUMPDEST DUP2 EQ PUSH3 0x326 JUMPI PUSH1 0x0 DUP1 REVERT JUMPDEST POP JUMP JUMPDEST PUSH2 0x5626 DUP1 PUSH3 0x339 PUSH1 0x0 CODECOPY PUSH1 0x0 RETURN INVALID PUSH1 0x80 PUSH1 0x40 MSTORE PUSH1 0x4 CALLDATASIZE LT PUSH2 0xF3 JUMPI PUSH1 0x0 CALLDATALOAD PUSH1 0xE0 SHR DUP1 PUSH4 0x91B8F099 GT PUSH2 0x8A JUMPI DUP1 PUSH4 0xD677D86D GT PUSH2 0x59 JUMPI DUP1 PUSH4 0xD677D86D EQ PUSH2 0x328 JUMPI DUP1 PUSH4 0xDE22287E EQ PUSH2 0x365 JUMPI DUP1 PUSH4 0xF6B5D658 EQ PUSH2 0x381 JUMPI DUP1 PUSH4 0xFDA2789E EQ PUSH2 0x39D JUMPI PUSH2 0xF3 JUMP JUMPDEST DUP1 PUSH4 0x91B8F099 EQ PUSH2 0x25A JUMPI DUP1 PUSH4 0x954BBB8B EQ PUSH2 0x297 JUMPI DUP1 PUSH4 0xBA1005D9 EQ PUSH2 0x2C2 JUMPI DUP1 PUSH4 0xBCC9B5AD EQ PUSH2 0x2FF JUMPI PUSH2 0xF3 JUMP JUMPDEST DUP1 PUSH4 0x50B8A90A GT PUSH2 0xC6 JUMPI DUP1 PUSH4 0x50B8A90A EQ PUSH2 0x19E JUMPI DUP1 PUSH4 0x6A54C620 EQ PUSH2 0x1C9 JUMPI DUP1 PUSH4 0x6E5F147D EQ PUSH2 0x1F2 JUMPI DUP1 PUSH4 0x869152E7 EQ PUSH2 0x21D JUMPI PUSH2 0xF3 JUMP JUMPDEST DUP1 PUSH4 0x25322BD2 EQ PUSH2 0xF8 JUMPI DUP1 PUSH4 0x30A9DE62 EQ PUSH2 0x123 JUMPI DUP1 PUSH4 0x3F3BF8D4 EQ PUSH2 0x14C JUMPI DUP1 PUSH4 0x4A57E1C9 EQ PUSH2 0x175 JUMPI JUMPDEST PUSH1 0x0 DUP1 REVERT JUMPDEST CALLVALUE DUP1 ISZERO PUSH2 0x104 JUMPI PUSH1 0x0 DUP1 REVERT JUMPDEST POP PUSH2 0x10D PUSH2 0x3DA JUMP JUMPDEST PUSH1 0x40 MLOAD PUSH2 0x11A SWAP2 SWAP1 PUSH2 0x4B26 JUMP JUMPDEST PUSH1 0x40 MLOAD DUP1 SWAP2 SUB SWAP1 RETURN JUMPDEST CALLVALUE DUP1 ISZERO PUSH2 0x12F JUMPI PUSH1 0x0 DUP1 REVERT JUMPDEST POP PUSH2 0x14A PUSH1 0x4 DUP1 CALLDATASIZE SUB DUP2 ADD SWAP1 PUSH2 0x145 SWAP2 SWAP1 PUSH2 0x3F1C JUMP JUMPDEST PUSH2 0x3E4 JUMP JUMPDEST STOP JUMPDEST CALLVALUE DUP1 ISZERO PUSH2 0x158 JUMPI PUSH1 0x0 DUP1 REVERT JUMPDEST POP PUSH2 0x173 PUSH1 0x4 DUP1 CALLDATASIZE SUB DUP2 ADD SWAP1 PUSH2 0x16E SWAP2 SWAP1 PUSH2 0x3F1C JUMP JUMPDEST PUSH2 0x74A JUMP JUMPDEST STOP JUMPDEST CALLVALUE DUP1 ISZERO PUSH2 0x181 JUMPI PUSH1 0x0 DUP1 REVERT JUMPDEST POP PUSH2 0x19C PUSH1 0x4 DUP1 CALLDATASIZE SUB DUP2 ADD SWAP1 PUSH2 0x197 SWAP2 SWAP1 PUSH2 0x3ECA JUMP JUMPDEST PUSH2 0x989 JUMP JUMPDEST STOP JUMPDEST CALLVALUE DUP1 ISZERO PUSH2 0x1AA JUMPI PUSH1 0x0 DUP1 REVERT JUMPDEST POP PUSH2 0x1B3 PUSH2 0x109E JUMP JUMPDEST PUSH1 0x40 MLOAD PUSH2 0x1C0 SWAP2 SWAP1 PUSH2 0x4B26 JUMP JUMPDEST PUSH1 0x40 MLOAD DUP1 SWAP2 SUB SWAP1 RETURN JUMPDEST CALLVALUE DUP1 ISZERO PUSH2 0x1D5 JUMPI PUSH1 0x0 DUP1 REVERT JUMPDEST POP PUSH2 0x1F0 PUSH1 0x4 DUP1 CALLDATASIZE SUB DUP2 ADD SWAP1 PUSH2 0x1EB SWAP2 SWAP1 PUSH2 0x3ECA JUMP JUMPDEST PUSH2 0x10A8 JUMP JUMPDEST STOP JUMPDEST CALLVALUE DUP1 ISZERO PUSH2 0x1FE JUMPI PUSH1 0x0 DUP1 REVERT JUMPDEST POP PUSH2 0x207 PUSH2 0x139E JUMP JUMPDEST PUSH1 0x40 MLOAD PUSH2 0x214 SWAP2 SWAP1 PUSH2 0x4B26 JUMP JUMPDEST PUSH1 0x40 MLOAD DUP1 SWAP2 SUB SWAP1 RETURN JUMPDEST CALLVALUE DUP1 ISZERO PUSH2 0x229 JUMPI PUSH1 0x0 DUP1 REVERT JUMPDEST POP PUSH2 0x244 PUSH1 0x4 DUP1 CALLDATASIZE SUB DUP2 ADD SWAP1 PUSH2 0x23F SWAP2 SWAP1 PUSH2 0x3ECA JUMP JUMPDEST PUSH2 0x13A8 JUMP JUMPDEST PUSH1 0x40 MLOAD PUSH2 0x251 SWAP2 SWAP1 PUSH2 0x4AE2 JUMP JUMPDEST PUSH1 0x40 MLOAD DUP1 SWAP2 SUB SWAP1 RETURN JUMPDEST CALLVALUE DUP1 ISZERO PUSH2 0x266 JUMPI PUSH1 0x0 DUP1 REVERT JUMPDEST POP PUSH2 0x281 PUSH1 0x4 DUP1 CALLDATASIZE SUB DUP2 ADD SWAP1 PUSH2 0x27C SWAP2 SWAP1 PUSH2 0x3ECA JUMP JUMPDEST PUSH2 0x1722 JUMP JUMPDEST PUSH1 0x40 MLOAD PUSH2 0x28E SWAP2 SWAP1 PUSH2 0x4AE2 JUMP JUMPDEST PUSH1 0x40 MLOAD DUP1 SWAP2 SUB SWAP1 RETURN JUMPDEST CALLVALUE DUP1 ISZERO PUSH2 0x2A3 JUMPI PUSH1 0x0 DUP1 REVERT JUMPDEST POP PUSH2 0x2AC PUSH2 0x1EFF JUMP JUMPDEST PUSH1 0x40 MLOAD PUSH2 0x2B9 SWAP2 SWAP1 PUSH2 0x4B26 JUMP JUMPDEST PUSH1 0x40 MLOAD DUP1 SWAP2 SUB SWAP1 RETURN JUMPDEST CALLVALUE DUP1 ISZERO PUSH2 0x2CE JUMPI PUSH1 0x0 DUP1 REVERT JUMPDEST POP PUSH2 0x2E9 PUSH1 0x4 DUP1 CALLDATASIZE SUB DUP2 ADD SWAP1 PUSH2 0x2E4 SWAP2 SWAP1 PUSH2 0x3E5E JUMP JUMPDEST PUSH2 0x1F09 JUMP JUMPDEST PUSH1 0x40 MLOAD PUSH2 0x2F6 SWAP2 SWAP1 PUSH2 0x48A7 JUMP JUMPDEST PUSH1 0x40 MLOAD DUP1 SWAP2 SUB SWAP1 RETURN JUMPDEST CALLVALUE DUP1 ISZERO PUSH2 0x30B JUMPI PUSH1 0x0 DUP1 REVERT JUMPDEST POP PUSH2 0x326 PUSH1 0x4 DUP1 CALLDATASIZE SUB DUP2 ADD SWAP1 PUSH2 0x321 SWAP2 SWAP1 PUSH2 0x3ECA JUMP JUMPDEST PUSH2 0x1FFF JUMP JUMPDEST STOP JUMPDEST CALLVALUE DUP1 ISZERO PUSH2 0x334 JUMPI PUSH1 0x0 DUP1 REVERT JUMPDEST POP PUSH2 0x34F PUSH1 0x4 DUP1 CALLDATASIZE SUB DUP2 ADD SWAP1 PUSH2 0x34A SWAP2 SWAP1 PUSH2 0x3FEF JUMP JUMPDEST PUSH2 0x22F5 JUMP JUMPDEST PUSH1 0x40 MLOAD PUSH2 0x35C SWAP2 SWAP1 PUSH2 0x4885 JUMP JUMPDEST PUSH1 0x40 MLOAD DUP1 SWAP2 SUB SWAP1 RETURN JUMPDEST PUSH2 0x37F PUSH1 0x4 DUP1 CALLDATASIZE SUB DUP2 ADD SWAP1 PUSH2 0x37A SWAP2 SWAP1 PUSH2 0x3F1C JUMP JUMPDEST PUSH2 0x2A0F JUMP JUMPDEST STOP JUMPDEST PUSH2 0x39B PUSH1 0x4 DUP1 CALLDATASIZE SUB DUP2 ADD SWAP1 PUSH2 0x396 SWAP2 SWAP1 PUSH2 0x3F1C JUMP JUMPDEST PUSH2 0x2D00 JUMP JUMPDEST STOP JUMPDEST CALLVALUE DUP1 ISZERO PUSH2 0x3A9 JUMPI PUSH1 0x0 DUP1 REVERT JUMPDEST POP PUSH2 0x3C4 PUSH1 0x4 DUP1 CALLDATASIZE SUB DUP2 ADD SWAP1 PUSH2 0x3BF SWAP2 SWAP1 PUSH2 0x3F74 JUMP JUMPDEST PUSH2 0x3265 JUMP JUMPDEST PUSH1 0x40 MLOAD PUSH2 0x3D1 SWAP2 SWAP1 PUSH2 0x4885 JUMP JUMPDEST PUSH1 0x40 MLOAD DUP1 SWAP2 SUB SWAP1 RETURN JUMPDEST PUSH1 0x0 PUSH1 0x1 SLOAD SWAP1 POP SWAP1 JUMP JUMPDEST DUP3 PUSH1 0x0 PUSH1 0x7 PUSH1 0x0 DUP4 DUP2 MSTORE PUSH1 0x20 ADD SWAP1 DUP2 MSTORE PUSH1 0x20 ADD PUSH1 0x0 KECCAK256 SWAP1 POP PUSH1 0x0 PUSH1 0x4 DUP2 GT ISZERO PUSH2 0x436 JUMPI PUSH32 0x4E487B7100000000000000000000000000000000000000000000000000000000 PUSH1 0x0 MSTORE PUSH1 0x21 PUSH1 0x4 MSTORE PUSH1 0x24 PUSH1 0x0 REVERT JUMPDEST DUP2 PUSH1 0x2 ADD PUSH1 0x14 SWAP1 SLOAD SWAP1 PUSH2 0x100 EXP SWAP1 DIV PUSH1 0xFF AND PUSH1 0x4 DUP2 GT ISZERO PUSH2 0x480 JUMPI PUSH32 0x4E487B7100000000000000000000000000000000000000000000000000000000 PUSH1 0x0 MSTORE PUSH1 0x21 PUSH1 0x4 MSTORE PUSH1 0x24 PUSH1 0x0 REVERT JUMPDEST EQ PUSH2 0x4C0 JUMPI PUSH1 0x40 MLOAD PUSH32 0x8C379A000000000000000000000000000000000000000000000000000000000 DUP2 MSTORE PUSH1 0x4 ADD PUSH2 0x4B7 SWAP1 PUSH2 0x49A2 JUMP JUMPDEST PUSH1 0x40 MLOAD DUP1 SWAP2 SUB SWAP1 REVERT JUMPDEST DUP5 PUSH1 0x0 PUSH1 0x7 PUSH1 0x0 DUP4 DUP2 MSTORE PUSH1 0x20 ADD SWAP1 DUP2 MSTORE PUSH1 0x20 ADD PUSH1 0x0 KECCAK256 SWAP1 POP PUSH1 0x1 DUP1 DUP2 GT ISZERO PUSH2 0x511 JUMPI PUSH32 0x4E487B7100000000000000000000000000000000000000000000000000000000 PUSH1 0x0 MSTORE PUSH1 0x21 PUSH1 0x4 MSTORE PUSH1 0x24 PUSH1 0x0 REVERT JUMPDEST DUP2 PUSH1 0x1 ADD PUSH1 0x0 SWAP1 SLOAD SWAP1 PUSH2 0x100 EXP SWAP1 DIV PUSH1 0xFF AND PUSH1 0x1 DUP2 GT ISZERO PUSH2 0x55B JUMPI PUSH32 0x4E487B7100000000000000000000000000000000000000000000000000000000 PUSH1 0x0 MSTORE PUSH1 0x21 PUSH1 0x4 MSTORE PUSH1 0x24 PUSH1 0x0 REVERT JUMPDEST EQ PUSH2 0x59B JUMPI PUSH1 0x40 MLOAD PUSH32 0x8C379A000000000000000000000000000000000000000000000000000000000 DUP2 MSTORE PUSH1 0x4 ADD PUSH2 0x592 SWAP1 PUSH2 0x4A62 JUMP JUMPDEST PUSH1 0x40 MLOAD DUP1 SWAP2 SUB SWAP1 REVERT JUMPDEST DUP7 PUSH1 0x0 PUSH1 0x7 PUSH1 0x0 DUP4 DUP2 MSTORE PUSH1 0x20 ADD SWAP1 DUP2 MSTORE PUSH1 0x20 ADD PUSH1 0x0 KECCAK256 SWAP1 POP DUP1 PUSH1 0x1 ADD PUSH1 0x1 SWAP1 SLOAD SWAP1 PUSH2 0x100 EXP SWAP1 DIV PUSH20 0xFFFFFFFFFFFFFFFFFFFFFFFFFFFFFFFFFFFFFFFF AND PUSH20 0xFFFFFFFFFFFFFFFFFFFFFFFFFFFFFFFFFFFFFFFF AND CALLER PUSH20 0xFFFFFFFFFFFFFFFFFFFFFFFFFFFFFFFFFFFFFFFF AND EQ ISZERO PUSH2 0x646 JUMPI PUSH1 0x40 MLOAD PUSH32 0x8C379A000000000000000000000000000000000000000000000000000000000 DUP2 MSTORE PUSH1 0x4 ADD PUSH2 0x63D SWAP1 PUSH2 0x48C2 JUMP JUMPDEST PUSH1 0x40 MLOAD DUP1 SWAP2 SUB SWAP1 REVERT JUMPDEST PUSH1 0x0 PUSH1 0x7 PUSH1 0x0 DUP12 DUP2 MSTORE PUSH1 0x20 ADD SWAP1 DUP2 MSTORE PUSH1 0x20 ADD PUSH1 0x0 KECCAK256 SWAP1 POP CALLER DUP2 PUSH1 0x2 ADD PUSH1 0x0 PUSH2 0x100 EXP DUP2 SLOAD DUP2 PUSH20 0xFFFFFFFFFFFFFFFFFFFFFFFFFFFFFFFFFFFFFFFF MUL NOT AND SWAP1 DUP4 PUSH20 0xFFFFFFFFFFFFFFFFFFFFFFFFFFFFFFFFFFFFFFFF AND MUL OR SWAP1 SSTORE POP PUSH1 0x1 DUP2 PUSH1 0x2 ADD PUSH1 0x14 PUSH2 0x100 EXP DUP2 SLOAD DUP2 PUSH1 0xFF MUL NOT AND SWAP1 DUP4 PUSH1 0x4 DUP2 GT ISZERO PUSH2 0x6EE JUMPI PUSH32 0x4E487B7100000000000000000000000000000000000000000000000000000000 PUSH1 0x0 MSTORE PUSH1 0x21 PUSH1 0x4 MSTORE PUSH1 0x24 PUSH1 0x0 REVERT JUMPDEST MUL OR SWAP1 SSTORE POP DUP9 DUP9 DUP3 PUSH1 0x8 ADD SWAP2 SWAP1 PUSH2 0x706 SWAP3 SWAP2 SWAP1 PUSH2 0x394B JUMP JUMPDEST POP PUSH32 0x59230F91C9EA3A0DA6F2991EBF39B1B1EFA9E321F42C6622EB3DD622AB849E56 DUP2 PUSH1 0x40 MLOAD PUSH2 0x736 SWAP2 SWAP1 PUSH2 0x4B04 JUMP JUMPDEST PUSH1 0x40 MLOAD DUP1 SWAP2 SUB SWAP1 LOG1 POP POP POP POP POP POP POP POP POP POP JUMP JUMPDEST PUSH1 0x0 DUP4 GT PUSH2 0x78D JUMPI PUSH1 0x40 MLOAD PUSH32 0x8C379A000000000000000000000000000000000000000000000000000000000 DUP2 MSTORE PUSH1 0x4 ADD PUSH2 0x784 SWAP1 PUSH2 0x4A42 JUMP JUMPDEST PUSH1 0x40 MLOAD DUP1 SWAP2 SUB SWAP1 REVERT JUMPDEST PUSH1 0x0 PUSH1 0x1 SLOAD SWAP1 POP PUSH1 0x1 PUSH1 0x0 DUP2 SLOAD DUP1 SWAP3 SWAP2 SWAP1 PUSH2 0x7A7 SWAP1 PUSH2 0x4F59 JUMP JUMPDEST SWAP2 SWAP1 POP SSTORE POP PUSH1 0x0 PUSH1 0x7 PUSH1 0x0 DUP4 DUP2 MSTORE PUSH1 0x20 ADD SWAP1 DUP2 MSTORE PUSH1 0x20 ADD PUSH1 0x0 KECCAK256 SWAP1 POP PUSH1 0x0 DUP6 SWAP1 POP CALLER DUP3 PUSH1 0x1 ADD PUSH1 0x1 PUSH2 0x100 EXP DUP2 SLOAD DUP2 PUSH20 0xFFFFFFFFFFFFFFFFFFFFFFFFFFFFFFFFFFFFFFFF MUL NOT AND SWAP1 DUP4 PUSH20 0xFFFFFFFFFFFFFFFFFFFFFFFFFFFFFFFFFFFFFFFF AND MUL OR SWAP1 SSTORE POP DUP3 DUP3 PUSH1 0x0 ADD DUP2 SWAP1 SSTORE POP PUSH1 0x0 DUP3 PUSH1 0x1 ADD PUSH1 0x0 PUSH2 0x100 EXP DUP2 SLOAD DUP2 PUSH1 0xFF MUL NOT AND SWAP1 DUP4 PUSH1 0x1 DUP2 GT ISZERO PUSH2 0x862 JUMPI PUSH32 0x4E487B7100000000000000000000000000000000000000000000000000000000 PUSH1 0x0 MSTORE PUSH1 0x21 PUSH1 0x4 MSTORE PUSH1 0x24 PUSH1 0x0 REVERT JUMPDEST MUL OR SWAP1 SSTORE POP PUSH1 0x2 SLOAD PUSH1 0x3 SLOAD PUSH2 0x877 SWAP2 SWAP1 PUSH2 0x4C3E JUMP JUMPDEST DUP2 PUSH2 0x882 SWAP2 SWAP1 PUSH2 0x4C94 JUMP JUMPDEST DUP3 PUSH1 0x3 ADD DUP2 SWAP1 SSTORE POP PUSH1 0x2 SLOAD DUP3 PUSH1 0x4 ADD DUP2 SWAP1 SSTORE POP PUSH1 0x3 SLOAD DUP3 PUSH1 0x5 ADD DUP2 SWAP1 SSTORE POP DUP1 DUP3 PUSH1 0x6 ADD DUP2 SWAP1 SSTORE POP PUSH1 0x0 DUP3 PUSH1 0x2 ADD PUSH1 0x14 PUSH2 0x100 EXP DUP2 SLOAD DUP2 PUSH1 0xFF MUL NOT AND SWAP1 DUP4 PUSH1 0x4 DUP2 GT ISZERO PUSH2 0x8F7 JUMPI PUSH32 0x4E487B7100000000000000000000000000000000000000000000000000000000 PUSH1 0x0 MSTORE PUSH1 0x21 PUSH1 0x4 MSTORE PUSH1 0x24 PUSH1 0x0 REVERT JUMPDEST MUL OR SWAP1 SSTORE POP DUP5 DUP5 DUP4 PUSH1 0x9 ADD SWAP2 SWAP1 PUSH2 0x90F SWAP3 SWAP2 SWAP1 PUSH2 0x394B JUMP JUMPDEST POP PUSH1 0x0 DUP3 PUSH1 0x7 ADD PUSH1 0x0 PUSH2 0x100 EXP DUP2 SLOAD DUP2 PUSH1 0xFF MUL NOT AND SWAP1 DUP4 ISZERO ISZERO MUL OR SWAP1 SSTORE POP PUSH1 0x0 DUP3 PUSH1 0x7 ADD PUSH1 0x1 PUSH2 0x100 EXP DUP2 SLOAD DUP2 PUSH1 0xFF MUL NOT AND SWAP1 DUP4 ISZERO ISZERO MUL OR SWAP1 SSTORE POP PUSH32 0x8CEBFB97F77CE25B9AA133B5F81FD8D5FE9B9A9D196417059095CC13EDC72D2A DUP3 PUSH1 0x40 MLOAD PUSH2 0x979 SWAP2 SWAP1 PUSH2 0x4B04 JUMP JUMPDEST PUSH1 0x40 MLOAD DUP1 SWAP2 SUB SWAP1 LOG1 POP POP POP POP POP POP JUMP JUMPDEST PUSH1 0x0 PUSH1 0x7 PUSH1 0x0 DUP4 DUP2 MSTORE PUSH1 0x20 ADD SWAP1 DUP2 MSTORE PUSH1 0x20 ADD PUSH1 0x0 KECCAK256 SWAP1 POP CALLER PUSH20 0xFFFFFFFFFFFFFFFFFFFFFFFFFFFFFFFFFFFFFFFF AND DUP2 PUSH1 0x1 ADD PUSH1 0x1 SWAP1 SLOAD SWAP1 PUSH2 0x100 EXP SWAP1 DIV PUSH20 0xFFFFFFFFFFFFFFFFFFFFFFFFFFFFFFFFFFFFFFFF AND PUSH20 0xFFFFFFFFFFFFFFFFFFFFFFFFFFFFFFFFFFFFFFFF AND EQ DUP1 PUSH2 0xA4D JUMPI POP CALLER PUSH20 0xFFFFFFFFFFFFFFFFFFFFFFFFFFFFFFFFFFFFFFFF AND DUP2 PUSH1 0x2 ADD PUSH1 0x0 SWAP1 SLOAD SWAP1 PUSH2 0x100 EXP SWAP1 DIV PUSH20 0xFFFFFFFFFFFFFFFFFFFFFFFFFFFFFFFFFFFFFFFF AND PUSH20 0xFFFFFFFFFFFFFFFFFFFFFFFFFFFFFFFFFFFFFFFF AND EQ JUMPDEST PUSH2 0xA8C JUMPI PUSH1 0x40 MLOAD PUSH32 0x8C379A000000000000000000000000000000000000000000000000000000000 DUP2 MSTORE PUSH1 0x4 ADD PUSH2 0xA83 SWAP1 PUSH2 0x4A82 JUMP JUMPDEST PUSH1 0x40 MLOAD DUP1 SWAP2 SUB SWAP1 REVERT JUMPDEST PUSH1 0x2 PUSH1 0x4 DUP2 GT ISZERO PUSH2 0xAC6 JUMPI PUSH32 0x4E487B7100000000000000000000000000000000000000000000000000000000 PUSH1 0x0 MSTORE PUSH1 0x21 PUSH1 0x4 MSTORE PUSH1 0x24 PUSH1 0x0 REVERT JUMPDEST DUP2 PUSH1 0x2 ADD PUSH1 0x14 SWAP1 SLOAD SWAP1 PUSH2 0x100 EXP SWAP1 DIV PUSH1 0xFF AND PUSH1 0x4 DUP2 GT ISZERO PUSH2 0xB10 JUMPI PUSH32 0x4E487B7100000000000000000000000000000000000000000000000000000000 PUSH1 0x0 MSTORE PUSH1 0x21 PUSH1 0x4 MSTORE PUSH1 0x24 PUSH1 0x0 REVERT JUMPDEST EQ PUSH2 0xB50 JUMPI PUSH1 0x40 MLOAD PUSH32 0x8C379A000000000000000000000000000000000000000000000000000000000 DUP2 MSTORE PUSH1 0x4 ADD PUSH2 0xB47 SWAP1 PUSH2 0x4AA2 JUMP JUMPDEST PUSH1 0x40 MLOAD DUP1 SWAP2 SUB SWAP1 REVERT JUMPDEST PUSH1 0x0 PUSH1 0x1 DUP2 GT ISZERO PUSH2 0xB8A JUMPI PUSH32 0x4E487B7100000000000000000000000000000000000000000000000000000000 PUSH1 0x0 MSTORE PUSH1 0x21 PUSH1 0x4 MSTORE PUSH1 0x24 PUSH1 0x0 REVERT JUMPDEST DUP2 PUSH1 0x1 ADD PUSH1 0x0 SWAP1 SLOAD SWAP1 PUSH2 0x100 EXP SWAP1 DIV PUSH1 0xFF AND PUSH1 0x1 DUP2 GT ISZERO PUSH2 0xBD4 JUMPI PUSH32 0x4E487B7100000000000000000000000000000000000000000000000000000000 PUSH1 0x0 MSTORE PUSH1 0x21 PUSH1 0x4 MSTORE PUSH1 0x24 PUSH1 0x0 REVERT JUMPDEST EQ ISZERO PUSH2 0xCB7 JUMPI PUSH1 0x6 PUSH1 0x0 SWAP1 SLOAD SWAP1 PUSH2 0x100 EXP SWAP1 DIV PUSH20 0xFFFFFFFFFFFFFFFFFFFFFFFFFFFFFFFFFFFFFFFF AND PUSH20 0xFFFFFFFFFFFFFFFFFFFFFFFFFFFFFFFFFFFFFFFF AND PUSH4 0xA9059CBB DUP3 PUSH1 0x1 ADD PUSH1 0x1 SWAP1 SLOAD SWAP1 PUSH2 0x100 EXP SWAP1 DIV PUSH20 0xFFFFFFFFFFFFFFFFFFFFFFFFFFFFFFFFFFFFFFFF AND DUP4 PUSH1 0x3 ADD SLOAD PUSH1 0x40 MLOAD DUP4 PUSH4 0xFFFFFFFF AND PUSH1 0xE0 SHL DUP2 MSTORE PUSH1 0x4 ADD PUSH2 0xC5F SWAP3 SWAP2 SWAP1 PUSH2 0x485C JUMP JUMPDEST PUSH1 0x20 PUSH1 0x40 MLOAD DUP1 DUP4 SUB DUP2 PUSH1 0x0 DUP8 DUP1 EXTCODESIZE ISZERO DUP1 ISZERO PUSH2 0xC79 JUMPI PUSH1 0x0 DUP1 REVERT JUMPDEST POP GAS CALL ISZERO DUP1 ISZERO PUSH2 0xC8D JUMPI RETURNDATASIZE PUSH1 0x0 DUP1 RETURNDATACOPY RETURNDATASIZE PUSH1 0x0 REVERT JUMPDEST POP POP POP POP PUSH1 0x40 MLOAD RETURNDATASIZE PUSH1 0x1F NOT PUSH1 0x1F DUP3 ADD AND DUP3 ADD DUP1 PUSH1 0x40 MSTORE POP DUP2 ADD SWAP1 PUSH2 0xCB1 SWAP2 SWAP1 PUSH2 0x3E35 JUMP JUMPDEST POP PUSH2 0xDCE JUMP JUMPDEST PUSH1 0x6 PUSH1 0x0 SWAP1 SLOAD SWAP1 PUSH2 0x100 EXP SWAP1 DIV PUSH20 0xFFFFFFFFFFFFFFFFFFFFFFFFFFFFFFFFFFFFFFFF AND PUSH20 0xFFFFFFFFFFFFFFFFFFFFFFFFFFFFFFFFFFFFFFFF AND PUSH4 0xA9059CBB DUP3 PUSH1 0x2 ADD PUSH1 0x0 SWAP1 SLOAD SWAP1 PUSH2 0x100 EXP SWAP1 DIV PUSH20 0xFFFFFFFFFFFFFFFFFFFFFFFFFFFFFFFFFFFFFFFF AND DUP4 PUSH1 0x3 ADD SLOAD PUSH1 0x40 MLOAD DUP4 PUSH4 0xFFFFFFFF AND PUSH1 0xE0 SHL DUP2 MSTORE PUSH1 0x4 ADD PUSH2 0xD3C SWAP3 SWAP2 SWAP1 PUSH2 0x485C JUMP JUMPDEST PUSH1 0x20 PUSH1 0x40 MLOAD DUP1 DUP4 SUB DUP2 PUSH1 0x0 DUP8 DUP1 EXTCODESIZE ISZERO DUP1 ISZERO PUSH2 0xD56 JUMPI PUSH1 0x0 DUP1 REVERT JUMPDEST POP GAS CALL ISZERO DUP1 ISZERO PUSH2 0xD6A JUMPI RETURNDATASIZE PUSH1 0x0 DUP1 RETURNDATACOPY RETURNDATASIZE PUSH1 0x0 REVERT JUMPDEST POP POP POP POP PUSH1 0x40 MLOAD RETURNDATASIZE PUSH1 0x1F NOT PUSH1 0x1F DUP3 ADD AND DUP3 ADD DUP1 PUSH1 0x40 MSTORE POP DUP2 ADD SWAP1 PUSH2 0xD8E SWAP2 SWAP1 PUSH2 0x3E35 JUMP JUMPDEST PUSH2 0xDCD JUMPI PUSH1 0x40 MLOAD PUSH32 0x8C379A000000000000000000000000000000000000000000000000000000000 DUP2 MSTORE PUSH1 0x4 ADD PUSH2 0xDC4 SWAP1 PUSH2 0x48E2 JUMP JUMPDEST PUSH1 0x40 MLOAD DUP1 SWAP2 SUB SWAP1 REVERT JUMPDEST JUMPDEST PUSH1 0x6 PUSH1 0x0 SWAP1 SLOAD SWAP1 PUSH2 0x100 EXP SWAP1 DIV PUSH20 0xFFFFFFFFFFFFFFFFFFFFFFFFFFFFFFFFFFFFFFFF AND PUSH20 0xFFFFFFFFFFFFFFFFFFFFFFFFFFFFFFFFFFFFFFFF AND PUSH4 0xA9059CBB DUP3 PUSH1 0x2 ADD PUSH1 0x0 SWAP1 SLOAD SWAP1 PUSH2 0x100 EXP SWAP1 DIV PUSH20 0xFFFFFFFFFFFFFFFFFFFFFFFFFFFFFFFFFFFFFFFF AND DUP4 PUSH1 0x4 ADD SLOAD PUSH1 0x40 MLOAD DUP4 PUSH4 0xFFFFFFFF AND PUSH1 0xE0 SHL DUP2 MSTORE PUSH1 0x4 ADD PUSH2 0xE53 SWAP3 SWAP2 SWAP1 PUSH2 0x485C JUMP JUMPDEST PUSH1 0x20 PUSH1 0x40 MLOAD DUP1 DUP4 SUB DUP2 PUSH1 0x0 DUP8 DUP1 EXTCODESIZE ISZERO DUP1 ISZERO PUSH2 0xE6D JUMPI PUSH1 0x0 DUP1 REVERT JUMPDEST POP GAS CALL ISZERO DUP1 ISZERO PUSH2 0xE81 JUMPI RETURNDATASIZE PUSH1 0x0 DUP1 RETURNDATACOPY RETURNDATASIZE PUSH1 0x0 REVERT JUMPDEST POP POP POP POP PUSH1 0x40 MLOAD RETURNDATASIZE PUSH1 0x1F NOT PUSH1 0x1F DUP3 ADD AND DUP3 ADD DUP1 PUSH1 0x40 MSTORE POP DUP2 ADD SWAP1 PUSH2 0xEA5 SWAP2 SWAP1 PUSH2 0x3E35 JUMP JUMPDEST PUSH2 0xEE4 JUMPI PUSH1 0x40 MLOAD PUSH32 0x8C379A000000000000000000000000000000000000000000000000000000000 DUP2 MSTORE PUSH1 0x4 ADD PUSH2 0xEDB SWAP1 PUSH2 0x4902 JUMP JUMPDEST PUSH1 0x40 MLOAD DUP1 SWAP2 SUB SWAP1 REVERT JUMPDEST PUSH1 0x6 PUSH1 0x0 SWAP1 SLOAD SWAP1 PUSH2 0x100 EXP SWAP1 DIV PUSH20 0xFFFFFFFFFFFFFFFFFFFFFFFFFFFFFFFFFFFFFFFF AND PUSH20 0xFFFFFFFFFFFFFFFFFFFFFFFFFFFFFFFFFFFFFFFF AND PUSH4 0xA9059CBB PUSH1 0x5 PUSH1 0x0 SWAP1 SLOAD SWAP1 PUSH2 0x100 EXP SWAP1 DIV PUSH20 0xFFFFFFFFFFFFFFFFFFFFFFFFFFFFFFFFFFFFFFFF AND DUP4 PUSH1 0x5 ADD SLOAD PUSH1 0x40 MLOAD DUP4 PUSH4 0xFFFFFFFF AND PUSH1 0xE0 SHL DUP2 MSTORE PUSH1 0x4 ADD PUSH2 0xF67 SWAP3 SWAP2 SWAP1 PUSH2 0x485C JUMP JUMPDEST PUSH1 0x20 PUSH1 0x40 MLOAD DUP1 DUP4 SUB DUP2 PUSH1 0x0 DUP8 DUP1 EXTCODESIZE ISZERO DUP1 ISZERO PUSH2 0xF81 JUMPI PUSH1 0x0 DUP1 REVERT JUMPDEST POP GAS CALL ISZERO DUP1 ISZERO PUSH2 0xF95 JUMPI RETURNDATASIZE PUSH1 0x0 DUP1 RETURNDATACOPY RETURNDATASIZE PUSH1 0x0 REVERT JUMPDEST POP POP POP POP PUSH1 0x40 MLOAD RETURNDATASIZE PUSH1 0x1F NOT PUSH1 0x1F DUP3 ADD AND DUP3 ADD DUP1 PUSH1 0x40 MSTORE POP DUP2 ADD SWAP1 PUSH2 0xFB9 SWAP2 SWAP1 PUSH2 0x3E35 JUMP JUMPDEST PUSH2 0xFF8 JUMPI PUSH1 0x40 MLOAD PUSH32 0x8C379A000000000000000000000000000000000000000000000000000000000 DUP2 MSTORE PUSH1 0x4 ADD PUSH2 0xFEF SWAP1 PUSH2 0x4982 JUMP JUMPDEST PUSH1 0x40 MLOAD DUP1 SWAP2 SUB SWAP1 REVERT JUMPDEST PUSH1 0x4 PUSH1 0x0 DUP2 SLOAD DUP1 SWAP3 SWAP2 SWAP1 PUSH2 0x100B SWAP1 PUSH2 0x4F59 JUMP JUMPDEST SWAP2 SWAP1 POP SSTORE POP PUSH1 0x4 DUP2 PUSH1 0x2 ADD PUSH1 0x14 PUSH2 0x100 EXP DUP2 SLOAD DUP2 PUSH1 0xFF MUL NOT AND SWAP1 DUP4 PUSH1 0x4 DUP2 GT ISZERO PUSH2 0x105E JUMPI PUSH32 0x4E487B7100000000000000000000000000000000000000000000000000000000 PUSH1 0x0 MSTORE PUSH1 0x21 PUSH1 0x4 MSTORE PUSH1 0x24 PUSH1 0x0 REVERT JUMPDEST MUL OR SWAP1 SSTORE POP PUSH32 0x76E068E2026A471BAA221D996FA7D776608AF6DE33CD8FE7F853BF253305C4D9 DUP2 PUSH1 0x40 MLOAD PUSH2 0x1092 SWAP2 SWAP1 PUSH2 0x4B04 JUMP JUMPDEST PUSH1 0x40 MLOAD DUP1 SWAP2 SUB SWAP1 LOG1 POP POP JUMP JUMPDEST PUSH1 0x0 PUSH1 0x4 SLOAD SWAP1 POP SWAP1 JUMP JUMPDEST DUP1 PUSH1 0x0 PUSH1 0x7 PUSH1 0x0 DUP4 DUP2 MSTORE PUSH1 0x20 ADD SWAP1 DUP2 MSTORE PUSH1 0x20 ADD PUSH1 0x0 KECCAK256 SWAP1 POP PUSH1 0x1 PUSH1 0x4 DUP2 GT ISZERO PUSH2 0x10FA JUMPI PUSH32 0x4E487B7100000000000000000000000000000000000000000000000000000000 PUSH1 0x0 MSTORE PUSH1 0x21 PUSH1 0x4 MSTORE PUSH1 0x24 PUSH1 0x0 REVERT JUMPDEST DUP2 PUSH1 0x2 ADD PUSH1 0x14 SWAP1 SLOAD SWAP1 PUSH2 0x100 EXP SWAP1 DIV PUSH1 0xFF AND PUSH1 0x4 DUP2 GT ISZERO PUSH2 0x1144 JUMPI PUSH32 0x4E487B7100000000000000000000000000000000000000000000000000000000 PUSH1 0x0 MSTORE PUSH1 0x21 PUSH1 0x4 MSTORE PUSH1 0x24 PUSH1 0x0 REVERT JUMPDEST EQ PUSH2 0x1184 JUMPI PUSH1 0x40 MLOAD PUSH32 0x8C379A000000000000000000000000000000000000000000000000000000000 DUP2 MSTORE PUSH1 0x4 ADD PUSH2 0x117B SWAP1 PUSH2 0x4962 JUMP JUMPDEST PUSH1 0x40 MLOAD DUP1 SWAP2 SUB SWAP1 REVERT JUMPDEST DUP3 PUSH1 0x0 PUSH1 0x7 PUSH1 0x0 DUP4 DUP2 MSTORE PUSH1 0x20 ADD SWAP1 DUP2 MSTORE PUSH1 0x20 ADD PUSH1 0x0 KECCAK256 SWAP1 POP DUP1 PUSH1 0x2 ADD PUSH1 0x0 SWAP1 SLOAD SWAP1 PUSH2 0x100 EXP SWAP1 DIV PUSH20 0xFFFFFFFFFFFFFFFFFFFFFFFFFFFFFFFFFFFFFFFF AND PUSH20 0xFFFFFFFFFFFFFFFFFFFFFFFFFFFFFFFFFFFFFFFF AND CALLER PUSH20 0xFFFFFFFFFFFFFFFFFFFFFFFFFFFFFFFFFFFFFFFF AND EQ PUSH2 0x122E JUMPI PUSH1 0x40 MLOAD PUSH32 0x8C379A000000000000000000000000000000000000000000000000000000000 DUP2 MSTORE PUSH1 0x4 ADD PUSH2 0x1225 SWAP1 PUSH2 0x4A02 JUMP JUMPDEST PUSH1 0x40 MLOAD DUP1 SWAP2 SUB SWAP1 REVERT JUMPDEST PUSH1 0x0 PUSH1 0x7 PUSH1 0x0 DUP8 DUP2 MSTORE PUSH1 0x20 ADD SWAP1 DUP2 MSTORE PUSH1 0x20 ADD PUSH1 0x0 KECCAK256 SWAP1 POP DUP1 PUSH1 0x7 ADD PUSH1 0x0 SWAP1 SLOAD SWAP1 PUSH2 0x100 EXP SWAP1 DIV PUSH1 0xFF AND ISZERO PUSH2 0x1297 JUMPI PUSH1 0x40 MLOAD PUSH32 0x8C379A000000000000000000000000000000000000000000000000000000000 DUP2 MSTORE PUSH1 0x4 ADD PUSH2 0x128E SWAP1 PUSH2 0x49C2 JUMP JUMPDEST PUSH1 0x40 MLOAD DUP1 SWAP2 SUB SWAP1 REVERT JUMPDEST PUSH1 0x1 DUP2 PUSH1 0x7 ADD PUSH1 0x0 PUSH2 0x100 EXP DUP2 SLOAD DUP2 PUSH1 0xFF MUL NOT AND SWAP1 DUP4 ISZERO ISZERO MUL OR SWAP1 SSTORE POP PUSH32 0xB0B9C6F3B67BC63DF3E622865DD30B029DF41C8C8E030EFB6962841F0B0BDCF6 DUP2 PUSH1 0x40 MLOAD PUSH2 0x12E3 SWAP2 SWAP1 PUSH2 0x4B04 JUMP JUMPDEST PUSH1 0x40 MLOAD DUP1 SWAP2 SUB SWAP1 LOG1 DUP1 PUSH1 0x7 ADD PUSH1 0x1 SWAP1 SLOAD SWAP1 PUSH2 0x100 EXP SWAP1 DIV PUSH1 0xFF AND ISZERO PUSH2 0x1396 JUMPI PUSH1 0x2 DUP2 PUSH1 0x2 ADD PUSH1 0x14 PUSH2 0x100 EXP DUP2 SLOAD DUP2 PUSH1 0xFF MUL NOT AND SWAP1 DUP4 PUSH1 0x4 DUP2 GT ISZERO PUSH2 0x1350 JUMPI PUSH32 0x4E487B7100000000000000000000000000000000000000000000000000000000 PUSH1 0x0 MSTORE PUSH1 0x21 PUSH1 0x4 MSTORE PUSH1 0x24 PUSH1 0x0 REVERT JUMPDEST MUL OR SWAP1 SSTORE POP PUSH32 0x67482E5102DC960D6027C2FD6A0A55DCE6C86385E0951603A4315DC2A12D60B2 DUP2 PUSH1 0x40 MLOAD PUSH2 0x1384 SWAP2 SWAP1 PUSH2 0x4B04 JUMP JUMPDEST PUSH1 0x40 MLOAD DUP1 SWAP2 SUB SWAP1 LOG1 PUSH2 0x1395 DUP7 PUSH2 0x989 JUMP JUMPDEST JUMPDEST POP POP POP POP POP POP JUMP JUMPDEST PUSH1 0x0 PUSH1 0x2 SLOAD SWAP1 POP SWAP1 JUMP JUMPDEST PUSH2 0x13B0 PUSH2 0x39D1 JUMP JUMPDEST PUSH1 0x0 PUSH1 0x7 PUSH1 0x0 DUP5 DUP2 MSTORE PUSH1 0x20 ADD SWAP1 DUP2 MSTORE PUSH1 0x20 ADD PUSH1 0x0 KECCAK256 PUSH1 0x40 MLOAD DUP1 PUSH2 0x1A0 ADD PUSH1 0x40 MSTORE SWAP1 DUP2 PUSH1 0x0 DUP3 ADD SLOAD DUP2 MSTORE PUSH1 0x20 ADD PUSH1 0x1 DUP3 ADD PUSH1 0x0 SWAP1 SLOAD SWAP1 PUSH2 0x100 EXP SWAP1 DIV PUSH1 0xFF AND PUSH1 0x1 DUP2 GT ISZERO PUSH2 0x1426 JUMPI PUSH32 0x4E487B7100000000000000000000000000000000000000000000000000000000 PUSH1 0x0 MSTORE PUSH1 0x21 PUSH1 0x4 MSTORE PUSH1 0x24 PUSH1 0x0 REVERT JUMPDEST PUSH1 0x1 DUP2 GT ISZERO PUSH2 0x145E JUMPI PUSH32 0x4E487B7100000000000000000000000000000000000000000000000000000000 PUSH1 0x0 MSTORE PUSH1 0x21 PUSH1 0x4 MSTORE PUSH1 0x24 PUSH1 0x0 REVERT JUMPDEST DUP2 MSTORE PUSH1 0x20 ADD PUSH1 0x1 DUP3 ADD PUSH1 0x1 SWAP1 SLOAD SWAP1 PUSH2 0x100 EXP SWAP1 DIV PUSH20 0xFFFFFFFFFFFFFFFFFFFFFFFFFFFFFFFFFFFFFFFF AND PUSH20 0xFFFFFFFFFFFFFFFFFFFFFFFFFFFFFFFFFFFFFFFF AND PUSH20 0xFFFFFFFFFFFFFFFFFFFFFFFFFFFFFFFFFFFFFFFF AND DUP2 MSTORE PUSH1 0x20 ADD PUSH1 0x2 DUP3 ADD PUSH1 0x0 SWAP1 SLOAD SWAP1 PUSH2 0x100 EXP SWAP1 DIV PUSH20 0xFFFFFFFFFFFFFFFFFFFFFFFFFFFFFFFFFFFFFFFF AND PUSH20 0xFFFFFFFFFFFFFFFFFFFFFFFFFFFFFFFFFFFFFFFF AND PUSH20 0xFFFFFFFFFFFFFFFFFFFFFFFFFFFFFFFFFFFFFFFF AND DUP2 MSTORE PUSH1 0x20 ADD PUSH1 0x2 DUP3 ADD PUSH1 0x14 SWAP1 SLOAD SWAP1 PUSH2 0x100 EXP SWAP1 DIV PUSH1 0xFF AND PUSH1 0x4 DUP2 GT ISZERO PUSH2 0x1559 JUMPI PUSH32 0x4E487B7100000000000000000000000000000000000000000000000000000000 PUSH1 0x0 MSTORE PUSH1 0x21 PUSH1 0x4 MSTORE PUSH1 0x24 PUSH1 0x0 REVERT JUMPDEST PUSH1 0x4 DUP2 GT ISZERO PUSH2 0x1591 JUMPI PUSH32 0x4E487B7100000000000000000000000000000000000000000000000000000000 PUSH1 0x0 MSTORE PUSH1 0x21 PUSH1 0x4 MSTORE PUSH1 0x24 PUSH1 0x0 REVERT JUMPDEST DUP2 MSTORE PUSH1 0x20 ADD PUSH1 0x3 DUP3 ADD SLOAD DUP2 MSTORE PUSH1 0x20 ADD PUSH1 0x4 DUP3 ADD SLOAD DUP2 MSTORE PUSH1 0x20 ADD PUSH1 0x5 DUP3 ADD SLOAD DUP2 MSTORE PUSH1 0x20 ADD PUSH1 0x6 DUP3 ADD SLOAD DUP2 MSTORE PUSH1 0x20 ADD PUSH1 0x7 DUP3 ADD PUSH1 0x0 SWAP1 SLOAD SWAP1 PUSH2 0x100 EXP SWAP1 DIV PUSH1 0xFF AND ISZERO ISZERO ISZERO ISZERO DUP2 MSTORE PUSH1 0x20 ADD PUSH1 0x7 DUP3 ADD PUSH1 0x1 SWAP1 SLOAD SWAP1 PUSH2 0x100 EXP SWAP1 DIV PUSH1 0xFF AND ISZERO ISZERO ISZERO ISZERO DUP2 MSTORE PUSH1 0x20 ADD PUSH1 0x8 DUP3 ADD DUP1 SLOAD PUSH2 0x1603 SWAP1 PUSH2 0x4E40 JUMP JUMPDEST DUP1 PUSH1 0x1F ADD PUSH1 0x20 DUP1 SWAP2 DIV MUL PUSH1 0x20 ADD PUSH1 0x40 MLOAD SWAP1 DUP2 ADD PUSH1 0x40 MSTORE DUP1 SWAP3 SWAP2 SWAP1 DUP2 DUP2 MSTORE PUSH1 0x20 ADD DUP3 DUP1 SLOAD PUSH2 0x162F SWAP1 PUSH2 0x4E40 JUMP JUMPDEST DUP1 ISZERO PUSH2 0x167C JUMPI DUP1 PUSH1 0x1F LT PUSH2 0x1651 JUMPI PUSH2 0x100 DUP1 DUP4 SLOAD DIV MUL DUP4 MSTORE SWAP2 PUSH1 0x20 ADD SWAP2 PUSH2 0x167C JUMP JUMPDEST DUP3 ADD SWAP2 SWAP1 PUSH1 0x0 MSTORE PUSH1 0x20 PUSH1 0x0 KECCAK256 SWAP1 JUMPDEST DUP2 SLOAD DUP2 MSTORE SWAP1 PUSH1 0x1 ADD SWAP1 PUSH1 0x20 ADD DUP1 DUP4 GT PUSH2 0x165F JUMPI DUP3 SWAP1 SUB PUSH1 0x1F AND DUP3 ADD SWAP2 JUMPDEST POP POP POP POP POP DUP2 MSTORE PUSH1 0x20 ADD PUSH1 0x9 DUP3 ADD DUP1 SLOAD PUSH2 0x1695 SWAP1 PUSH2 0x4E40 JUMP JUMPDEST DUP1 PUSH1 0x1F ADD PUSH1 0x20 DUP1 SWAP2 DIV MUL PUSH1 0x20 ADD PUSH1 0x40 MLOAD SWAP1 DUP2 ADD PUSH1 0x40 MSTORE DUP1 SWAP3 SWAP2 SWAP1 DUP2 DUP2 MSTORE PUSH1 0x20 ADD DUP3 DUP1 SLOAD PUSH2 0x16C1 SWAP1 PUSH2 0x4E40 JUMP JUMPDEST DUP1 ISZERO PUSH2 0x170E JUMPI DUP1 PUSH1 0x1F LT PUSH2 0x16E3 JUMPI PUSH2 0x100 DUP1 DUP4 SLOAD DIV MUL DUP4 MSTORE SWAP2 PUSH1 0x20 ADD SWAP2 PUSH2 0x170E JUMP JUMPDEST DUP3 ADD SWAP2 SWAP1 PUSH1 0x0 MSTORE PUSH1 0x20 PUSH1 0x0 KECCAK256 SWAP1 JUMPDEST DUP2 SLOAD DUP2 MSTORE SWAP1 PUSH1 0x1 ADD SWAP1 PUSH1 0x20 ADD DUP1 DUP4 GT PUSH2 0x16F1 JUMPI DUP3 SWAP1 SUB PUSH1 0x1F AND DUP3 ADD SWAP2 JUMPDEST POP POP POP POP POP DUP2 MSTORE POP POP SWAP1 POP DUP1 SWAP2 POP POP SWAP2 SWAP1 POP JUMP JUMPDEST PUSH2 0x172A PUSH2 0x39D1 JUMP JUMPDEST PUSH1 0x0 DUP3 SWAP1 POP PUSH1 0x0 PUSH1 0x1 SLOAD DUP5 GT ISZERO PUSH2 0x1741 JUMPI PUSH1 0x1 SLOAD SWAP2 POP JUMPDEST PUSH1 0x0 DUP3 SWAP1 POP JUMPDEST PUSH1 0x0 DUP2 SLT PUSH2 0x1B8A JUMPI PUSH1 0x7 PUSH1 0x0 DUP3 DUP2 MSTORE PUSH1 0x20 ADD SWAP1 DUP2 MSTORE PUSH1 0x20 ADD PUSH1 0x0 KECCAK256 SWAP2 POP PUSH1 0x0 PUSH20 0xFFFFFFFFFFFFFFFFFFFFFFFFFFFFFFFFFFFFFFFF AND DUP3 PUSH1 0x1 ADD PUSH1 0x1 SWAP1 SLOAD SWAP1 PUSH2 0x100 EXP SWAP1 DIV PUSH20 0xFFFFFFFFFFFFFFFFFFFFFFFFFFFFFFFFFFFFFFFF AND PUSH20 0xFFFFFFFFFFFFFFFFFFFFFFFFFFFFFFFFFFFFFFFF AND EQ ISZERO DUP1 ISZERO PUSH2 0x1815 JUMPI POP PUSH1 0x0 PUSH20 0xFFFFFFFFFFFFFFFFFFFFFFFFFFFFFFFFFFFFFFFF AND DUP3 PUSH1 0x2 ADD PUSH1 0x0 SWAP1 SLOAD SWAP1 PUSH2 0x100 EXP SWAP1 DIV PUSH20 0xFFFFFFFFFFFFFFFFFFFFFFFFFFFFFFFFFFFFFFFF AND PUSH20 0xFFFFFFFFFFFFFFFFFFFFFFFFFFFFFFFFFFFFFFFF AND EQ JUMPDEST ISZERO PUSH2 0x1B77 JUMPI DUP2 PUSH1 0x40 MLOAD DUP1 PUSH2 0x1A0 ADD PUSH1 0x40 MSTORE SWAP1 DUP2 PUSH1 0x0 DUP3 ADD SLOAD DUP2 MSTORE PUSH1 0x20 ADD PUSH1 0x1 DUP3 ADD PUSH1 0x0 SWAP1 SLOAD SWAP1 PUSH2 0x100 EXP SWAP1 DIV PUSH1 0xFF AND PUSH1 0x1 DUP2 GT ISZERO PUSH2 0x187C JUMPI PUSH32 0x4E487B7100000000000000000000000000000000000000000000000000000000 PUSH1 0x0 MSTORE PUSH1 0x21 PUSH1 0x4 MSTORE PUSH1 0x24 PUSH1 0x0 REVERT JUMPDEST PUSH1 0x1 DUP2 GT ISZERO PUSH2 0x18B4 JUMPI PUSH32 0x4E487B7100000000000000000000000000000000000000000000000000000000 PUSH1 0x0 MSTORE PUSH1 0x21 PUSH1 0x4 MSTORE PUSH1 0x24 PUSH1 0x0 REVERT JUMPDEST DUP2 MSTORE PUSH1 0x20 ADD PUSH1 0x1 DUP3 ADD PUSH1 0x1 SWAP1 SLOAD SWAP1 PUSH2 0x100 EXP SWAP1 DIV PUSH20 0xFFFFFFFFFFFFFFFFFFFFFFFFFFFFFFFFFFFFFFFF AND PUSH20 0xFFFFFFFFFFFFFFFFFFFFFFFFFFFFFFFFFFFFFFFF AND PUSH20 0xFFFFFFFFFFFFFFFFFFFFFFFFFFFFFFFFFFFFFFFF AND DUP2 MSTORE PUSH1 0x20 ADD PUSH1 0x2 DUP3 ADD PUSH1 0x0 SWAP1 SLOAD SWAP1 PUSH2 0x100 EXP SWAP1 DIV PUSH20 0xFFFFFFFFFFFFFFFFFFFFFFFFFFFFFFFFFFFFFFFF AND PUSH20 0xFFFFFFFFFFFFFFFFFFFFFFFFFFFFFFFFFFFFFFFF AND PUSH20 0xFFFFFFFFFFFFFFFFFFFFFFFFFFFFFFFFFFFFFFFF AND DUP2 MSTORE PUSH1 0x20 ADD PUSH1 0x2 DUP3 ADD PUSH1 0x14 SWAP1 SLOAD SWAP1 PUSH2 0x100 EXP SWAP1 DIV PUSH1 0xFF AND PUSH1 0x4 DUP2 GT ISZERO PUSH2 0x19AF JUMPI PUSH32 0x4E487B7100000000000000000000000000000000000000000000000000000000 PUSH1 0x0 MSTORE PUSH1 0x21 PUSH1 0x4 MSTORE PUSH1 0x24 PUSH1 0x0 REVERT JUMPDEST PUSH1 0x4 DUP2 GT ISZERO PUSH2 0x19E7 JUMPI PUSH32 0x4E487B7100000000000000000000000000000000000000000000000000000000 PUSH1 0x0 MSTORE PUSH1 0x21 PUSH1 0x4 MSTORE PUSH1 0x24 PUSH1 0x0 REVERT JUMPDEST DUP2 MSTORE PUSH1 0x20 ADD PUSH1 0x3 DUP3 ADD SLOAD DUP2 MSTORE PUSH1 0x20 ADD PUSH1 0x4 DUP3 ADD SLOAD DUP2 MSTORE PUSH1 0x20 ADD PUSH1 0x5 DUP3 ADD SLOAD DUP2 MSTORE PUSH1 0x20 ADD PUSH1 0x6 DUP3 ADD SLOAD DUP2 MSTORE PUSH1 0x20 ADD PUSH1 0x7 DUP3 ADD PUSH1 0x0 SWAP1 SLOAD SWAP1 PUSH2 0x100 EXP SWAP1 DIV PUSH1 0xFF AND ISZERO ISZERO ISZERO ISZERO DUP2 MSTORE PUSH1 0x20 ADD PUSH1 0x7 DUP3 ADD PUSH1 0x1 SWAP1 SLOAD SWAP1 PUSH2 0x100 EXP SWAP1 DIV PUSH1 0xFF AND ISZERO ISZERO ISZERO ISZERO DUP2 MSTORE PUSH1 0x20 ADD PUSH1 0x8 DUP3 ADD DUP1 SLOAD PUSH2 0x1A59 SWAP1 PUSH2 0x4E40 JUMP JUMPDEST DUP1 PUSH1 0x1F ADD PUSH1 0x20 DUP1 SWAP2 DIV MUL PUSH1 0x20 ADD PUSH1 0x40 MLOAD SWAP1 DUP2 ADD PUSH1 0x40 MSTORE DUP1 SWAP3 SWAP2 SWAP1 DUP2 DUP2 MSTORE PUSH1 0x20 ADD DUP3 DUP1 SLOAD PUSH2 0x1A85 SWAP1 PUSH2 0x4E40 JUMP JUMPDEST DUP1 ISZERO PUSH2 0x1AD2 JUMPI DUP1 PUSH1 0x1F LT PUSH2 0x1AA7 JUMPI PUSH2 0x100 DUP1 DUP4 SLOAD DIV MUL DUP4 MSTORE SWAP2 PUSH1 0x20 ADD SWAP2 PUSH2 0x1AD2 JUMP JUMPDEST DUP3 ADD SWAP2 SWAP1 PUSH1 0x0 MSTORE PUSH1 0x20 PUSH1 0x0 KECCAK256 SWAP1 JUMPDEST DUP2 SLOAD DUP2 MSTORE SWAP1 PUSH1 0x1 ADD SWAP1 PUSH1 0x20 ADD DUP1 DUP4 GT PUSH2 0x1AB5 JUMPI DUP3 SWAP1 SUB PUSH1 0x1F AND DUP3 ADD SWAP2 JUMPDEST POP POP POP POP POP DUP2 MSTORE PUSH1 0x20 ADD PUSH1 0x9 DUP3 ADD DUP1 SLOAD PUSH2 0x1AEB SWAP1 PUSH2 0x4E40 JUMP JUMPDEST DUP1 PUSH1 0x1F ADD PUSH1 0x20 DUP1 SWAP2 DIV MUL PUSH1 0x20 ADD PUSH1 0x40 MLOAD SWAP1 DUP2 ADD PUSH1 0x40 MSTORE DUP1 SWAP3 SWAP2 SWAP1 DUP2 DUP2 MSTORE PUSH1 0x20 ADD DUP3 DUP1 SLOAD PUSH2 0x1B17 SWAP1 PUSH2 0x4E40 JUMP JUMPDEST DUP1 ISZERO PUSH2 0x1B64 JUMPI DUP1 PUSH1 0x1F LT PUSH2 0x1B39 JUMPI PUSH2 0x100 DUP1 DUP4 SLOAD DIV MUL DUP4 MSTORE SWAP2 PUSH1 0x20 ADD SWAP2 PUSH2 0x1B64 JUMP JUMPDEST DUP3 ADD SWAP2 SWAP1 PUSH1 0x0 MSTORE PUSH1 0x20 PUSH1 0x0 KECCAK256 SWAP1 JUMPDEST DUP2 SLOAD DUP2 MSTORE SWAP1 PUSH1 0x1 ADD SWAP1 PUSH1 0x20 ADD DUP1 DUP4 GT PUSH2 0x1B47 JUMPI DUP3 SWAP1 SUB PUSH1 0x1F AND DUP3 ADD SWAP2 JUMPDEST POP POP POP POP POP DUP2 MSTORE POP POP SWAP4 POP POP POP POP PUSH2 0x1EFA JUMP JUMPDEST DUP1 DUP1 PUSH2 0x1B82 SWAP1 PUSH2 0x4DF7 JUMP JUMPDEST SWAP2 POP POP PUSH2 0x1747 JUMP JUMPDEST POP PUSH1 0x7 PUSH1 0x0 PUSH1 0x1 SLOAD DUP2 MSTORE PUSH1 0x20 ADD SWAP1 DUP2 MSTORE PUSH1 0x20 ADD PUSH1 0x0 KECCAK256 SWAP1 POP DUP1 PUSH1 0x40 MLOAD DUP1 PUSH2 0x1A0 ADD PUSH1 0x40 MSTORE SWAP1 DUP2 PUSH1 0x0 DUP3 ADD SLOAD DUP2 MSTORE PUSH1 0x20 ADD PUSH1 0x1 DUP3 ADD PUSH1 0x0 SWAP1 SLOAD SWAP1 PUSH2 0x100 EXP SWAP1 DIV PUSH1 0xFF AND PUSH1 0x1 DUP2 GT ISZERO PUSH2 0x1C04 JUMPI PUSH32 0x4E487B7100000000000000000000000000000000000000000000000000000000 PUSH1 0x0 MSTORE PUSH1 0x21 PUSH1 0x4 MSTORE PUSH1 0x24 PUSH1 0x0 REVERT JUMPDEST PUSH1 0x1 DUP2 GT ISZERO PUSH2 0x1C3C JUMPI PUSH32 0x4E487B7100000000000000000000000000000000000000000000000000000000 PUSH1 0x0 MSTORE PUSH1 0x21 PUSH1 0x4 MSTORE PUSH1 0x24 PUSH1 0x0 REVERT JUMPDEST DUP2 MSTORE PUSH1 0x20 ADD PUSH1 0x1 DUP3 ADD PUSH1 0x1 SWAP1 SLOAD SWAP1 PUSH2 0x100 EXP SWAP1 DIV PUSH20 0xFFFFFFFFFFFFFFFFFFFFFFFFFFFFFFFFFFFFFFFF AND PUSH20 0xFFFFFFFFFFFFFFFFFFFFFFFFFFFFFFFFFFFFFFFF AND PUSH20 0xFFFFFFFFFFFFFFFFFFFFFFFFFFFFFFFFFFFFFFFF AND DUP2 MSTORE PUSH1 0x20 ADD PUSH1 0x2 DUP3 ADD PUSH1 0x0 SWAP1 SLOAD SWAP1 PUSH2 0x100 EXP SWAP1 DIV PUSH20 0xFFFFFFFFFFFFFFFFFFFFFFFFFFFFFFFFFFFFFFFF AND PUSH20 0xFFFFFFFFFFFFFFFFFFFFFFFFFFFFFFFFFFFFFFFF AND PUSH20 0xFFFFFFFFFFFFFFFFFFFFFFFFFFFFFFFFFFFFFFFF AND DUP2 MSTORE PUSH1 0x20 ADD PUSH1 0x2 DUP3 ADD PUSH1 0x14 SWAP1 SLOAD SWAP1 PUSH2 0x100 EXP SWAP1 DIV PUSH1 0xFF AND PUSH1 0x4 DUP2 GT ISZERO PUSH2 0x1D37 JUMPI PUSH32 0x4E487B7100000000000000000000000000000000000000000000000000000000 PUSH1 0x0 MSTORE PUSH1 0x21 PUSH1 0x4 MSTORE PUSH1 0x24 PUSH1 0x0 REVERT JUMPDEST PUSH1 0x4 DUP2 GT ISZERO PUSH2 0x1D6F JUMPI PUSH32 0x4E487B7100000000000000000000000000000000000000000000000000000000 PUSH1 0x0 MSTORE PUSH1 0x21 PUSH1 0x4 MSTORE PUSH1 0x24 PUSH1 0x0 REVERT JUMPDEST DUP2 MSTORE PUSH1 0x20 ADD PUSH1 0x3 DUP3 ADD SLOAD DUP2 MSTORE PUSH1 0x20 ADD PUSH1 0x4 DUP3 ADD SLOAD DUP2 MSTORE PUSH1 0x20 ADD PUSH1 0x5 DUP3 ADD SLOAD DUP2 MSTORE PUSH1 0x20 ADD PUSH1 0x6 DUP3 ADD SLOAD DUP2 MSTORE PUSH1 0x20 ADD PUSH1 0x7 DUP3 ADD PUSH1 0x0 SWAP1 SLOAD SWAP1 PUSH2 0x100 EXP SWAP1 DIV PUSH1 0xFF AND ISZERO ISZERO ISZERO ISZERO DUP2 MSTORE PUSH1 0x20 ADD PUSH1 0x7 DUP3 ADD PUSH1 0x1 SWAP1 SLOAD SWAP1 PUSH2 0x100 EXP SWAP1 DIV PUSH1 0xFF AND ISZERO ISZERO ISZERO ISZERO DUP2 MSTORE PUSH1 0x20 ADD PUSH1 0x8 DUP3 ADD DUP1 SLOAD PUSH2 0x1DE1 SWAP1 PUSH2 0x4E40 JUMP JUMPDEST DUP1 PUSH1 0x1F ADD PUSH1 0x20 DUP1 SWAP2 DIV MUL PUSH1 0x20 ADD PUSH1 0x40 MLOAD SWAP1 DUP2 ADD PUSH1 0x40 MSTORE DUP1 SWAP3 SWAP2 SWAP1 DUP2 DUP2 MSTORE PUSH1 0x20 ADD DUP3 DUP1 SLOAD PUSH2 0x1E0D SWAP1 PUSH2 0x4E40 JUMP JUMPDEST DUP1 ISZERO PUSH2 0x1E5A JUMPI DUP1 PUSH1 0x1F LT PUSH2 0x1E2F JUMPI PUSH2 0x100 DUP1 DUP4 SLOAD DIV MUL DUP4 MSTORE SWAP2 PUSH1 0x20 ADD SWAP2 PUSH2 0x1E5A JUMP JUMPDEST DUP3 ADD SWAP2 SWAP1 PUSH1 0x0 MSTORE PUSH1 0x20 PUSH1 0x0 KECCAK256 SWAP1 JUMPDEST DUP2 SLOAD DUP2 MSTORE SWAP1 PUSH1 0x1 ADD SWAP1 PUSH1 0x20 ADD DUP1 DUP4 GT PUSH2 0x1E3D JUMPI DUP3 SWAP1 SUB PUSH1 0x1F AND DUP3 ADD SWAP2 JUMPDEST POP POP POP POP POP DUP2 MSTORE PUSH1 0x20 ADD PUSH1 0x9 DUP3 ADD DUP1 SLOAD PUSH2 0x1E73 SWAP1 PUSH2 0x4E40 JUMP JUMPDEST DUP1 PUSH1 0x1F ADD PUSH1 0x20 DUP1 SWAP2 DIV MUL PUSH1 0x20 ADD PUSH1 0x40 MLOAD SWAP1 DUP2 ADD PUSH1 0x40 MSTORE DUP1 SWAP3 SWAP2 SWAP1 DUP2 DUP2 MSTORE PUSH1 0x20 ADD DUP3 DUP1 SLOAD PUSH2 0x1E9F SWAP1 PUSH2 0x4E40 JUMP JUMPDEST DUP1 ISZERO PUSH2 0x1EEC JUMPI DUP1 PUSH1 0x1F LT PUSH2 0x1EC1 JUMPI PUSH2 0x100 DUP1 DUP4 SLOAD DIV MUL DUP4 MSTORE SWAP2 PUSH1 0x20 ADD SWAP2 PUSH2 0x1EEC JUMP JUMPDEST DUP3 ADD SWAP2 SWAP1 PUSH1 0x0 MSTORE PUSH1 0x20 PUSH1 0x0 KECCAK256 SWAP1 JUMPDEST DUP2 SLOAD DUP2 MSTORE SWAP1 PUSH1 0x1 ADD SWAP1 PUSH1 0x20 ADD DUP1 DUP4 GT PUSH2 0x1ECF JUMPI DUP3 SWAP1 SUB PUSH1 0x1F AND DUP3 ADD SWAP2 JUMPDEST POP POP POP POP POP DUP2 MSTORE POP POP SWAP3 POP POP POP JUMPDEST SWAP2 SWAP1 POP JUMP JUMPDEST PUSH1 0x0 PUSH1 0x3 SLOAD SWAP1 POP SWAP1 JUMP JUMPDEST PUSH1 0x0 DUP1 PUSH1 0x0 SWAP1 POP JUMPDEST DUP3 MLOAD DUP2 LT ISZERO PUSH2 0x1FF3 JUMPI DUP3 DUP2 DUP2 MLOAD DUP2 LT PUSH2 0x1F53 JUMPI PUSH32 0x4E487B7100000000000000000000000000000000000000000000000000000000 PUSH1 0x0 MSTORE PUSH1 0x32 PUSH1 0x4 MSTORE PUSH1 0x24 PUSH1 0x0 REVERT JUMPDEST PUSH1 0x20 MUL PUSH1 0x20 ADD ADD MLOAD PUSH1 0x4 DUP2 GT ISZERO PUSH2 0x1F93 JUMPI PUSH32 0x4E487B7100000000000000000000000000000000000000000000000000000000 PUSH1 0x0 MSTORE PUSH1 0x21 PUSH1 0x4 MSTORE PUSH1 0x24 PUSH1 0x0 REVERT JUMPDEST DUP5 PUSH1 0x80 ADD MLOAD PUSH1 0x4 DUP2 GT ISZERO PUSH2 0x1FD0 JUMPI PUSH32 0x4E487B7100000000000000000000000000000000000000000000000000000000 PUSH1 0x0 MSTORE PUSH1 0x21 PUSH1 0x4 MSTORE PUSH1 0x24 PUSH1 0x0 REVERT JUMPDEST EQ ISZERO PUSH2 0x1FE0 JUMPI PUSH1 0x1 SWAP2 POP POP PUSH2 0x1FF9 JUMP JUMPDEST DUP1 DUP1 PUSH2 0x1FEB SWAP1 PUSH2 0x4F59 JUMP JUMPDEST SWAP2 POP POP PUSH2 0x1F11 JUMP JUMPDEST POP PUSH1 0x0 SWAP1 POP JUMPDEST SWAP3 SWAP2 POP POP JUMP JUMPDEST DUP1 PUSH1 0x0 PUSH1 0x7 PUSH1 0x0 DUP4 DUP2 MSTORE PUSH1 0x20 ADD SWAP1 DUP2 MSTORE PUSH1 0x20 ADD PUSH1 0x0 KECCAK256 SWAP1 POP PUSH1 0x1 PUSH1 0x4 DUP2 GT ISZERO PUSH2 0x2051 JUMPI PUSH32 0x4E487B7100000000000000000000000000000000000000000000000000000000 PUSH1 0x0 MSTORE PUSH1 0x21 PUSH1 0x4 MSTORE PUSH1 0x24 PUSH1 0x0 REVERT JUMPDEST DUP2 PUSH1 0x2 ADD PUSH1 0x14 SWAP1 SLOAD SWAP1 PUSH2 0x100 EXP SWAP1 DIV PUSH1 0xFF AND PUSH1 0x4 DUP2 GT ISZERO PUSH2 0x209B JUMPI PUSH32 0x4E487B7100000000000000000000000000000000000000000000000000000000 PUSH1 0x0 MSTORE PUSH1 0x21 PUSH1 0x4 MSTORE PUSH1 0x24 PUSH1 0x0 REVERT JUMPDEST EQ PUSH2 0x20DB JUMPI PUSH1 0x40 MLOAD PUSH32 0x8C379A000000000000000000000000000000000000000000000000000000000 DUP2 MSTORE PUSH1 0x4 ADD PUSH2 0x20D2 SWAP1 PUSH2 0x4962 JUMP JUMPDEST PUSH1 0x40 MLOAD DUP1 SWAP2 SUB SWAP1 REVERT JUMPDEST DUP3 PUSH1 0x0 PUSH1 0x7 PUSH1 0x0 DUP4 DUP2 MSTORE PUSH1 0x20 ADD SWAP1 DUP2 MSTORE PUSH1 0x20 ADD PUSH1 0x0 KECCAK256 SWAP1 POP DUP1 PUSH1 0x1 ADD PUSH1 0x1 SWAP1 SLOAD SWAP1 PUSH2 0x100 EXP SWAP1 DIV PUSH20 0xFFFFFFFFFFFFFFFFFFFFFFFFFFFFFFFFFFFFFFFF AND PUSH20 0xFFFFFFFFFFFFFFFFFFFFFFFFFFFFFFFFFFFFFFFF AND CALLER PUSH20 0xFFFFFFFFFFFFFFFFFFFFFFFFFFFFFFFFFFFFFFFF AND EQ PUSH2 0x2185 JUMPI PUSH1 0x40 MLOAD PUSH32 0x8C379A000000000000000000000000000000000000000000000000000000000 DUP2 MSTORE PUSH1 0x4 ADD PUSH2 0x217C SWAP1 PUSH2 0x4942 JUMP JUMPDEST PUSH1 0x40 MLOAD DUP1 SWAP2 SUB SWAP1 REVERT JUMPDEST PUSH1 0x0 PUSH1 0x7 PUSH1 0x0 DUP8 DUP2 MSTORE PUSH1 0x20 ADD SWAP1 DUP2 MSTORE PUSH1 0x20 ADD PUSH1 0x0 KECCAK256 SWAP1 POP DUP1 PUSH1 0x7 ADD PUSH1 0x1 SWAP1 SLOAD SWAP1 PUSH2 0x100 EXP SWAP1 DIV PUSH1 0xFF AND ISZERO PUSH2 0x21EE JUMPI PUSH1 0x40 MLOAD PUSH32 0x8C379A000000000000000000000000000000000000000000000000000000000 DUP2 MSTORE PUSH1 0x4 ADD PUSH2 0x21E5 SWAP1 PUSH2 0x49E2 JUMP JUMPDEST PUSH1 0x40 MLOAD DUP1 SWAP2 SUB SWAP1 REVERT JUMPDEST PUSH1 0x1 DUP2 PUSH1 0x7 ADD PUSH1 0x1 PUSH2 0x100 EXP DUP2 SLOAD DUP2 PUSH1 0xFF MUL NOT AND SWAP1 DUP4 ISZERO ISZERO MUL OR SWAP1 SSTORE POP PUSH32 0x51F00369F0DA368AD2090E8396A3A16C8B717FAC5EDDECAD3BC692CB66481F5D DUP2 PUSH1 0x40 MLOAD PUSH2 0x223A SWAP2 SWAP1 PUSH2 0x4B04 JUMP JUMPDEST PUSH1 0x40 MLOAD DUP1 SWAP2 SUB SWAP1 LOG1 DUP1 PUSH1 0x7 ADD PUSH1 0x0 SWAP1 SLOAD SWAP1 PUSH2 0x100 EXP SWAP1 DIV PUSH1 0xFF AND ISZERO PUSH2 0x22ED JUMPI PUSH1 0x2 DUP2 PUSH1 0x2 ADD PUSH1 0x14 PUSH2 0x100 EXP DUP2 SLOAD DUP2 PUSH1 0xFF MUL NOT AND SWAP1 DUP4 PUSH1 0x4 DUP2 GT ISZERO PUSH2 0x22A7 JUMPI PUSH32 0x4E487B7100000000000000000000000000000000000000000000000000000000 PUSH1 0x0 MSTORE PUSH1 0x21 PUSH1 0x4 MSTORE PUSH1 0x24 PUSH1 0x0 REVERT JUMPDEST MUL OR SWAP1 SSTORE POP PUSH32 0x67482E5102DC960D6027C2FD6A0A55DCE6C86385E0951603A4315DC2A12D60B2 DUP2 PUSH1 0x40 MLOAD PUSH2 0x22DB SWAP2 SWAP1 PUSH2 0x4B04 JUMP JUMPDEST PUSH1 0x40 MLOAD DUP1 SWAP2 SUB SWAP1 LOG1 PUSH2 0x22EC DUP7 PUSH2 0x989 JUMP JUMPDEST JUMPDEST POP POP POP POP POP POP JUMP JUMPDEST PUSH1 0x60 PUSH1 0x0 DUP4 SWAP1 POP PUSH1 0x0 DUP6 SWAP1 POP PUSH1 0x1 SLOAD DUP3 GT ISZERO PUSH2 0x2311 JUMPI PUSH1 0x1 SLOAD SWAP2 POP JUMPDEST PUSH1 0x1 SLOAD DUP7 GT ISZERO PUSH2 0x2321 JUMPI PUSH1 0x1 SLOAD SWAP1 POP JUMPDEST PUSH1 0xF DUP7 GT ISZERO PUSH2 0x232F JUMPI PUSH1 0xF SWAP1 POP JUMPDEST PUSH1 0x0 DUP2 PUSH8 0xFFFFFFFFFFFFFFFF DUP2 GT ISZERO PUSH2 0x2371 JUMPI PUSH32 0x4E487B7100000000000000000000000000000000000000000000000000000000 PUSH1 0x0 MSTORE PUSH1 0x41 PUSH1 0x4 MSTORE PUSH1 0x24 PUSH1 0x0 REVERT JUMPDEST PUSH1 0x40 MLOAD SWAP1 DUP1 DUP3 MSTORE DUP1 PUSH1 0x20 MUL PUSH1 0x20 ADD DUP3 ADD PUSH1 0x40 MSTORE DUP1 ISZERO PUSH2 0x23AA JUMPI DUP2 PUSH1 0x20 ADD JUMPDEST PUSH2 0x2397 PUSH2 0x39D1 JUMP JUMPDEST DUP2 MSTORE PUSH1 0x20 ADD SWAP1 PUSH1 0x1 SWAP1 SUB SWAP1 DUP2 PUSH2 0x238F JUMPI SWAP1 POP JUMPDEST POP SWAP1 POP PUSH1 0x0 DUP1 JUMPDEST DUP4 DUP2 LT ISZERO PUSH2 0x289D JUMPI PUSH2 0x23C1 PUSH2 0x39D1 JUMP JUMPDEST PUSH1 0x0 DUP1 DUP8 SWAP1 POP JUMPDEST PUSH1 0x0 DUP2 SLT PUSH2 0x287B JUMPI PUSH1 0x7 PUSH1 0x0 DUP3 DUP2 MSTORE PUSH1 0x20 ADD SWAP1 DUP2 MSTORE PUSH1 0x20 ADD PUSH1 0x0 KECCAK256 PUSH1 0x40 MLOAD DUP1 PUSH2 0x1A0 ADD PUSH1 0x40 MSTORE SWAP1 DUP2 PUSH1 0x0 DUP3 ADD SLOAD DUP2 MSTORE PUSH1 0x20 ADD PUSH1 0x1 DUP3 ADD PUSH1 0x0 SWAP1 SLOAD SWAP1 PUSH2 0x100 EXP SWAP1 DIV PUSH1 0xFF AND PUSH1 0x1 DUP2 GT ISZERO PUSH2 0x2444 JUMPI PUSH32 0x4E487B7100000000000000000000000000000000000000000000000000000000 PUSH1 0x0 MSTORE PUSH1 0x21 PUSH1 0x4 MSTORE PUSH1 0x24 PUSH1 0x0 REVERT JUMPDEST PUSH1 0x1 DUP2 GT ISZERO PUSH2 0x247C JUMPI PUSH32 0x4E487B7100000000000000000000000000000000000000000000000000000000 PUSH1 0x0 MSTORE PUSH1 0x21 PUSH1 0x4 MSTORE PUSH1 0x24 PUSH1 0x0 REVERT JUMPDEST DUP2 MSTORE PUSH1 0x20 ADD PUSH1 0x1 DUP3 ADD PUSH1 0x1 SWAP1 SLOAD SWAP1 PUSH2 0x100 EXP SWAP1 DIV PUSH20 0xFFFFFFFFFFFFFFFFFFFFFFFFFFFFFFFFFFFFFFFF AND PUSH20 0xFFFFFFFFFFFFFFFFFFFFFFFFFFFFFFFFFFFFFFFF AND PUSH20 0xFFFFFFFFFFFFFFFFFFFFFFFFFFFFFFFFFFFFFFFF AND DUP2 MSTORE PUSH1 0x20 ADD PUSH1 0x2 DUP3 ADD PUSH1 0x0 SWAP1 SLOAD SWAP1 PUSH2 0x100 EXP SWAP1 DIV PUSH20 0xFFFFFFFFFFFFFFFFFFFFFFFFFFFFFFFFFFFFFFFF AND PUSH20 0xFFFFFFFFFFFFFFFFFFFFFFFFFFFFFFFFFFFFFFFF AND PUSH20 0xFFFFFFFFFFFFFFFFFFFFFFFFFFFFFFFFFFFFFFFF AND DUP2 MSTORE PUSH1 0x20 ADD PUSH1 0x2 DUP3 ADD PUSH1 0x14 SWAP1 SLOAD SWAP1 PUSH2 0x100 EXP SWAP1 DIV PUSH1 0xFF AND PUSH1 0x4 DUP2 GT ISZERO PUSH2 0x2577 JUMPI PUSH32 0x4E487B7100000000000000000000000000000000000000000000000000000000 PUSH1 0x0 MSTORE PUSH1 0x21 PUSH1 0x4 MSTORE PUSH1 0x24 PUSH1 0x0 REVERT JUMPDEST PUSH1 0x4 DUP2 GT ISZERO PUSH2 0x25AF JUMPI PUSH32 0x4E487B7100000000000000000000000000000000000000000000000000000000 PUSH1 0x0 MSTORE PUSH1 0x21 PUSH1 0x4 MSTORE PUSH1 0x24 PUSH1 0x0 REVERT JUMPDEST DUP2 MSTORE PUSH1 0x20 ADD PUSH1 0x3 DUP3 ADD SLOAD DUP2 MSTORE PUSH1 0x20 ADD PUSH1 0x4 DUP3 ADD SLOAD DUP2 MSTORE PUSH1 0x20 ADD PUSH1 0x5 DUP3 ADD SLOAD DUP2 MSTORE PUSH1 0x20 ADD PUSH1 0x6 DUP3 ADD SLOAD DUP2 MSTORE PUSH1 0x20 ADD PUSH1 0x7 DUP3 ADD PUSH1 0x0 SWAP1 SLOAD SWAP1 PUSH2 0x100 EXP SWAP1 DIV PUSH1 0xFF AND ISZERO ISZERO ISZERO ISZERO DUP2 MSTORE PUSH1 0x20 ADD PUSH1 0x7 DUP3 ADD PUSH1 0x1 SWAP1 SLOAD SWAP1 PUSH2 0x100 EXP SWAP1 DIV PUSH1 0xFF AND ISZERO ISZERO ISZERO ISZERO DUP2 MSTORE PUSH1 0x20 ADD PUSH1 0x8 DUP3 ADD DUP1 SLOAD PUSH2 0x2621 SWAP1 PUSH2 0x4E40 JUMP JUMPDEST DUP1 PUSH1 0x1F ADD PUSH1 0x20 DUP1 SWAP2 DIV MUL PUSH1 0x20 ADD PUSH1 0x40 MLOAD SWAP1 DUP2 ADD PUSH1 0x40 MSTORE DUP1 SWAP3 SWAP2 SWAP1 DUP2 DUP2 MSTORE PUSH1 0x20 ADD DUP3 DUP1 SLOAD PUSH2 0x264D SWAP1 PUSH2 0x4E40 JUMP JUMPDEST DUP1 ISZERO PUSH2 0x269A JUMPI DUP1 PUSH1 0x1F LT PUSH2 0x266F JUMPI PUSH2 0x100 DUP1 DUP4 SLOAD DIV MUL DUP4 MSTORE SWAP2 PUSH1 0x20 ADD SWAP2 PUSH2 0x269A JUMP JUMPDEST DUP3 ADD SWAP2 SWAP1 PUSH1 0x0 MSTORE PUSH1 0x20 PUSH1 0x0 KECCAK256 SWAP1 JUMPDEST DUP2 SLOAD DUP2 MSTORE SWAP1 PUSH1 0x1 ADD SWAP1 PUSH1 0x20 ADD DUP1 DUP4 GT PUSH2 0x267D JUMPI DUP3 SWAP1 SUB PUSH1 0x1F AND DUP3 ADD SWAP2 JUMPDEST POP POP POP POP POP DUP2 MSTORE PUSH1 0x20 ADD PUSH1 0x9 DUP3 ADD DUP1 SLOAD PUSH2 0x26B3 SWAP1 PUSH2 0x4E40 JUMP JUMPDEST DUP1 PUSH1 0x1F ADD PUSH1 0x20 DUP1 SWAP2 DIV MUL PUSH1 0x20 ADD PUSH1 0x40 MLOAD SWAP1 DUP2 ADD PUSH1 0x40 MSTORE DUP1 SWAP3 SWAP2 SWAP1 DUP2 DUP2 MSTORE PUSH1 0x20 ADD DUP3 DUP1 SLOAD PUSH2 0x26DF SWAP1 PUSH2 0x4E40 JUMP JUMPDEST DUP1 ISZERO PUSH2 0x272C JUMPI DUP1 PUSH1 0x1F LT PUSH2 0x2701 JUMPI PUSH2 0x100 DUP1 DUP4 SLOAD DIV MUL DUP4 MSTORE SWAP2 PUSH1 0x20 ADD SWAP2 PUSH2 0x272C JUMP JUMPDEST DUP3 ADD SWAP2 SWAP1 PUSH1 0x0 MSTORE PUSH1 0x20 PUSH1 0x0 KECCAK256 SWAP1 JUMPDEST DUP2 SLOAD DUP2 MSTORE SWAP1 PUSH1 0x1 ADD SWAP1 PUSH1 0x20 ADD DUP1 DUP4 GT PUSH2 0x270F JUMPI DUP3 SWAP1 SUB PUSH1 0x1F AND DUP3 ADD SWAP2 JUMPDEST POP POP POP POP POP DUP2 MSTORE POP POP SWAP3 POP DUP10 PUSH1 0x4 DUP2 GT ISZERO PUSH2 0x2770 JUMPI PUSH32 0x4E487B7100000000000000000000000000000000000000000000000000000000 PUSH1 0x0 MSTORE PUSH1 0x21 PUSH1 0x4 MSTORE PUSH1 0x24 PUSH1 0x0 REVERT JUMPDEST DUP4 PUSH1 0x80 ADD MLOAD PUSH1 0x4 DUP2 GT ISZERO PUSH2 0x27AD JUMPI PUSH32 0x4E487B7100000000000000000000000000000000000000000000000000000000 PUSH1 0x0 MSTORE PUSH1 0x21 PUSH1 0x4 MSTORE PUSH1 0x24 PUSH1 0x0 REVERT JUMPDEST EQ DUP1 ISZERO PUSH2 0x27EB JUMPI POP PUSH1 0x0 PUSH20 0xFFFFFFFFFFFFFFFFFFFFFFFFFFFFFFFFFFFFFFFF AND DUP4 PUSH1 0x40 ADD MLOAD PUSH20 0xFFFFFFFFFFFFFFFFFFFFFFFFFFFFFFFFFFFFFFFF AND EQ ISZERO JUMPDEST ISZERO PUSH2 0x2868 JUMPI DUP3 DUP7 DUP6 DUP2 MLOAD DUP2 LT PUSH2 0x282A JUMPI PUSH32 0x4E487B7100000000000000000000000000000000000000000000000000000000 PUSH1 0x0 MSTORE PUSH1 0x32 PUSH1 0x4 MSTORE PUSH1 0x24 PUSH1 0x0 REVERT JUMPDEST PUSH1 0x20 MUL PUSH1 0x20 ADD ADD DUP2 SWAP1 MSTORE POP PUSH1 0x0 DUP2 SGT ISZERO PUSH2 0x284E JUMPI PUSH1 0x1 DUP2 PUSH2 0x284B SWAP2 SWAP1 PUSH2 0x4C94 JUMP JUMPDEST SWAP8 POP JUMPDEST PUSH1 0x0 DUP2 EQ ISZERO SWAP2 POP DUP5 DUP1 PUSH2 0x2860 SWAP1 PUSH2 0x4F59 JUMP JUMPDEST SWAP6 POP POP PUSH2 0x287B JUMP JUMPDEST DUP1 DUP1 PUSH2 0x2873 SWAP1 PUSH2 0x4DF7 JUMP JUMPDEST SWAP2 POP POP PUSH2 0x23C8 JUMP JUMPDEST POP DUP1 PUSH2 0x2888 JUMPI POP POP PUSH2 0x289D JUMP JUMPDEST POP POP DUP1 DUP1 PUSH2 0x2895 SWAP1 PUSH2 0x4F59 JUMP JUMPDEST SWAP2 POP POP PUSH2 0x23B1 JUMP JUMPDEST POP PUSH1 0x0 DUP2 PUSH8 0xFFFFFFFFFFFFFFFF DUP2 GT ISZERO PUSH2 0x28E0 JUMPI PUSH32 0x4E487B7100000000000000000000000000000000000000000000000000000000 PUSH1 0x0 MSTORE PUSH1 0x41 PUSH1 0x4 MSTORE PUSH1 0x24 PUSH1 0x0 REVERT JUMPDEST PUSH1 0x40 MLOAD SWAP1 DUP1 DUP3 MSTORE DUP1 PUSH1 0x20 MUL PUSH1 0x20 ADD DUP3 ADD PUSH1 0x40 MSTORE DUP1 ISZERO PUSH2 0x2919 JUMPI DUP2 PUSH1 0x20 ADD JUMPDEST PUSH2 0x2906 PUSH2 0x39D1 JUMP JUMPDEST DUP2 MSTORE PUSH1 0x20 ADD SWAP1 PUSH1 0x1 SWAP1 SUB SWAP1 DUP2 PUSH2 0x28FE JUMPI SWAP1 POP JUMPDEST POP SWAP1 POP PUSH1 0x0 JUMPDEST DUP4 MLOAD DUP2 LT ISZERO PUSH2 0x29FF JUMPI PUSH1 0x0 DUP5 DUP3 DUP2 MLOAD DUP2 LT PUSH2 0x2963 JUMPI PUSH32 0x4E487B7100000000000000000000000000000000000000000000000000000000 PUSH1 0x0 MSTORE PUSH1 0x32 PUSH1 0x4 MSTORE PUSH1 0x24 PUSH1 0x0 REVERT JUMPDEST PUSH1 0x20 MUL PUSH1 0x20 ADD ADD MLOAD SWAP1 POP PUSH1 0x0 PUSH20 0xFFFFFFFFFFFFFFFFFFFFFFFFFFFFFFFFFFFFFFFF AND DUP2 PUSH1 0x40 ADD MLOAD PUSH20 0xFFFFFFFFFFFFFFFFFFFFFFFFFFFFFFFFFFFFFFFF AND EQ PUSH2 0x29EB JUMPI DUP1 DUP4 DUP4 DUP2 MLOAD DUP2 LT PUSH2 0x29DF JUMPI PUSH32 0x4E487B7100000000000000000000000000000000000000000000000000000000 PUSH1 0x0 MSTORE PUSH1 0x32 PUSH1 0x4 MSTORE PUSH1 0x24 PUSH1 0x0 REVERT JUMPDEST PUSH1 0x20 MUL PUSH1 0x20 ADD ADD DUP2 SWAP1 MSTORE POP JUMPDEST POP DUP1 DUP1 PUSH2 0x29F7 SWAP1 PUSH2 0x4F59 JUMP JUMPDEST SWAP2 POP POP PUSH2 0x291F JUMP JUMPDEST POP DUP1 SWAP6 POP POP POP POP POP POP SWAP4 SWAP3 POP POP POP JUMP JUMPDEST PUSH1 0x0 DUP4 GT PUSH2 0x2A52 JUMPI PUSH1 0x40 MLOAD PUSH32 0x8C379A000000000000000000000000000000000000000000000000000000000 DUP2 MSTORE PUSH1 0x4 ADD PUSH2 0x2A49 SWAP1 PUSH2 0x4A42 JUMP JUMPDEST PUSH1 0x40 MLOAD DUP1 SWAP2 SUB SWAP1 REVERT JUMPDEST PUSH1 0x0 PUSH1 0x1 SLOAD SWAP1 POP PUSH1 0x1 PUSH1 0x0 DUP2 SLOAD DUP1 SWAP3 SWAP2 SWAP1 PUSH2 0x2A6C SWAP1 PUSH2 0x4F59 JUMP JUMPDEST SWAP2 SWAP1 POP SSTORE POP PUSH1 0x0 DUP5 SWAP1 POP PUSH1 0x0 PUSH1 0x7 PUSH1 0x0 DUP5 DUP2 MSTORE PUSH1 0x20 ADD SWAP1 DUP2 MSTORE PUSH1 0x20 ADD PUSH1 0x0 KECCAK256 SWAP1 POP CALLER DUP2 PUSH1 0x1 ADD PUSH1 0x1 PUSH2 0x100 EXP DUP2 SLOAD DUP2 PUSH20 0xFFFFFFFFFFFFFFFFFFFFFFFFFFFFFFFFFFFFFFFF MUL NOT AND SWAP1 DUP4 PUSH20 0xFFFFFFFFFFFFFFFFFFFFFFFFFFFFFFFFFFFFFFFF AND MUL OR SWAP1 SSTORE POP DUP3 DUP2 PUSH1 0x0 ADD DUP2 SWAP1 SSTORE POP PUSH1 0x1 DUP2 PUSH1 0x1 ADD PUSH1 0x0 PUSH2 0x100 EXP DUP2 SLOAD DUP2 PUSH1 0xFF MUL NOT AND SWAP1 DUP4 PUSH1 0x1 DUP2 GT ISZERO PUSH2 0x2B27 JUMPI PUSH32 0x4E487B7100000000000000000000000000000000000000000000000000000000 PUSH1 0x0 MSTORE PUSH1 0x21 PUSH1 0x4 MSTORE PUSH1 0x24 PUSH1 0x0 REVERT JUMPDEST MUL OR SWAP1 SSTORE POP PUSH1 0x2 SLOAD PUSH1 0x3 SLOAD PUSH2 0x2B3C SWAP2 SWAP1 PUSH2 0x4C3E JUMP JUMPDEST DUP3 PUSH2 0x2B47 SWAP2 SWAP1 PUSH2 0x4C94 JUMP JUMPDEST DUP2 PUSH1 0x3 ADD DUP2 SWAP1 SSTORE POP PUSH1 0x2 SLOAD DUP2 PUSH1 0x4 ADD DUP2 SWAP1 SSTORE POP PUSH1 0x3 SLOAD DUP2 PUSH1 0x5 ADD DUP2 SWAP1 SSTORE POP DUP2 DUP2 PUSH1 0x6 ADD DUP2 SWAP1 SSTORE POP PUSH1 0x0 DUP2 PUSH1 0x2 ADD PUSH1 0x14 PUSH2 0x100 EXP DUP2 SLOAD DUP2 PUSH1 0xFF MUL NOT AND SWAP1 DUP4 PUSH1 0x4 DUP2 GT ISZERO PUSH2 0x2BBC JUMPI PUSH32 0x4E487B7100000000000000000000000000000000000000000000000000000000 PUSH1 0x0 MSTORE PUSH1 0x21 PUSH1 0x4 MSTORE PUSH1 0x24 PUSH1 0x0 REVERT JUMPDEST MUL OR SWAP1 SSTORE POP DUP5 DUP5 DUP3 PUSH1 0x9 ADD SWAP2 SWAP1 PUSH2 0x2BD4 SWAP3 SWAP2 SWAP1 PUSH2 0x394B JUMP JUMPDEST POP PUSH1 0x0 DUP2 PUSH1 0x7 ADD PUSH1 0x0 PUSH2 0x100 EXP DUP2 SLOAD DUP2 PUSH1 0xFF MUL NOT AND SWAP1 DUP4 ISZERO ISZERO MUL OR SWAP1 SSTORE POP PUSH1 0x0 DUP2 PUSH1 0x7 ADD PUSH1 0x1 PUSH2 0x100 EXP DUP2 SLOAD DUP2 PUSH1 0xFF MUL NOT AND SWAP1 DUP4 ISZERO ISZERO MUL OR SWAP1 SSTORE POP PUSH1 0x6 PUSH1 0x0 SWAP1 SLOAD SWAP1 PUSH2 0x100 EXP SWAP1 DIV PUSH20 0xFFFFFFFFFFFFFFFFFFFFFFFFFFFFFFFFFFFFFFFF AND PUSH20 0xFFFFFFFFFFFFFFFFFFFFFFFFFFFFFFFFFFFFFFFF AND PUSH4 0x23B872DD CALLER ADDRESS DUP6 PUSH1 0x40 MLOAD DUP5 PUSH4 0xFFFFFFFF AND PUSH1 0xE0 SHL DUP2 MSTORE PUSH1 0x4 ADD PUSH2 0x2C6E SWAP4 SWAP3 SWAP2 SWAP1 PUSH2 0x4825 JUMP JUMPDEST PUSH1 0x20 PUSH1 0x40 MLOAD DUP1 DUP4 SUB DUP2 PUSH1 0x0 DUP8 DUP1 EXTCODESIZE ISZERO DUP1 ISZERO PUSH2 0x2C88 JUMPI PUSH1 0x0 DUP1 REVERT JUMPDEST POP GAS CALL ISZERO DUP1 ISZERO PUSH2 0x2C9C JUMPI RETURNDATASIZE PUSH1 0x0 DUP1 RETURNDATACOPY RETURNDATASIZE PUSH1 0x0 REVERT JUMPDEST POP POP POP POP PUSH1 0x40 MLOAD RETURNDATASIZE PUSH1 0x1F NOT PUSH1 0x1F DUP3 ADD AND DUP3 ADD DUP1 PUSH1 0x40 MSTORE POP DUP2 ADD SWAP1 PUSH2 0x2CC0 SWAP2 SWAP1 PUSH2 0x3E35 JUMP JUMPDEST POP PUSH32 0x8CEBFB97F77CE25B9AA133B5F81FD8D5FE9B9A9D196417059095CC13EDC72D2A DUP2 PUSH1 0x40 MLOAD PUSH2 0x2CF0 SWAP2 SWAP1 PUSH2 0x4B04 JUMP JUMPDEST PUSH1 0x40 MLOAD DUP1 SWAP2 SUB SWAP1 LOG1 POP POP POP POP POP POP JUMP JUMPDEST DUP3 PUSH1 0x0 PUSH1 0x7 PUSH1 0x0 DUP4 DUP2 MSTORE PUSH1 0x20 ADD SWAP1 DUP2 MSTORE PUSH1 0x20 ADD PUSH1 0x0 KECCAK256 SWAP1 POP PUSH1 0x0 PUSH1 0x4 DUP2 GT ISZERO PUSH2 0x2D52 JUMPI PUSH32 0x4E487B7100000000000000000000000000000000000000000000000000000000 PUSH1 0x0 MSTORE PUSH1 0x21 PUSH1 0x4 MSTORE PUSH1 0x24 PUSH1 0x0 REVERT JUMPDEST DUP2 PUSH1 0x2 ADD PUSH1 0x14 SWAP1 SLOAD SWAP1 PUSH2 0x100 EXP SWAP1 DIV PUSH1 0xFF AND PUSH1 0x4 DUP2 GT ISZERO PUSH2 0x2D9C JUMPI PUSH32 0x4E487B7100000000000000000000000000000000000000000000000000000000 PUSH1 0x0 MSTORE PUSH1 0x21 PUSH1 0x4 MSTORE PUSH1 0x24 PUSH1 0x0 REVERT JUMPDEST EQ PUSH2 0x2DDC JUMPI PUSH1 0x40 MLOAD PUSH32 0x8C379A000000000000000000000000000000000000000000000000000000000 DUP2 MSTORE PUSH1 0x4 ADD PUSH2 0x2DD3 SWAP1 PUSH2 0x49A2 JUMP JUMPDEST PUSH1 0x40 MLOAD DUP1 SWAP2 SUB SWAP1 REVERT JUMPDEST DUP5 PUSH1 0x0 PUSH1 0x7 PUSH1 0x0 DUP4 DUP2 MSTORE PUSH1 0x20 ADD SWAP1 DUP2 MSTORE PUSH1 0x20 ADD PUSH1 0x0 KECCAK256 SWAP1 POP PUSH1 0x0 PUSH1 0x1 DUP2 GT ISZERO PUSH2 0x2E2E JUMPI PUSH32 0x4E487B7100000000000000000000000000000000000000000000000000000000 PUSH1 0x0 MSTORE PUSH1 0x21 PUSH1 0x4 MSTORE PUSH1 0x24 PUSH1 0x0 REVERT JUMPDEST DUP2 PUSH1 0x1 ADD PUSH1 0x0 SWAP1 SLOAD SWAP1 PUSH2 0x100 EXP SWAP1 DIV PUSH1 0xFF AND PUSH1 0x1 DUP2 GT ISZERO PUSH2 0x2E78 JUMPI PUSH32 0x4E487B7100000000000000000000000000000000000000000000000000000000 PUSH1 0x0 MSTORE PUSH1 0x21 PUSH1 0x4 MSTORE PUSH1 0x24 PUSH1 0x0 REVERT JUMPDEST EQ PUSH2 0x2EB8 JUMPI PUSH1 0x40 MLOAD PUSH32 0x8C379A000000000000000000000000000000000000000000000000000000000 DUP2 MSTORE PUSH1 0x4 ADD PUSH2 0x2EAF SWAP1 PUSH2 0x4A22 JUMP JUMPDEST PUSH1 0x40 MLOAD DUP1 SWAP2 SUB SWAP1 REVERT JUMPDEST DUP7 PUSH1 0x0 PUSH1 0x7 PUSH1 0x0 DUP4 DUP2 MSTORE PUSH1 0x20 ADD SWAP1 DUP2 MSTORE PUSH1 0x20 ADD PUSH1 0x0 KECCAK256 SWAP1 POP DUP1 PUSH1 0x1 ADD PUSH1 0x1 SWAP1 SLOAD SWAP1 PUSH2 0x100 EXP SWAP1 DIV PUSH20 0xFFFFFFFFFFFFFFFFFFFFFFFFFFFFFFFFFFFFFFFF AND PUSH20 0xFFFFFFFFFFFFFFFFFFFFFFFFFFFFFFFFFFFFFFFF AND CALLER PUSH20 0xFFFFFFFFFFFFFFFFFFFFFFFFFFFFFFFFFFFFFFFF AND EQ ISZERO PUSH2 0x2F63 JUMPI PUSH1 0x40 MLOAD PUSH32 0x8C379A000000000000000000000000000000000000000000000000000000000 DUP2 MSTORE PUSH1 0x4 ADD PUSH2 0x2F5A SWAP1 PUSH2 0x48C2 JUMP JUMPDEST PUSH1 0x40 MLOAD DUP1 SWAP2 SUB SWAP1 REVERT JUMPDEST DUP9 PUSH1 0x0 PUSH1 0x7 PUSH1 0x0 DUP4 DUP2 MSTORE PUSH1 0x20 ADD SWAP1 DUP2 MSTORE PUSH1 0x20 ADD PUSH1 0x0 KECCAK256 SWAP1 POP DUP1 PUSH1 0x6 ADD SLOAD PUSH1 0x6 PUSH1 0x0 SWAP1 SLOAD SWAP1 PUSH2 0x100 EXP SWAP1 DIV PUSH20 0xFFFFFFFFFFFFFFFFFFFFFFFFFFFFFFFFFFFFFFFF AND PUSH20 0xFFFFFFFFFFFFFFFFFFFFFFFFFFFFFFFFFFFFFFFF AND PUSH4 0x70A08231 CALLER PUSH1 0x40 MLOAD DUP3 PUSH4 0xFFFFFFFF AND PUSH1 0xE0 SHL DUP2 MSTORE PUSH1 0x4 ADD PUSH2 0x2FDB SWAP2 SWAP1 PUSH2 0x480A JUMP JUMPDEST PUSH1 0x20 PUSH1 0x40 MLOAD DUP1 DUP4 SUB DUP2 DUP7 DUP1 EXTCODESIZE ISZERO DUP1 ISZERO PUSH2 0x2FF3 JUMPI PUSH1 0x0 DUP1 REVERT JUMPDEST POP GAS STATICCALL ISZERO DUP1 ISZERO PUSH2 0x3007 JUMPI RETURNDATASIZE PUSH1 0x0 DUP1 RETURNDATACOPY RETURNDATASIZE PUSH1 0x0 REVERT JUMPDEST POP POP POP POP PUSH1 0x40 MLOAD RETURNDATASIZE PUSH1 0x1F NOT PUSH1 0x1F DUP3 ADD AND DUP3 ADD DUP1 PUSH1 0x40 MSTORE POP DUP2 ADD SWAP1 PUSH2 0x302B SWAP2 SWAP1 PUSH2 0x3EF3 JUMP JUMPDEST GT PUSH2 0x306B JUMPI PUSH1 0x40 MLOAD PUSH32 0x8C379A000000000000000000000000000000000000000000000000000000000 DUP2 MSTORE PUSH1 0x4 ADD PUSH2 0x3062 SWAP1 PUSH2 0x4AC2 JUMP JUMPDEST PUSH1 0x40 MLOAD DUP1 SWAP2 SUB SWAP1 REVERT JUMPDEST PUSH1 0x0 PUSH1 0x7 PUSH1 0x0 DUP14 DUP2 MSTORE PUSH1 0x20 ADD SWAP1 DUP2 MSTORE PUSH1 0x20 ADD PUSH1 0x0 KECCAK256 SWAP1 POP CALLER DUP2 PUSH1 0x2 ADD PUSH1 0x0 PUSH2 0x100 EXP DUP2 SLOAD DUP2 PUSH20 0xFFFFFFFFFFFFFFFFFFFFFFFFFFFFFFFFFFFFFFFF MUL NOT AND SWAP1 DUP4 PUSH20 0xFFFFFFFFFFFFFFFFFFFFFFFFFFFFFFFFFFFFFFFF AND MUL OR SWAP1 SSTORE POP PUSH1 0x1 DUP2 PUSH1 0x2 ADD PUSH1 0x14 PUSH2 0x100 EXP DUP2 SLOAD DUP2 PUSH1 0xFF MUL NOT AND SWAP1 DUP4 PUSH1 0x4 DUP2 GT ISZERO PUSH2 0x3113 JUMPI PUSH32 0x4E487B7100000000000000000000000000000000000000000000000000000000 PUSH1 0x0 MSTORE PUSH1 0x21 PUSH1 0x4 MSTORE PUSH1 0x24 PUSH1 0x0 REVERT JUMPDEST MUL OR SWAP1 SSTORE POP PUSH1 0x6 PUSH1 0x0 SWAP1 SLOAD SWAP1 PUSH2 0x100 EXP SWAP1 DIV PUSH20 0xFFFFFFFFFFFFFFFFFFFFFFFFFFFFFFFFFFFFFFFF AND PUSH20 0xFFFFFFFFFFFFFFFFFFFFFFFFFFFFFFFFFFFFFFFF AND PUSH4 0x23B872DD CALLER ADDRESS DUP5 PUSH1 0x6 ADD SLOAD PUSH1 0x40 MLOAD DUP5 PUSH4 0xFFFFFFFF AND PUSH1 0xE0 SHL DUP2 MSTORE PUSH1 0x4 ADD PUSH2 0x317B SWAP4 SWAP3 SWAP2 SWAP1 PUSH2 0x4825 JUMP JUMPDEST PUSH1 0x20 PUSH1 0x40 MLOAD DUP1 DUP4 SUB DUP2 PUSH1 0x0 DUP8 DUP1 EXTCODESIZE ISZERO DUP1 ISZERO PUSH2 0x3195 JUMPI PUSH1 0x0 DUP1 REVERT JUMPDEST POP GAS CALL ISZERO DUP1 ISZERO PUSH2 0x31A9 JUMPI RETURNDATASIZE PUSH1 0x0 DUP1 RETURNDATACOPY RETURNDATASIZE PUSH1 0x0 REVERT JUMPDEST POP POP POP POP PUSH1 0x40 MLOAD RETURNDATASIZE PUSH1 0x1F NOT PUSH1 0x1F DUP3 ADD AND DUP3 ADD DUP1 PUSH1 0x40 MSTORE POP DUP2 ADD SWAP1 PUSH2 0x31CD SWAP2 SWAP1 PUSH2 0x3E35 JUMP JUMPDEST PUSH2 0x320C JUMPI PUSH1 0x40 MLOAD PUSH32 0x8C379A000000000000000000000000000000000000000000000000000000000 DUP2 MSTORE PUSH1 0x4 ADD PUSH2 0x3203 SWAP1 PUSH2 0x4922 JUMP JUMPDEST PUSH1 0x40 MLOAD DUP1 SWAP2 SUB SWAP1 REVERT JUMPDEST DUP11 DUP11 DUP3 PUSH1 0x8 ADD SWAP2 SWAP1 PUSH2 0x321F SWAP3 SWAP2 SWAP1 PUSH2 0x394B JUMP JUMPDEST POP PUSH32 0x59230F91C9EA3A0DA6F2991EBF39B1B1EFA9E321F42C6622EB3DD622AB849E56 DUP2 PUSH1 0x40 MLOAD PUSH2 0x324F SWAP2 SWAP1 PUSH2 0x4B04 JUMP JUMPDEST PUSH1 0x40 MLOAD DUP1 SWAP2 SUB SWAP1 LOG1 POP POP POP POP POP POP POP POP POP POP POP POP JUMP JUMPDEST PUSH1 0x60 PUSH1 0x0 DUP5 SWAP1 POP PUSH1 0x0 DUP7 SWAP1 POP PUSH1 0x1 SLOAD DUP3 GT ISZERO PUSH2 0x3281 JUMPI PUSH1 0x1 SLOAD SWAP2 POP JUMPDEST PUSH1 0x1 SLOAD DUP8 GT ISZERO PUSH2 0x3291 JUMPI PUSH1 0x1 SLOAD SWAP1 POP JUMPDEST PUSH1 0xF DUP8 GT ISZERO PUSH2 0x329F JUMPI PUSH1 0xF SWAP1 POP JUMPDEST PUSH1 0x0 DUP2 PUSH8 0xFFFFFFFFFFFFFFFF DUP2 GT ISZERO PUSH2 0x32E1 JUMPI PUSH32 0x4E487B7100000000000000000000000000000000000000000000000000000000 PUSH1 0x0 MSTORE PUSH1 0x41 PUSH1 0x4 MSTORE PUSH1 0x24 PUSH1 0x0 REVERT JUMPDEST PUSH1 0x40 MLOAD SWAP1 DUP1 DUP3 MSTORE DUP1 PUSH1 0x20 MUL PUSH1 0x20 ADD DUP3 ADD PUSH1 0x40 MSTORE DUP1 ISZERO PUSH2 0x331A JUMPI DUP2 PUSH1 0x20 ADD JUMPDEST PUSH2 0x3307 PUSH2 0x39D1 JUMP JUMPDEST DUP2 MSTORE PUSH1 0x20 ADD SWAP1 PUSH1 0x1 SWAP1 SUB SWAP1 DUP2 PUSH2 0x32FF JUMPI SWAP1 POP JUMPDEST POP SWAP1 POP PUSH1 0x0 DUP1 JUMPDEST DUP4 DUP2 LT ISZERO PUSH2 0x37D8 JUMPI PUSH2 0x3331 PUSH2 0x39D1 JUMP JUMPDEST PUSH1 0x0 DUP1 DUP8 SWAP1 POP JUMPDEST PUSH1 0x0 DUP2 SLT PUSH2 0x37B6 JUMPI PUSH1 0x7 PUSH1 0x0 DUP3 DUP2 MSTORE PUSH1 0x20 ADD SWAP1 DUP2 MSTORE PUSH1 0x20 ADD PUSH1 0x0 KECCAK256 PUSH1 0x40 MLOAD DUP1 PUSH2 0x1A0 ADD PUSH1 0x40 MSTORE SWAP1 DUP2 PUSH1 0x0 DUP3 ADD SLOAD DUP2 MSTORE PUSH1 0x20 ADD PUSH1 0x1 DUP3 ADD PUSH1 0x0 SWAP1 SLOAD SWAP1 PUSH2 0x100 EXP SWAP1 DIV PUSH1 0xFF AND PUSH1 0x1 DUP2 GT ISZERO PUSH2 0x33B4 JUMPI PUSH32 0x4E487B7100000000000000000000000000000000000000000000000000000000 PUSH1 0x0 MSTORE PUSH1 0x21 PUSH1 0x4 MSTORE PUSH1 0x24 PUSH1 0x0 REVERT JUMPDEST PUSH1 0x1 DUP2 GT ISZERO PUSH2 0x33EC JUMPI PUSH32 0x4E487B7100000000000000000000000000000000000000000000000000000000 PUSH1 0x0 MSTORE PUSH1 0x21 PUSH1 0x4 MSTORE PUSH1 0x24 PUSH1 0x0 REVERT JUMPDEST DUP2 MSTORE PUSH1 0x20 ADD PUSH1 0x1 DUP3 ADD PUSH1 0x1 SWAP1 SLOAD SWAP1 PUSH2 0x100 EXP SWAP1 DIV PUSH20 0xFFFFFFFFFFFFFFFFFFFFFFFFFFFFFFFFFFFFFFFF AND PUSH20 0xFFFFFFFFFFFFFFFFFFFFFFFFFFFFFFFFFFFFFFFF AND PUSH20 0xFFFFFFFFFFFFFFFFFFFFFFFFFFFFFFFFFFFFFFFF AND DUP2 MSTORE PUSH1 0x20 ADD PUSH1 0x2 DUP3 ADD PUSH1 0x0 SWAP1 SLOAD SWAP1 PUSH2 0x100 EXP SWAP1 DIV PUSH20 0xFFFFFFFFFFFFFFFFFFFFFFFFFFFFFFFFFFFFFFFF AND PUSH20 0xFFFFFFFFFFFFFFFFFFFFFFFFFFFFFFFFFFFFFFFF AND PUSH20 0xFFFFFFFFFFFFFFFFFFFFFFFFFFFFFFFFFFFFFFFF AND DUP2 MSTORE PUSH1 0x20 ADD PUSH1 0x2 DUP3 ADD PUSH1 0x14 SWAP1 SLOAD SWAP1 PUSH2 0x100 EXP SWAP1 DIV PUSH1 0xFF AND PUSH1 0x4 DUP2 GT ISZERO PUSH2 0x34E7 JUMPI PUSH32 0x4E487B7100000000000000000000000000000000000000000000000000000000 PUSH1 0x0 MSTORE PUSH1 0x21 PUSH1 0x4 MSTORE PUSH1 0x24 PUSH1 0x0 REVERT JUMPDEST PUSH1 0x4 DUP2 GT ISZERO PUSH2 0x351F JUMPI PUSH32 0x4E487B7100000000000000000000000000000000000000000000000000000000 PUSH1 0x0 MSTORE PUSH1 0x21 PUSH1 0x4 MSTORE PUSH1 0x24 PUSH1 0x0 REVERT JUMPDEST DUP2 MSTORE PUSH1 0x20 ADD PUSH1 0x3 DUP3 ADD SLOAD DUP2 MSTORE PUSH1 0x20 ADD PUSH1 0x4 DUP3 ADD SLOAD DUP2 MSTORE PUSH1 0x20 ADD PUSH1 0x5 DUP3 ADD SLOAD DUP2 MSTORE PUSH1 0x20 ADD PUSH1 0x6 DUP3 ADD SLOAD DUP2 MSTORE PUSH1 0x20 ADD PUSH1 0x7 DUP3 ADD PUSH1 0x0 SWAP1 SLOAD SWAP1 PUSH2 0x100 EXP SWAP1 DIV PUSH1 0xFF AND ISZERO ISZERO ISZERO ISZERO DUP2 MSTORE PUSH1 0x20 ADD PUSH1 0x7 DUP3 ADD PUSH1 0x1 SWAP1 SLOAD SWAP1 PUSH2 0x100 EXP SWAP1 DIV PUSH1 0xFF AND ISZERO ISZERO ISZERO ISZERO DUP2 MSTORE PUSH1 0x20 ADD PUSH1 0x8 DUP3 ADD DUP1 SLOAD PUSH2 0x3591 SWAP1 PUSH2 0x4E40 JUMP JUMPDEST DUP1 PUSH1 0x1F ADD PUSH1 0x20 DUP1 SWAP2 DIV MUL PUSH1 0x20 ADD PUSH1 0x40 MLOAD SWAP1 DUP2 ADD PUSH1 0x40 MSTORE DUP1 SWAP3 SWAP2 SWAP1 DUP2 DUP2 MSTORE PUSH1 0x20 ADD DUP3 DUP1 SLOAD PUSH2 0x35BD SWAP1 PUSH2 0x4E40 JUMP JUMPDEST DUP1 ISZERO PUSH2 0x360A JUMPI DUP1 PUSH1 0x1F LT PUSH2 0x35DF JUMPI PUSH2 0x100 DUP1 DUP4 SLOAD DIV MUL DUP4 MSTORE SWAP2 PUSH1 0x20 ADD SWAP2 PUSH2 0x360A JUMP JUMPDEST DUP3 ADD SWAP2 SWAP1 PUSH1 0x0 MSTORE PUSH1 0x20 PUSH1 0x0 KECCAK256 SWAP1 JUMPDEST DUP2 SLOAD DUP2 MSTORE SWAP1 PUSH1 0x1 ADD SWAP1 PUSH1 0x20 ADD DUP1 DUP4 GT PUSH2 0x35ED JUMPI DUP3 SWAP1 SUB PUSH1 0x1F AND DUP3 ADD SWAP2 JUMPDEST POP POP POP POP POP DUP2 MSTORE PUSH1 0x20 ADD PUSH1 0x9 DUP3 ADD DUP1 SLOAD PUSH2 0x3623 SWAP1 PUSH2 0x4E40 JUMP JUMPDEST DUP1 PUSH1 0x1F ADD PUSH1 0x20 DUP1 SWAP2 DIV MUL PUSH1 0x20 ADD PUSH1 0x40 MLOAD SWAP1 DUP2 ADD PUSH1 0x40 MSTORE DUP1 SWAP3 SWAP2 SWAP1 DUP2 DUP2 MSTORE PUSH1 0x20 ADD DUP3 DUP1 SLOAD PUSH2 0x364F SWAP1 PUSH2 0x4E40 JUMP JUMPDEST DUP1 ISZERO PUSH2 0x369C JUMPI DUP1 PUSH1 0x1F LT PUSH2 0x3671 JUMPI PUSH2 0x100 DUP1 DUP4 SLOAD DIV MUL DUP4 MSTORE SWAP2 PUSH1 0x20 ADD SWAP2 PUSH2 0x369C JUMP JUMPDEST DUP3 ADD SWAP2 SWAP1 PUSH1 0x0 MSTORE PUSH1 0x20 PUSH1 0x0 KECCAK256 SWAP1 JUMPDEST DUP2 SLOAD DUP2 MSTORE SWAP1 PUSH1 0x1 ADD SWAP1 PUSH1 0x20 ADD DUP1 DUP4 GT PUSH2 0x367F JUMPI DUP3 SWAP1 SUB PUSH1 0x1F AND DUP3 ADD SWAP2 JUMPDEST POP POP POP POP POP DUP2 MSTORE POP POP SWAP3 POP PUSH2 0x36B1 DUP4 DUP13 PUSH2 0x1F09 JUMP JUMPDEST DUP1 ISZERO PUSH2 0x3726 JUMPI POP DUP10 PUSH20 0xFFFFFFFFFFFFFFFFFFFFFFFFFFFFFFFFFFFFFFFF AND DUP4 PUSH1 0x40 ADD MLOAD PUSH20 0xFFFFFFFFFFFFFFFFFFFFFFFFFFFFFFFFFFFFFFFF AND EQ DUP1 PUSH2 0x3725 JUMPI POP DUP10 PUSH20 0xFFFFFFFFFFFFFFFFFFFFFFFFFFFFFFFFFFFFFFFF AND DUP4 PUSH1 0x60 ADD MLOAD PUSH20 0xFFFFFFFFFFFFFFFFFFFFFFFFFFFFFFFFFFFFFFFF AND EQ JUMPDEST JUMPDEST ISZERO PUSH2 0x37A3 JUMPI DUP3 DUP7 DUP6 DUP2 MLOAD DUP2 LT PUSH2 0x3765 JUMPI PUSH32 0x4E487B7100000000000000000000000000000000000000000000000000000000 PUSH1 0x0 MSTORE PUSH1 0x32 PUSH1 0x4 MSTORE PUSH1 0x24 PUSH1 0x0 REVERT JUMPDEST PUSH1 0x20 MUL PUSH1 0x20 ADD ADD DUP2 SWAP1 MSTORE POP PUSH1 0x0 DUP2 SGT ISZERO PUSH2 0x3789 JUMPI PUSH1 0x1 DUP2 PUSH2 0x3786 SWAP2 SWAP1 PUSH2 0x4C94 JUMP JUMPDEST SWAP8 POP JUMPDEST PUSH1 0x0 DUP2 EQ ISZERO SWAP2 POP DUP5 DUP1 PUSH2 0x379B SWAP1 PUSH2 0x4F59 JUMP JUMPDEST SWAP6 POP POP PUSH2 0x37B6 JUMP JUMPDEST DUP1 DUP1 PUSH2 0x37AE SWAP1 PUSH2 0x4DF7 JUMP JUMPDEST SWAP2 POP POP PUSH2 0x3338 JUMP JUMPDEST POP DUP1 PUSH2 0x37C3 JUMPI POP POP PUSH2 0x37D8 JUMP JUMPDEST POP POP DUP1 DUP1 PUSH2 0x37D0 SWAP1 PUSH2 0x4F59 JUMP JUMPDEST SWAP2 POP POP PUSH2 0x3321 JUMP JUMPDEST POP PUSH1 0x0 DUP2 PUSH8 0xFFFFFFFFFFFFFFFF DUP2 GT ISZERO PUSH2 0x381B JUMPI PUSH32 0x4E487B7100000000000000000000000000000000000000000000000000000000 PUSH1 0x0 MSTORE PUSH1 0x41 PUSH1 0x4 MSTORE PUSH1 0x24 PUSH1 0x0 REVERT JUMPDEST PUSH1 0x40 MLOAD SWAP1 DUP1 DUP3 MSTORE DUP1 PUSH1 0x20 MUL PUSH1 0x20 ADD DUP3 ADD PUSH1 0x40 MSTORE DUP1 ISZERO PUSH2 0x3854 JUMPI DUP2 PUSH1 0x20 ADD JUMPDEST PUSH2 0x3841 PUSH2 0x39D1 JUMP JUMPDEST DUP2 MSTORE PUSH1 0x20 ADD SWAP1 PUSH1 0x1 SWAP1 SUB SWAP1 DUP2 PUSH2 0x3839 JUMPI SWAP1 POP JUMPDEST POP SWAP1 POP PUSH1 0x0 JUMPDEST DUP4 MLOAD DUP2 LT ISZERO PUSH2 0x393A JUMPI PUSH1 0x0 DUP5 DUP3 DUP2 MLOAD DUP2 LT PUSH2 0x389E JUMPI PUSH32 0x4E487B7100000000000000000000000000000000000000000000000000000000 PUSH1 0x0 MSTORE PUSH1 0x32 PUSH1 0x4 MSTORE PUSH1 0x24 PUSH1 0x0 REVERT JUMPDEST PUSH1 0x20 MUL PUSH1 0x20 ADD ADD MLOAD SWAP1 POP PUSH1 0x0 PUSH20 0xFFFFFFFFFFFFFFFFFFFFFFFFFFFFFFFFFFFFFFFF AND DUP2 PUSH1 0x40 ADD MLOAD PUSH20 0xFFFFFFFFFFFFFFFFFFFFFFFFFFFFFFFFFFFFFFFF AND EQ PUSH2 0x3926 JUMPI DUP1 DUP4 DUP4 DUP2 MLOAD DUP2 LT PUSH2 0x391A JUMPI PUSH32 0x4E487B7100000000000000000000000000000000000000000000000000000000 PUSH1 0x0 MSTORE PUSH1 0x32 PUSH1 0x4 MSTORE PUSH1 0x24 PUSH1 0x0 REVERT JUMPDEST PUSH1 0x20 MUL PUSH1 0x20 ADD ADD DUP2 SWAP1 MSTORE POP JUMPDEST POP DUP1 DUP1 PUSH2 0x3932 SWAP1 PUSH2 0x4F59 JUMP JUMPDEST SWAP2 POP POP PUSH2 0x385A JUMP JUMPDEST POP DUP1 SWAP6 POP POP POP POP POP POP SWAP5 SWAP4 POP POP POP POP JUMP JUMPDEST DUP3 DUP1 SLOAD PUSH2 0x3957 SWAP1 PUSH2 0x4E40 JUMP JUMPDEST SWAP1 PUSH1 0x0 MSTORE PUSH1 0x20 PUSH1 0x0 KECCAK256 SWAP1 PUSH1 0x1F ADD PUSH1 0x20 SWAP1 DIV DUP2 ADD SWAP3 DUP3 PUSH2 0x3979 JUMPI PUSH1 0x0 DUP6 SSTORE PUSH2 0x39C0 JUMP JUMPDEST DUP3 PUSH1 0x1F LT PUSH2 0x3992 JUMPI DUP1 CALLDATALOAD PUSH1 0xFF NOT AND DUP4 DUP1 ADD OR DUP6 SSTORE PUSH2 0x39C0 JUMP JUMPDEST DUP3 DUP1 ADD PUSH1 0x1 ADD DUP6 SSTORE DUP3 ISZERO PUSH2 0x39C0 JUMPI SWAP2 DUP3 ADD JUMPDEST DUP3 DUP2 GT ISZERO PUSH2 0x39BF JUMPI DUP3 CALLDATALOAD DUP3 SSTORE SWAP2 PUSH1 0x20 ADD SWAP2 SWAP1 PUSH1 0x1 ADD SWAP1 PUSH2 0x39A4 JUMP JUMPDEST JUMPDEST POP SWAP1 POP PUSH2 0x39CD SWAP2 SWAP1 PUSH2 0x3AD9 JUMP JUMPDEST POP SWAP1 JUMP JUMPDEST PUSH1 0x40 MLOAD DUP1 PUSH2 0x1A0 ADD PUSH1 0x40 MSTORE DUP1 PUSH1 0x0 DUP2 MSTORE PUSH1 0x20 ADD PUSH1 0x0 PUSH1 0x1 DUP2 GT ISZERO PUSH2 0x3A1E JUMPI PUSH32 0x4E487B7100000000000000000000000000000000000000000000000000000000 PUSH1 0x0 MSTORE PUSH1 0x21 PUSH1 0x4 MSTORE PUSH1 0x24 PUSH1 0x0 REVERT JUMPDEST DUP2 MSTORE PUSH1 0x20 ADD PUSH1 0x0 PUSH20 0xFFFFFFFFFFFFFFFFFFFFFFFFFFFFFFFFFFFFFFFF AND DUP2 MSTORE PUSH1 0x20 ADD PUSH1 0x0 PUSH20 0xFFFFFFFFFFFFFFFFFFFFFFFFFFFFFFFFFFFFFFFF AND DUP2 MSTORE PUSH1 0x20 ADD PUSH1 0x0 PUSH1 0x4 DUP2 GT ISZERO PUSH2 0x3A97 JUMPI PUSH32 0x4E487B7100000000000000000000000000000000000000000000000000000000 PUSH1 0x0 MSTORE PUSH1 0x21 PUSH1 0x4 MSTORE PUSH1 0x24 PUSH1 0x0 REVERT JUMPDEST DUP2 MSTORE PUSH1 0x20 ADD PUSH1 0x0 DUP2 MSTORE PUSH1 0x20 ADD PUSH1 0x0 DUP2 MSTORE PUSH1 0x20 ADD PUSH1 0x0 DUP2 MSTORE PUSH1 0x20 ADD PUSH1 0x0 DUP2 MSTORE PUSH1 0x20 ADD PUSH1 0x0 ISZERO ISZERO DUP2 MSTORE PUSH1 0x20 ADD PUSH1 0x0 ISZERO ISZERO DUP2 MSTORE PUSH1 0x20 ADD PUSH1 0x60 DUP2 MSTORE PUSH1 0x20 ADD PUSH1 0x60 DUP2 MSTORE POP SWAP1 JUMP JUMPDEST JUMPDEST DUP1 DUP3 GT ISZERO PUSH2 0x3AF2 JUMPI PUSH1 0x0 DUP2 PUSH1 0x0 SWAP1 SSTORE POP PUSH1 0x1 ADD PUSH2 0x3ADA JUMP JUMPDEST POP SWAP1 JUMP JUMPDEST PUSH1 0x0 PUSH2 0x3B09 PUSH2 0x3B04 DUP5 PUSH2 0x4B66 JUMP JUMPDEST PUSH2 0x4B41 JUMP JUMPDEST SWAP1 POP DUP1 DUP4 DUP3 MSTORE PUSH1 0x20 DUP3 ADD SWAP1 POP DUP3 DUP6 PUSH1 0x20 DUP7 MUL DUP3 ADD GT ISZERO PUSH2 0x3B28 JUMPI PUSH1 0x0 DUP1 REVERT JUMPDEST PUSH1 0x0 JUMPDEST DUP6 DUP2 LT ISZERO PUSH2 0x3B58 JUMPI DUP2 PUSH2 0x3B3E DUP9 DUP3 PUSH2 0x3C09 JUMP JUMPDEST DUP5 MSTORE PUSH1 0x20 DUP5 ADD SWAP4 POP PUSH1 0x20 DUP4 ADD SWAP3 POP POP PUSH1 0x1 DUP2 ADD SWAP1 POP PUSH2 0x3B2B JUMP JUMPDEST POP POP POP SWAP4 SWAP3 POP POP POP JUMP JUMPDEST PUSH1 0x0 PUSH2 0x3B75 PUSH2 0x3B70 DUP5 PUSH2 0x4B92 JUMP JUMPDEST PUSH2 0x4B41 JUMP JUMPDEST SWAP1 POP DUP3 DUP2 MSTORE PUSH1 0x20 DUP2 ADD DUP5 DUP5 DUP5 ADD GT ISZERO PUSH2 0x3B8D JUMPI PUSH1 0x0 DUP1 REVERT JUMPDEST PUSH2 0x3B98 DUP5 DUP3 DUP6 PUSH2 0x4DB5 JUMP JUMPDEST POP SWAP4 SWAP3 POP POP POP JUMP JUMPDEST PUSH1 0x0 DUP2 CALLDATALOAD SWAP1 POP PUSH2 0x3BAF DUP2 PUSH2 0x558B JUMP JUMPDEST SWAP3 SWAP2 POP POP JUMP JUMPDEST PUSH1 0x0 DUP3 PUSH1 0x1F DUP4 ADD SLT PUSH2 0x3BC6 JUMPI PUSH1 0x0 DUP1 REVERT JUMPDEST DUP2 CALLDATALOAD PUSH2 0x3BD6 DUP5 DUP3 PUSH1 0x20 DUP7 ADD PUSH2 0x3AF6 JUMP JUMPDEST SWAP2 POP POP SWAP3 SWAP2 POP POP JUMP JUMPDEST PUSH1 0x0 DUP2 CALLDATALOAD SWAP1 POP PUSH2 0x3BEE DUP2 PUSH2 0x55A2 JUMP JUMPDEST SWAP3 SWAP2 POP POP JUMP JUMPDEST PUSH1 0x0 DUP2 MLOAD SWAP1 POP PUSH2 0x3C03 DUP2 PUSH2 0x55A2 JUMP JUMPDEST SWAP3 SWAP2 POP POP JUMP JUMPDEST PUSH1 0x0 DUP2 CALLDATALOAD SWAP1 POP PUSH2 0x3C18 DUP2 PUSH2 0x55B9 JUMP JUMPDEST SWAP3 SWAP2 POP POP JUMP JUMPDEST PUSH1 0x0 DUP2 CALLDATALOAD SWAP1 POP PUSH2 0x3C2D DUP2 PUSH2 0x55C9 JUMP JUMPDEST SWAP3 SWAP2 POP POP JUMP JUMPDEST PUSH1 0x0 DUP1 DUP4 PUSH1 0x1F DUP5 ADD SLT PUSH2 0x3C45 JUMPI PUSH1 0x0 DUP1 REVERT JUMPDEST DUP3 CALLDATALOAD SWAP1 POP PUSH8 0xFFFFFFFFFFFFFFFF DUP2 GT ISZERO PUSH2 0x3C5E JUMPI PUSH1 0x0 DUP1 REVERT JUMPDEST PUSH1 0x20 DUP4 ADD SWAP2 POP DUP4 PUSH1 0x1 DUP3 MUL DUP4 ADD GT ISZERO PUSH2 0x3C76 JUMPI PUSH1 0x0 DUP1 REVERT JUMPDEST SWAP3 POP SWAP3 SWAP1 POP JUMP JUMPDEST PUSH1 0x0 DUP3 PUSH1 0x1F DUP4 ADD SLT PUSH2 0x3C8E JUMPI PUSH1 0x0 DUP1 REVERT JUMPDEST DUP2 CALLDATALOAD PUSH2 0x3C9E DUP5 DUP3 PUSH1 0x20 DUP7 ADD PUSH2 0x3B62 JUMP JUMPDEST SWAP2 POP POP SWAP3 SWAP2 POP POP JUMP JUMPDEST PUSH1 0x0 PUSH2 0x1A0 DUP3 DUP5 SUB SLT ISZERO PUSH2 0x3CBA JUMPI PUSH1 0x0 DUP1 REVERT JUMPDEST PUSH2 0x3CC5 PUSH2 0x1A0 PUSH2 0x4B41 JUMP JUMPDEST SWAP1 POP PUSH1 0x0 PUSH2 0x3CD5 DUP5 DUP3 DUP6 ADD PUSH2 0x3E0B JUMP JUMPDEST PUSH1 0x0 DUP4 ADD MSTORE POP PUSH1 0x20 PUSH2 0x3CE9 DUP5 DUP3 DUP6 ADD PUSH2 0x3C1E JUMP JUMPDEST PUSH1 0x20 DUP4 ADD MSTORE POP PUSH1 0x40 PUSH2 0x3CFD DUP5 DUP3 DUP6 ADD PUSH2 0x3BA0 JUMP JUMPDEST PUSH1 0x40 DUP4 ADD MSTORE POP PUSH1 0x60 PUSH2 0x3D11 DUP5 DUP3 DUP6 ADD PUSH2 0x3BA0 JUMP JUMPDEST PUSH1 0x60 DUP4 ADD MSTORE POP PUSH1 0x80 PUSH2 0x3D25 DUP5 DUP3 DUP6 ADD PUSH2 0x3C09 JUMP JUMPDEST PUSH1 0x80 DUP4 ADD MSTORE POP PUSH1 0xA0 PUSH2 0x3D39 DUP5 DUP3 DUP6 ADD PUSH2 0x3E0B JUMP JUMPDEST PUSH1 0xA0 DUP4 ADD MSTORE POP PUSH1 0xC0 PUSH2 0x3D4D DUP5 DUP3 DUP6 ADD PUSH2 0x3E0B JUMP JUMPDEST PUSH1 0xC0 DUP4 ADD MSTORE POP PUSH1 0xE0 PUSH2 0x3D61 DUP5 DUP3 DUP6 ADD PUSH2 0x3E0B JUMP JUMPDEST PUSH1 0xE0 DUP4 ADD MSTORE POP PUSH2 0x100 PUSH2 0x3D76 DUP5 DUP3 DUP6 ADD PUSH2 0x3E0B JUMP JUMPDEST PUSH2 0x100 DUP4 ADD MSTORE POP PUSH2 0x120 PUSH2 0x3D8C DUP5 DUP3 DUP6 ADD PUSH2 0x3BDF JUMP JUMPDEST PUSH2 0x120 DUP4 ADD MSTORE POP PUSH2 0x140 PUSH2 0x3DA2 DUP5 DUP3 DUP6 ADD PUSH2 0x3BDF JUMP JUMPDEST PUSH2 0x140 DUP4 ADD MSTORE POP PUSH2 0x160 DUP3 ADD CALLDATALOAD PUSH8 0xFFFFFFFFFFFFFFFF DUP2 GT ISZERO PUSH2 0x3DC4 JUMPI PUSH1 0x0 DUP1 REVERT JUMPDEST PUSH2 0x3DD0 DUP5 DUP3 DUP6 ADD PUSH2 0x3C7D JUMP JUMPDEST PUSH2 0x160 DUP4 ADD MSTORE POP PUSH2 0x180 DUP3 ADD CALLDATALOAD PUSH8 0xFFFFFFFFFFFFFFFF DUP2 GT ISZERO PUSH2 0x3DF2 JUMPI PUSH1 0x0 DUP1 REVERT JUMPDEST PUSH2 0x3DFE DUP5 DUP3 DUP6 ADD PUSH2 0x3C7D JUMP JUMPDEST PUSH2 0x180 DUP4 ADD MSTORE POP SWAP3 SWAP2 POP POP JUMP JUMPDEST PUSH1 0x0 DUP2 CALLDATALOAD SWAP1 POP PUSH2 0x3E1A DUP2 PUSH2 0x55D9 JUMP JUMPDEST SWAP3 SWAP2 POP POP JUMP JUMPDEST PUSH1 0x0 DUP2 MLOAD SWAP1 POP PUSH2 0x3E2F DUP2 PUSH2 0x55D9 JUMP JUMPDEST SWAP3 SWAP2 POP POP JUMP JUMPDEST PUSH1 0x0 PUSH1 0x20 DUP3 DUP5 SUB SLT ISZERO PUSH2 0x3E47 JUMPI PUSH1 0x0 DUP1 REVERT JUMPDEST PUSH1 0x0 PUSH2 0x3E55 DUP5 DUP3 DUP6 ADD PUSH2 0x3BF4 JUMP JUMPDEST SWAP2 POP POP SWAP3 SWAP2 POP POP JUMP JUMPDEST PUSH1 0x0 DUP1 PUSH1 0x40 DUP4 DUP6 SUB SLT ISZERO PUSH2 0x3E71 JUMPI PUSH1 0x0 DUP1 REVERT JUMPDEST PUSH1 0x0 DUP4 ADD CALLDATALOAD PUSH8 0xFFFFFFFFFFFFFFFF DUP2 GT ISZERO PUSH2 0x3E8B JUMPI PUSH1 0x0 DUP1 REVERT JUMPDEST PUSH2 0x3E97 DUP6 DUP3 DUP7 ADD PUSH2 0x3CA7 JUMP JUMPDEST SWAP3 POP POP PUSH1 0x20 DUP4 ADD CALLDATALOAD PUSH8 0xFFFFFFFFFFFFFFFF DUP2 GT ISZERO PUSH2 0x3EB4 JUMPI PUSH1 0x0 DUP1 REVERT JUMPDEST PUSH2 0x3EC0 DUP6 DUP3 DUP7 ADD PUSH2 0x3BB5 JUMP JUMPDEST SWAP2 POP POP SWAP3 POP SWAP3 SWAP1 POP JUMP JUMPDEST PUSH1 0x0 PUSH1 0x20 DUP3 DUP5 SUB SLT ISZERO PUSH2 0x3EDC JUMPI PUSH1 0x0 DUP1 REVERT JUMPDEST PUSH1 0x0 PUSH2 0x3EEA DUP5 DUP3 DUP6 ADD PUSH2 0x3E0B JUMP JUMPDEST SWAP2 POP POP SWAP3 SWAP2 POP POP JUMP JUMPDEST PUSH1 0x0 PUSH1 0x20 DUP3 DUP5 SUB SLT ISZERO PUSH2 0x3F05 JUMPI PUSH1 0x0 DUP1 REVERT JUMPDEST PUSH1 0x0 PUSH2 0x3F13 DUP5 DUP3 DUP6 ADD PUSH2 0x3E20 JUMP JUMPDEST SWAP2 POP POP SWAP3 SWAP2 POP POP JUMP JUMPDEST PUSH1 0x0 DUP1 PUSH1 0x0 PUSH1 0x40 DUP5 DUP7 SUB SLT ISZERO PUSH2 0x3F31 JUMPI PUSH1 0x0 DUP1 REVERT JUMPDEST PUSH1 0x0 PUSH2 0x3F3F DUP7 DUP3 DUP8 ADD PUSH2 0x3E0B JUMP JUMPDEST SWAP4 POP POP PUSH1 0x20 DUP5 ADD CALLDATALOAD PUSH8 0xFFFFFFFFFFFFFFFF DUP2 GT ISZERO PUSH2 0x3F5C JUMPI PUSH1 0x0 DUP1 REVERT JUMPDEST PUSH2 0x3F68 DUP7 DUP3 DUP8 ADD PUSH2 0x3C33 JUMP JUMPDEST SWAP3 POP SWAP3 POP POP SWAP3 POP SWAP3 POP SWAP3 JUMP JUMPDEST PUSH1 0x0 DUP1 PUSH1 0x0 DUP1 PUSH1 0x80 DUP6 DUP8 SUB SLT ISZERO PUSH2 0x3F8A JUMPI PUSH1 0x0 DUP1 REVERT JUMPDEST PUSH1 0x0 PUSH2 0x3F98 DUP8 DUP3 DUP9 ADD PUSH2 0x3E0B JUMP JUMPDEST SWAP5 POP POP PUSH1 0x20 PUSH2 0x3FA9 DUP8 DUP3 DUP9 ADD PUSH2 0x3E0B JUMP JUMPDEST SWAP4 POP POP PUSH1 0x40 DUP6 ADD CALLDATALOAD PUSH8 0xFFFFFFFFFFFFFFFF DUP2 GT ISZERO PUSH2 0x3FC6 JUMPI PUSH1 0x0 DUP1 REVERT JUMPDEST PUSH2 0x3FD2 DUP8 DUP3 DUP9 ADD PUSH2 0x3BB5 JUMP JUMPDEST SWAP3 POP POP PUSH1 0x60 PUSH2 0x3FE3 DUP8 DUP3 DUP9 ADD PUSH2 0x3BA0 JUMP JUMPDEST SWAP2 POP POP SWAP3 SWAP6 SWAP2 SWAP5 POP SWAP3 POP JUMP JUMPDEST PUSH1 0x0 DUP1 PUSH1 0x0 PUSH1 0x60 DUP5 DUP7 SUB SLT ISZERO PUSH2 0x4004 JUMPI PUSH1 0x0 DUP1 REVERT JUMPDEST PUSH1 0x0 PUSH2 0x4012 DUP7 DUP3 DUP8 ADD PUSH2 0x3E0B JUMP JUMPDEST SWAP4 POP POP PUSH1 0x20 PUSH2 0x4023 DUP7 DUP3 DUP8 ADD PUSH2 0x3E0B JUMP JUMPDEST SWAP3 POP POP PUSH1 0x40 PUSH2 0x4034 DUP7 DUP3 DUP8 ADD PUSH2 0x3C09 JUMP JUMPDEST SWAP2 POP POP SWAP3 POP SWAP3 POP SWAP3 JUMP JUMPDEST PUSH1 0x0 PUSH2 0x404A DUP4 DUP4 PUSH2 0x442D JUMP JUMPDEST SWAP1 POP SWAP3 SWAP2 POP POP JUMP JUMPDEST PUSH2 0x405B DUP2 PUSH2 0x4D19 JUMP JUMPDEST DUP3 MSTORE POP POP JUMP JUMPDEST PUSH2 0x406A DUP2 PUSH2 0x4D19 JUMP JUMPDEST DUP3 MSTORE POP POP JUMP JUMPDEST PUSH1 0x0 PUSH2 0x407B DUP3 PUSH2 0x4BE8 JUMP JUMPDEST PUSH2 0x4085 DUP2 DUP6 PUSH2 0x4C0B JUMP JUMPDEST SWAP4 POP DUP4 PUSH1 0x20 DUP3 MUL DUP6 ADD PUSH2 0x4097 DUP6 PUSH2 0x4BC3 JUMP JUMPDEST DUP1 PUSH1 0x0 JUMPDEST DUP6 DUP2 LT ISZERO PUSH2 0x40D3 JUMPI DUP5 DUP5 SUB DUP10 MSTORE DUP2 MLOAD PUSH2 0x40B4 DUP6 DUP3 PUSH2 0x403E JUMP JUMPDEST SWAP5 POP PUSH2 0x40BF DUP4 PUSH2 0x4BFE JUMP JUMPDEST SWAP3 POP PUSH1 0x20 DUP11 ADD SWAP10 POP POP PUSH1 0x1 DUP2 ADD SWAP1 POP PUSH2 0x409B JUMP JUMPDEST POP DUP3 SWAP8 POP DUP8 SWAP6 POP POP POP POP POP POP SWAP3 SWAP2 POP POP JUMP JUMPDEST PUSH2 0x40EE DUP2 PUSH2 0x4D2B JUMP JUMPDEST DUP3 MSTORE POP POP JUMP JUMPDEST PUSH2 0x40FD DUP2 PUSH2 0x4D2B JUMP JUMPDEST DUP3 MSTORE POP POP JUMP JUMPDEST PUSH2 0x410C DUP2 PUSH2 0x4D91 JUMP JUMPDEST DUP3 MSTORE POP POP JUMP JUMPDEST PUSH2 0x411B DUP2 PUSH2 0x4DA3 JUMP JUMPDEST DUP3 MSTORE POP POP JUMP JUMPDEST PUSH1 0x0 PUSH2 0x412C DUP3 PUSH2 0x4BF3 JUMP JUMPDEST PUSH2 0x4136 DUP2 DUP6 PUSH2 0x4C1C JUMP JUMPDEST SWAP4 POP PUSH2 0x4146 DUP2 DUP6 PUSH1 0x20 DUP7 ADD PUSH2 0x4DC4 JUMP JUMPDEST PUSH2 0x414F DUP2 PUSH2 0x505E JUMP JUMPDEST DUP5 ADD SWAP2 POP POP SWAP3 SWAP2 POP POP JUMP JUMPDEST PUSH1 0x0 DUP2 SLOAD PUSH2 0x4167 DUP2 PUSH2 0x4E40 JUMP JUMPDEST PUSH2 0x4171 DUP2 DUP7 PUSH2 0x4C1C JUMP JUMPDEST SWAP5 POP PUSH1 0x1 DUP3 AND PUSH1 0x0 DUP2 EQ PUSH2 0x418C JUMPI PUSH1 0x1 DUP2 EQ PUSH2 0x419E JUMPI PUSH2 0x41D1 JUMP JUMPDEST PUSH1 0xFF NOT DUP4 AND DUP7 MSTORE PUSH1 0x20 DUP7 ADD SWAP4 POP PUSH2 0x41D1 JUMP JUMPDEST PUSH2 0x41A7 DUP6 PUSH2 0x4BD3 JUMP JUMPDEST PUSH1 0x0 JUMPDEST DUP4 DUP2 LT ISZERO PUSH2 0x41C9 JUMPI DUP2 SLOAD DUP2 DUP10 ADD MSTORE PUSH1 0x1 DUP3 ADD SWAP2 POP PUSH1 0x20 DUP2 ADD SWAP1 POP PUSH2 0x41AA JUMP JUMPDEST DUP1 DUP9 ADD SWAP6 POP POP POP JUMPDEST POP POP POP SWAP3 SWAP2 POP POP JUMP JUMPDEST PUSH1 0x0 PUSH2 0x41E7 PUSH1 0x2B DUP4 PUSH2 0x4C2D JUMP JUMPDEST SWAP2 POP PUSH2 0x41F2 DUP3 PUSH2 0x5096 JUMP JUMPDEST PUSH1 0x40 DUP3 ADD SWAP1 POP SWAP2 SWAP1 POP JUMP JUMPDEST PUSH1 0x0 PUSH2 0x420A PUSH1 0x13 DUP4 PUSH2 0x4C2D JUMP JUMPDEST SWAP2 POP PUSH2 0x4215 DUP3 PUSH2 0x50E5 JUMP JUMPDEST PUSH1 0x20 DUP3 ADD SWAP1 POP SWAP2 SWAP1 POP JUMP JUMPDEST PUSH1 0x0 PUSH2 0x422D PUSH1 0x1A DUP4 PUSH2 0x4C2D JUMP JUMPDEST SWAP2 POP PUSH2 0x4238 DUP3 PUSH2 0x510E JUMP JUMPDEST PUSH1 0x20 DUP3 ADD SWAP1 POP SWAP2 SWAP1 POP JUMP JUMPDEST PUSH1 0x0 PUSH2 0x4250 PUSH1 0x32 DUP4 PUSH2 0x4C2D JUMP JUMPDEST SWAP2 POP PUSH2 0x425B DUP3 PUSH2 0x5137 JUMP JUMPDEST PUSH1 0x40 DUP3 ADD SWAP1 POP SWAP2 SWAP1 POP JUMP JUMPDEST PUSH1 0x0 PUSH2 0x4273 PUSH1 0x2C DUP4 PUSH2 0x4C2D JUMP JUMPDEST SWAP2 POP PUSH2 0x427E DUP3 PUSH2 0x5186 JUMP JUMPDEST PUSH1 0x40 DUP3 ADD SWAP1 POP SWAP2 SWAP1 POP JUMP JUMPDEST PUSH1 0x0 PUSH2 0x4296 PUSH1 0x35 DUP4 PUSH2 0x4C2D JUMP JUMPDEST SWAP2 POP PUSH2 0x42A1 DUP3 PUSH2 0x51D5 JUMP JUMPDEST PUSH1 0x40 DUP3 ADD SWAP1 POP SWAP2 SWAP1 POP JUMP JUMPDEST PUSH1 0x0 PUSH2 0x42B9 PUSH1 0x20 DUP4 PUSH2 0x4C2D JUMP JUMPDEST SWAP2 POP PUSH2 0x42C4 DUP3 PUSH2 0x5224 JUMP JUMPDEST PUSH1 0x20 DUP3 ADD SWAP1 POP SWAP2 SWAP1 POP JUMP JUMPDEST PUSH1 0x0 PUSH2 0x42DC PUSH1 0x28 DUP4 PUSH2 0x4C2D JUMP JUMPDEST SWAP2 POP PUSH2 0x42E7 DUP3 PUSH2 0x524D JUMP JUMPDEST PUSH1 0x40 DUP3 ADD SWAP1 POP SWAP2 SWAP1 POP JUMP JUMPDEST PUSH1 0x0 PUSH2 0x42FF PUSH1 0x21 DUP4 PUSH2 0x4C2D JUMP JUMPDEST SWAP2 POP PUSH2 0x430A DUP3 PUSH2 0x529C JUMP JUMPDEST PUSH1 0x40 DUP3 ADD SWAP1 POP SWAP2 SWAP1 POP JUMP JUMPDEST PUSH1 0x0 PUSH2 0x4322 PUSH1 0x22 DUP4 PUSH2 0x4C2D JUMP JUMPDEST SWAP2 POP PUSH2 0x432D DUP3 PUSH2 0x52EB JUMP JUMPDEST PUSH1 0x40 DUP3 ADD SWAP1 POP SWAP2 SWAP1 POP JUMP JUMPDEST PUSH1 0x0 PUSH2 0x4345 PUSH1 0x29 DUP4 PUSH2 0x4C2D JUMP JUMPDEST SWAP2 POP PUSH2 0x4350 DUP3 PUSH2 0x533A JUMP JUMPDEST PUSH1 0x40 DUP3 ADD SWAP1 POP SWAP2 SWAP1 POP JUMP JUMPDEST PUSH1 0x0 PUSH2 0x4368 PUSH1 0x3C DUP4 PUSH2 0x4C2D JUMP JUMPDEST SWAP2 POP PUSH2 0x4373 DUP3 PUSH2 0x5389 JUMP JUMPDEST PUSH1 0x40 DUP3 ADD SWAP1 POP SWAP2 SWAP1 POP JUMP JUMPDEST PUSH1 0x0 PUSH2 0x438B PUSH1 0x29 DUP4 PUSH2 0x4C2D JUMP JUMPDEST SWAP2 POP PUSH2 0x4396 DUP3 PUSH2 0x53D8 JUMP JUMPDEST PUSH1 0x40 DUP3 ADD SWAP1 POP SWAP2 SWAP1 POP JUMP JUMPDEST PUSH1 0x0 PUSH2 0x43AE PUSH1 0x3F DUP4 PUSH2 0x4C2D JUMP JUMPDEST SWAP2 POP PUSH2 0x43B9 DUP3 PUSH2 0x5427 JUMP JUMPDEST PUSH1 0x40 DUP3 ADD SWAP1 POP SWAP2 SWAP1 POP JUMP JUMPDEST PUSH1 0x0 PUSH2 0x43D1 PUSH1 0x39 DUP4 PUSH2 0x4C2D JUMP JUMPDEST SWAP2 POP PUSH2 0x43DC DUP3 PUSH2 0x5476 JUMP JUMPDEST PUSH1 0x40 DUP3 ADD SWAP1 POP SWAP2 SWAP1 POP JUMP JUMPDEST PUSH1 0x0 PUSH2 0x43F4 PUSH1 0x2F DUP4 PUSH2 0x4C2D JUMP JUMPDEST SWAP2 POP PUSH2 0x43FF DUP3 PUSH2 0x54C5 JUMP JUMPDEST PUSH1 0x40 DUP3 ADD SWAP1 POP SWAP2 SWAP1 POP JUMP JUMPDEST PUSH1 0x0 PUSH2 0x4417 PUSH1 0x3F DUP4 PUSH2 0x4C2D JUMP JUMPDEST SWAP2 POP PUSH2 0x4422 DUP3 PUSH2 0x5514 JUMP JUMPDEST PUSH1 0x40 DUP3 ADD SWAP1 POP SWAP2 SWAP1 POP JUMP JUMPDEST PUSH1 0x0 PUSH2 0x1A0 DUP4 ADD PUSH1 0x0 DUP4 ADD MLOAD PUSH2 0x4446 PUSH1 0x0 DUP7 ADD DUP3 PUSH2 0x47EC JUMP JUMPDEST POP PUSH1 0x20 DUP4 ADD MLOAD PUSH2 0x4459 PUSH1 0x20 DUP7 ADD DUP3 PUSH2 0x4112 JUMP JUMPDEST POP PUSH1 0x40 DUP4 ADD MLOAD PUSH2 0x446C PUSH1 0x40 DUP7 ADD DUP3 PUSH2 0x4052 JUMP JUMPDEST POP PUSH1 0x60 DUP4 ADD MLOAD PUSH2 0x447F PUSH1 0x60 DUP7 ADD DUP3 PUSH2 0x4052 JUMP JUMPDEST POP PUSH1 0x80 DUP4 ADD MLOAD PUSH2 0x4492 PUSH1 0x80 DUP7 ADD DUP3 PUSH2 0x4103 JUMP JUMPDEST POP PUSH1 0xA0 DUP4 ADD MLOAD PUSH2 0x44A5 PUSH1 0xA0 DUP7 ADD DUP3 PUSH2 0x47EC JUMP JUMPDEST POP PUSH1 0xC0 DUP4 ADD MLOAD PUSH2 0x44B8 PUSH1 0xC0 DUP7 ADD DUP3 PUSH2 0x47EC JUMP JUMPDEST POP PUSH1 0xE0 DUP4 ADD MLOAD PUSH2 0x44CB PUSH1 0xE0 DUP7 ADD DUP3 PUSH2 0x47EC JUMP JUMPDEST POP PUSH2 0x100 DUP4 ADD MLOAD PUSH2 0x44E0 PUSH2 0x100 DUP7 ADD DUP3 PUSH2 0x47EC JUMP JUMPDEST POP PUSH2 0x120 DUP4 ADD MLOAD PUSH2 0x44F5 PUSH2 0x120 DUP7 ADD DUP3 PUSH2 0x40E5 JUMP JUMPDEST POP PUSH2 0x140 DUP4 ADD MLOAD PUSH2 0x450A PUSH2 0x140 DUP7 ADD DUP3 PUSH2 0x40E5 JUMP JUMPDEST POP PUSH2 0x160 DUP4 ADD MLOAD DUP5 DUP3 SUB PUSH2 0x160 DUP7 ADD MSTORE PUSH2 0x4524 DUP3 DUP3 PUSH2 0x4121 JUMP JUMPDEST SWAP2 POP POP PUSH2 0x180 DUP4 ADD MLOAD DUP5 DUP3 SUB PUSH2 0x180 DUP7 ADD MSTORE PUSH2 0x4540 DUP3 DUP3 PUSH2 0x4121 JUMP JUMPDEST SWAP2 POP POP DUP1 SWAP2 POP POP SWAP3 SWAP2 POP POP JUMP JUMPDEST PUSH1 0x0 PUSH2 0x1A0 DUP4 ADD PUSH1 0x0 DUP4 ADD MLOAD PUSH2 0x4566 PUSH1 0x0 DUP7 ADD DUP3 PUSH2 0x47EC JUMP JUMPDEST POP PUSH1 0x20 DUP4 ADD MLOAD PUSH2 0x4579 PUSH1 0x20 DUP7 ADD DUP3 PUSH2 0x4112 JUMP JUMPDEST POP PUSH1 0x40 DUP4 ADD MLOAD PUSH2 0x458C PUSH1 0x40 DUP7 ADD DUP3 PUSH2 0x4052 JUMP JUMPDEST POP PUSH1 0x60 DUP4 ADD MLOAD PUSH2 0x459F PUSH1 0x60 DUP7 ADD DUP3 PUSH2 0x4052 JUMP JUMPDEST POP PUSH1 0x80 DUP4 ADD MLOAD PUSH2 0x45B2 PUSH1 0x80 DUP7 ADD DUP3 PUSH2 0x4103 JUMP JUMPDEST POP PUSH1 0xA0 DUP4 ADD MLOAD PUSH2 0x45C5 PUSH1 0xA0 DUP7 ADD DUP3 PUSH2 0x47EC JUMP JUMPDEST POP PUSH1 0xC0 DUP4 ADD MLOAD PUSH2 0x45D8 PUSH1 0xC0 DUP7 ADD DUP3 PUSH2 0x47EC JUMP JUMPDEST POP PUSH1 0xE0 DUP4 ADD MLOAD PUSH2 0x45EB PUSH1 0xE0 DUP7 ADD DUP3 PUSH2 0x47EC JUMP JUMPDEST POP PUSH2 0x100 DUP4 ADD MLOAD PUSH2 0x4600 PUSH2 0x100 DUP7 ADD DUP3 PUSH2 0x47EC JUMP JUMPDEST POP PUSH2 0x120 DUP4 ADD MLOAD PUSH2 0x4615 PUSH2 0x120 DUP7 ADD DUP3 PUSH2 0x40E5 JUMP JUMPDEST POP PUSH2 0x140 DUP4 ADD MLOAD PUSH2 0x462A PUSH2 0x140 DUP7 ADD DUP3 PUSH2 0x40E5 JUMP JUMPDEST POP PUSH2 0x160 DUP4 ADD MLOAD DUP5 DUP3 SUB PUSH2 0x160 DUP7 ADD MSTORE PUSH2 0x4644 DUP3 DUP3 PUSH2 0x4121 JUMP JUMPDEST SWAP2 POP POP PUSH2 0x180 DUP4 ADD MLOAD DUP5 DUP3 SUB PUSH2 0x180 DUP7 ADD MSTORE PUSH2 0x4660 DUP3 DUP3 PUSH2 0x4121 JUMP JUMPDEST SWAP2 POP POP DUP1 SWAP2 POP POP SWAP3 SWAP2 POP POP JUMP JUMPDEST PUSH1 0x0 PUSH2 0x1A0 DUP4 ADD PUSH1 0x0 DUP1 DUP5 ADD SLOAD SWAP1 POP PUSH2 0x4685 DUP2 PUSH2 0x4EC0 JUMP JUMPDEST PUSH2 0x4692 PUSH1 0x0 DUP8 ADD DUP3 PUSH2 0x47EC JUMP JUMPDEST POP PUSH1 0x1 DUP5 ADD SLOAD SWAP1 POP PUSH2 0x46A3 DUP2 PUSH2 0x4EA6 JUMP JUMPDEST PUSH2 0x46B0 PUSH1 0x20 DUP8 ADD DUP3 PUSH2 0x4112 JUMP JUMPDEST POP PUSH2 0x46BA DUP2 PUSH2 0x4EDA JUMP JUMPDEST PUSH2 0x46C7 PUSH1 0x40 DUP8 ADD DUP3 PUSH2 0x4052 JUMP JUMPDEST POP PUSH1 0x2 DUP5 ADD SLOAD SWAP1 POP PUSH2 0x46D8 DUP2 PUSH2 0x4E72 JUMP JUMPDEST PUSH2 0x46E5 PUSH1 0x60 DUP8 ADD DUP3 PUSH2 0x4052 JUMP JUMPDEST POP PUSH2 0x46EF DUP2 PUSH2 0x4F0E JUMP JUMPDEST PUSH2 0x46FC PUSH1 0x80 DUP8 ADD DUP3 PUSH2 0x4103 JUMP JUMPDEST POP PUSH1 0x3 DUP5 ADD SLOAD SWAP1 POP PUSH2 0x470D DUP2 PUSH2 0x4EC0 JUMP JUMPDEST PUSH2 0x471A PUSH1 0xA0 DUP8 ADD DUP3 PUSH2 0x47EC JUMP JUMPDEST POP PUSH1 0x4 DUP5 ADD SLOAD SWAP1 POP PUSH2 0x472B DUP2 PUSH2 0x4EC0 JUMP JUMPDEST PUSH2 0x4738 PUSH1 0xC0 DUP8 ADD DUP3 PUSH2 0x47EC JUMP JUMPDEST POP PUSH1 0x5 DUP5 ADD SLOAD SWAP1 POP PUSH2 0x4749 DUP2 PUSH2 0x4EC0 JUMP JUMPDEST PUSH2 0x4756 PUSH1 0xE0 DUP8 ADD DUP3 PUSH2 0x47EC JUMP JUMPDEST POP PUSH1 0x6 DUP5 ADD SLOAD SWAP1 POP PUSH2 0x4767 DUP2 PUSH2 0x4EC0 JUMP JUMPDEST PUSH2 0x4775 PUSH2 0x100 DUP8 ADD DUP3 PUSH2 0x47EC JUMP JUMPDEST POP PUSH1 0x7 DUP5 ADD SLOAD SWAP1 POP PUSH2 0x4786 DUP2 PUSH2 0x4E8C JUMP JUMPDEST PUSH2 0x4794 PUSH2 0x120 DUP8 ADD DUP3 PUSH2 0x40E5 JUMP JUMPDEST POP PUSH2 0x479E DUP2 PUSH2 0x4EF4 JUMP JUMPDEST PUSH2 0x47AC PUSH2 0x140 DUP8 ADD DUP3 PUSH2 0x40E5 JUMP JUMPDEST POP PUSH1 0x8 DUP5 ADD DUP6 DUP4 SUB PUSH2 0x160 DUP8 ADD MSTORE PUSH2 0x47C4 DUP4 DUP3 PUSH2 0x415A JUMP JUMPDEST SWAP3 POP POP PUSH1 0x9 DUP5 ADD DUP6 DUP4 SUB PUSH2 0x180 DUP8 ADD MSTORE PUSH2 0x47DE DUP4 DUP3 PUSH2 0x415A JUMP JUMPDEST SWAP3 POP POP DUP2 SWAP3 POP POP POP SWAP3 SWAP2 POP POP JUMP JUMPDEST PUSH2 0x47F5 DUP2 PUSH2 0x4D87 JUMP JUMPDEST DUP3 MSTORE POP POP JUMP JUMPDEST PUSH2 0x4804 DUP2 PUSH2 0x4D87 JUMP JUMPDEST DUP3 MSTORE POP POP JUMP JUMPDEST PUSH1 0x0 PUSH1 0x20 DUP3 ADD SWAP1 POP PUSH2 0x481F PUSH1 0x0 DUP4 ADD DUP5 PUSH2 0x4061 JUMP JUMPDEST SWAP3 SWAP2 POP POP JUMP JUMPDEST PUSH1 0x0 PUSH1 0x60 DUP3 ADD SWAP1 POP PUSH2 0x483A PUSH1 0x0 DUP4 ADD DUP7 PUSH2 0x4061 JUMP JUMPDEST PUSH2 0x4847 PUSH1 0x20 DUP4 ADD DUP6 PUSH2 0x4061 JUMP JUMPDEST PUSH2 0x4854 PUSH1 0x40 DUP4 ADD DUP5 PUSH2 0x47FB JUMP JUMPDEST SWAP5 SWAP4 POP POP POP POP JUMP JUMPDEST PUSH1 0x0 PUSH1 0x40 DUP3 ADD SWAP1 POP PUSH2 0x4871 PUSH1 0x0 DUP4 ADD DUP6 PUSH2 0x4061 JUMP JUMPDEST PUSH2 0x487E PUSH1 0x20 DUP4 ADD DUP5 PUSH2 0x47FB JUMP JUMPDEST SWAP4 SWAP3 POP POP POP JUMP JUMPDEST PUSH1 0x0 PUSH1 0x20 DUP3 ADD SWAP1 POP DUP2 DUP2 SUB PUSH1 0x0 DUP4 ADD MSTORE PUSH2 0x489F DUP2 DUP5 PUSH2 0x4070 JUMP JUMPDEST SWAP1 POP SWAP3 SWAP2 POP POP JUMP JUMPDEST PUSH1 0x0 PUSH1 0x20 DUP3 ADD SWAP1 POP PUSH2 0x48BC PUSH1 0x0 DUP4 ADD DUP5 PUSH2 0x40F4 JUMP JUMPDEST SWAP3 SWAP2 POP POP JUMP JUMPDEST PUSH1 0x0 PUSH1 0x20 DUP3 ADD SWAP1 POP DUP2 DUP2 SUB PUSH1 0x0 DUP4 ADD MSTORE PUSH2 0x48DB DUP2 PUSH2 0x41DA JUMP JUMPDEST SWAP1 POP SWAP2 SWAP1 POP JUMP JUMPDEST PUSH1 0x0 PUSH1 0x20 DUP3 ADD SWAP1 POP DUP2 DUP2 SUB PUSH1 0x0 DUP4 ADD MSTORE PUSH2 0x48FB DUP2 PUSH2 0x41FD JUMP JUMPDEST SWAP1 POP SWAP2 SWAP1 POP JUMP JUMPDEST PUSH1 0x0 PUSH1 0x20 DUP3 ADD SWAP1 POP DUP2 DUP2 SUB PUSH1 0x0 DUP4 ADD MSTORE PUSH2 0x491B DUP2 PUSH2 0x4220 JUMP JUMPDEST SWAP1 POP SWAP2 SWAP1 POP JUMP JUMPDEST PUSH1 0x0 PUSH1 0x20 DUP3 ADD SWAP1 POP DUP2 DUP2 SUB PUSH1 0x0 DUP4 ADD MSTORE PUSH2 0x493B DUP2 PUSH2 0x4243 JUMP JUMPDEST SWAP1 POP SWAP2 SWAP1 POP JUMP JUMPDEST PUSH1 0x0 PUSH1 0x20 DUP3 ADD SWAP1 POP DUP2 DUP2 SUB PUSH1 0x0 DUP4 ADD MSTORE PUSH2 0x495B DUP2 PUSH2 0x4266 JUMP JUMPDEST SWAP1 POP SWAP2 SWAP1 POP JUMP JUMPDEST PUSH1 0x0 PUSH1 0x20 DUP3 ADD SWAP1 POP DUP2 DUP2 SUB PUSH1 0x0 DUP4 ADD MSTORE PUSH2 0x497B DUP2 PUSH2 0x4289 JUMP JUMPDEST SWAP1 POP SWAP2 SWAP1 POP JUMP JUMPDEST PUSH1 0x0 PUSH1 0x20 DUP3 ADD SWAP1 POP DUP2 DUP2 SUB PUSH1 0x0 DUP4 ADD MSTORE PUSH2 0x499B DUP2 PUSH2 0x42AC JUMP JUMPDEST SWAP1 POP SWAP2 SWAP1 POP JUMP JUMPDEST PUSH1 0x0 PUSH1 0x20 DUP3 ADD SWAP1 POP DUP2 DUP2 SUB PUSH1 0x0 DUP4 ADD MSTORE PUSH2 0x49BB DUP2 PUSH2 0x42CF JUMP JUMPDEST SWAP1 POP SWAP2 SWAP1 POP JUMP JUMPDEST PUSH1 0x0 PUSH1 0x20 DUP3 ADD SWAP1 POP DUP2 DUP2 SUB PUSH1 0x0 DUP4 ADD MSTORE PUSH2 0x49DB DUP2 PUSH2 0x42F2 JUMP JUMPDEST SWAP1 POP SWAP2 SWAP1 POP JUMP JUMPDEST PUSH1 0x0 PUSH1 0x20 DUP3 ADD SWAP1 POP DUP2 DUP2 SUB PUSH1 0x0 DUP4 ADD MSTORE PUSH2 0x49FB DUP2 PUSH2 0x4315 JUMP JUMPDEST SWAP1 POP SWAP2 SWAP1 POP JUMP JUMPDEST PUSH1 0x0 PUSH1 0x20 DUP3 ADD SWAP1 POP DUP2 DUP2 SUB PUSH1 0x0 DUP4 ADD MSTORE PUSH2 0x4A1B DUP2 PUSH2 0x4338 JUMP JUMPDEST SWAP1 POP SWAP2 SWAP1 POP JUMP JUMPDEST PUSH1 0x0 PUSH1 0x20 DUP3 ADD SWAP1 POP DUP2 DUP2 SUB PUSH1 0x0 DUP4 ADD MSTORE PUSH2 0x4A3B DUP2 PUSH2 0x435B JUMP JUMPDEST SWAP1 POP SWAP2 SWAP1 POP JUMP JUMPDEST PUSH1 0x0 PUSH1 0x20 DUP3 ADD SWAP1 POP DUP2 DUP2 SUB PUSH1 0x0 DUP4 ADD MSTORE PUSH2 0x4A5B DUP2 PUSH2 0x437E JUMP JUMPDEST SWAP1 POP SWAP2 SWAP1 POP JUMP JUMPDEST PUSH1 0x0 PUSH1 0x20 DUP3 ADD SWAP1 POP DUP2 DUP2 SUB PUSH1 0x0 DUP4 ADD MSTORE PUSH2 0x4A7B DUP2 PUSH2 0x43A1 JUMP JUMPDEST SWAP1 POP SWAP2 SWAP1 POP JUMP JUMPDEST PUSH1 0x0 PUSH1 0x20 DUP3 ADD SWAP1 POP DUP2 DUP2 SUB PUSH1 0x0 DUP4 ADD MSTORE PUSH2 0x4A9B DUP2 PUSH2 0x43C4 JUMP JUMPDEST SWAP1 POP SWAP2 SWAP1 POP JUMP JUMPDEST PUSH1 0x0 PUSH1 0x20 DUP3 ADD SWAP1 POP DUP2 DUP2 SUB PUSH1 0x0 DUP4 ADD MSTORE PUSH2 0x4ABB DUP2 PUSH2 0x43E7 JUMP JUMPDEST SWAP1 POP SWAP2 SWAP1 POP JUMP JUMPDEST PUSH1 0x0 PUSH1 0x20 DUP3 ADD SWAP1 POP DUP2 DUP2 SUB PUSH1 0x0 DUP4 ADD MSTORE PUSH2 0x4ADB DUP2 PUSH2 0x440A JUMP JUMPDEST SWAP1 POP SWAP2 SWAP1 POP JUMP JUMPDEST PUSH1 0x0 PUSH1 0x20 DUP3 ADD SWAP1 POP DUP2 DUP2 SUB PUSH1 0x0 DUP4 ADD MSTORE PUSH2 0x4AFC DUP2 DUP5 PUSH2 0x454D JUMP JUMPDEST SWAP1 POP SWAP3 SWAP2 POP POP JUMP JUMPDEST PUSH1 0x0 PUSH1 0x20 DUP3 ADD SWAP1 POP DUP2 DUP2 SUB PUSH1 0x0 DUP4 ADD MSTORE PUSH2 0x4B1E DUP2 DUP5 PUSH2 0x466D JUMP JUMPDEST SWAP1 POP SWAP3 SWAP2 POP POP JUMP JUMPDEST PUSH1 0x0 PUSH1 0x20 DUP3 ADD SWAP1 POP PUSH2 0x4B3B PUSH1 0x0 DUP4 ADD DUP5 PUSH2 0x47FB JUMP JUMPDEST SWAP3 SWAP2 POP POP JUMP JUMPDEST PUSH1 0x0 PUSH2 0x4B4B PUSH2 0x4B5C JUMP JUMPDEST SWAP1 POP PUSH2 0x4B57 DUP3 DUP3 PUSH2 0x4F28 JUMP JUMPDEST SWAP2 SWAP1 POP JUMP JUMPDEST PUSH1 0x0 PUSH1 0x40 MLOAD SWAP1 POP SWAP1 JUMP JUMPDEST PUSH1 0x0 PUSH8 0xFFFFFFFFFFFFFFFF DUP3 GT ISZERO PUSH2 0x4B81 JUMPI PUSH2 0x4B80 PUSH2 0x502F JUMP JUMPDEST JUMPDEST PUSH1 0x20 DUP3 MUL SWAP1 POP PUSH1 0x20 DUP2 ADD SWAP1 POP SWAP2 SWAP1 POP JUMP JUMPDEST PUSH1 0x0 PUSH8 0xFFFFFFFFFFFFFFFF DUP3 GT ISZERO PUSH2 0x4BAD JUMPI PUSH2 0x4BAC PUSH2 0x502F JUMP JUMPDEST JUMPDEST PUSH2 0x4BB6 DUP3 PUSH2 0x505E JUMP JUMPDEST SWAP1 POP PUSH1 0x20 DUP2 ADD SWAP1 POP SWAP2 SWAP1 POP JUMP JUMPDEST PUSH1 0x0 DUP2 SWAP1 POP PUSH1 0x20 DUP3 ADD SWAP1 POP SWAP2 SWAP1 POP JUMP JUMPDEST PUSH1 0x0 DUP2 SWAP1 POP DUP2 PUSH1 0x0 MSTORE PUSH1 0x20 PUSH1 0x0 KECCAK256 SWAP1 POP SWAP2 SWAP1 POP JUMP JUMPDEST PUSH1 0x0 DUP2 MLOAD SWAP1 POP SWAP2 SWAP1 POP JUMP JUMPDEST PUSH1 0x0 DUP2 MLOAD SWAP1 POP SWAP2 SWAP1 POP JUMP JUMPDEST PUSH1 0x0 PUSH1 0x20 DUP3 ADD SWAP1 POP SWAP2 SWAP1 POP JUMP JUMPDEST PUSH1 0x0 DUP3 DUP3 MSTORE PUSH1 0x20 DUP3 ADD SWAP1 POP SWAP3 SWAP2 POP POP JUMP JUMPDEST PUSH1 0x0 DUP3 DUP3 MSTORE PUSH1 0x20 DUP3 ADD SWAP1 POP SWAP3 SWAP2 POP POP JUMP JUMPDEST PUSH1 0x0 DUP3 DUP3 MSTORE PUSH1 0x20 DUP3 ADD SWAP1 POP SWAP3 SWAP2 POP POP JUMP JUMPDEST PUSH1 0x0 PUSH2 0x4C49 DUP3 PUSH2 0x4D87 JUMP JUMPDEST SWAP2 POP PUSH2 0x4C54 DUP4 PUSH2 0x4D87 JUMP JUMPDEST SWAP3 POP DUP3 PUSH32 0xFFFFFFFFFFFFFFFFFFFFFFFFFFFFFFFFFFFFFFFFFFFFFFFFFFFFFFFFFFFFFFFF SUB DUP3 GT ISZERO PUSH2 0x4C89 JUMPI PUSH2 0x4C88 PUSH2 0x4FA2 JUMP JUMPDEST JUMPDEST DUP3 DUP3 ADD SWAP1 POP SWAP3 SWAP2 POP POP JUMP JUMPDEST PUSH1 0x0 PUSH2 0x4C9F DUP3 PUSH2 0x4D87 JUMP JUMPDEST SWAP2 POP PUSH2 0x4CAA DUP4 PUSH2 0x4D87 JUMP JUMPDEST SWAP3 POP DUP3 DUP3 LT ISZERO PUSH2 0x4CBD JUMPI PUSH2 0x4CBC PUSH2 0x4FA2 JUMP JUMPDEST JUMPDEST DUP3 DUP3 SUB SWAP1 POP SWAP3 SWAP2 POP POP JUMP JUMPDEST PUSH1 0x0 PUSH20 0xFFFFFFFFFFFFFFFFFFFFFFFFFFFFFFFFFFFFFFFF DUP3 AND SWAP1 POP SWAP2 SWAP1 POP JUMP JUMPDEST PUSH1 0x0 PUSH1 0xFF DUP3 AND SWAP1 POP SWAP2 SWAP1 POP JUMP JUMPDEST PUSH1 0x0 PUSH1 0xFF DUP3 AND SWAP1 POP SWAP2 SWAP1 POP JUMP JUMPDEST PUSH1 0x0 PUSH1 0xFF DUP3 AND SWAP1 POP SWAP2 SWAP1 POP JUMP JUMPDEST PUSH1 0x0 DUP2 SWAP1 POP SWAP2 SWAP1 POP JUMP JUMPDEST PUSH1 0x0 PUSH2 0x4D24 DUP3 PUSH2 0x4D67 JUMP JUMPDEST SWAP1 POP SWAP2 SWAP1 POP JUMP JUMPDEST PUSH1 0x0 DUP2 ISZERO ISZERO SWAP1 POP SWAP2 SWAP1 POP JUMP JUMPDEST PUSH1 0x0 DUP2 SWAP1 POP PUSH2 0x4D45 DUP3 PUSH2 0x5563 JUMP JUMPDEST SWAP2 SWAP1 POP JUMP JUMPDEST PUSH1 0x0 DUP2 SWAP1 POP PUSH2 0x4D58 DUP3 PUSH2 0x5577 JUMP JUMPDEST SWAP2 SWAP1 POP JUMP JUMPDEST PUSH1 0x0 DUP2 SWAP1 POP SWAP2 SWAP1 POP JUMP JUMPDEST PUSH1 0x0 PUSH20 0xFFFFFFFFFFFFFFFFFFFFFFFFFFFFFFFFFFFFFFFF DUP3 AND SWAP1 POP SWAP2 SWAP1 POP JUMP JUMPDEST PUSH1 0x0 DUP2 SWAP1 POP SWAP2 SWAP1 POP JUMP JUMPDEST PUSH1 0x0 PUSH2 0x4D9C DUP3 PUSH2 0x4D37 JUMP JUMPDEST SWAP1 POP SWAP2 SWAP1 POP JUMP JUMPDEST PUSH1 0x0 PUSH2 0x4DAE DUP3 PUSH2 0x4D4A JUMP JUMPDEST SWAP1 POP SWAP2 SWAP1 POP JUMP JUMPDEST DUP3 DUP2 DUP4 CALLDATACOPY PUSH1 0x0 DUP4 DUP4 ADD MSTORE POP POP POP JUMP JUMPDEST PUSH1 0x0 JUMPDEST DUP4 DUP2 LT ISZERO PUSH2 0x4DE2 JUMPI DUP1 DUP3 ADD MLOAD DUP2 DUP5 ADD MSTORE PUSH1 0x20 DUP2 ADD SWAP1 POP PUSH2 0x4DC7 JUMP JUMPDEST DUP4 DUP2 GT ISZERO PUSH2 0x4DF1 JUMPI PUSH1 0x0 DUP5 DUP5 ADD MSTORE JUMPDEST POP POP POP POP JUMP JUMPDEST PUSH1 0x0 PUSH2 0x4E02 DUP3 PUSH2 0x4D5D JUMP JUMPDEST SWAP2 POP PUSH32 0x8000000000000000000000000000000000000000000000000000000000000000 DUP3 EQ ISZERO PUSH2 0x4E35 JUMPI PUSH2 0x4E34 PUSH2 0x4FA2 JUMP JUMPDEST JUMPDEST PUSH1 0x1 DUP3 SUB SWAP1 POP SWAP2 SWAP1 POP JUMP JUMPDEST PUSH1 0x0 PUSH1 0x2 DUP3 DIV SWAP1 POP PUSH1 0x1 DUP3 AND DUP1 PUSH2 0x4E58 JUMPI PUSH1 0x7F DUP3 AND SWAP2 POP JUMPDEST PUSH1 0x20 DUP3 LT DUP2 EQ ISZERO PUSH2 0x4E6C JUMPI PUSH2 0x4E6B PUSH2 0x5000 JUMP JUMPDEST JUMPDEST POP SWAP2 SWAP1 POP JUMP JUMPDEST PUSH1 0x0 PUSH2 0x4E85 PUSH2 0x4E80 DUP4 PUSH2 0x506F JUMP JUMPDEST PUSH2 0x4CC8 JUMP JUMPDEST SWAP1 POP SWAP2 SWAP1 POP JUMP JUMPDEST PUSH1 0x0 PUSH2 0x4E9F PUSH2 0x4E9A DUP4 PUSH2 0x506F JUMP JUMPDEST PUSH2 0x4CE8 JUMP JUMPDEST SWAP1 POP SWAP2 SWAP1 POP JUMP JUMPDEST PUSH1 0x0 PUSH2 0x4EB9 PUSH2 0x4EB4 DUP4 PUSH2 0x506F JUMP JUMPDEST PUSH2 0x4D02 JUMP JUMPDEST SWAP1 POP SWAP2 SWAP1 POP JUMP JUMPDEST PUSH1 0x0 PUSH2 0x4ED3 PUSH2 0x4ECE DUP4 PUSH2 0x506F JUMP JUMPDEST PUSH2 0x4D0F JUMP JUMPDEST SWAP1 POP SWAP2 SWAP1 POP JUMP JUMPDEST PUSH1 0x0 PUSH2 0x4EED PUSH2 0x4EE8 DUP4 PUSH2 0x5089 JUMP JUMPDEST PUSH2 0x4CC8 JUMP JUMPDEST SWAP1 POP SWAP2 SWAP1 POP JUMP JUMPDEST PUSH1 0x0 PUSH2 0x4F07 PUSH2 0x4F02 DUP4 PUSH2 0x5089 JUMP JUMPDEST PUSH2 0x4CE8 JUMP JUMPDEST SWAP1 POP SWAP2 SWAP1 POP JUMP JUMPDEST PUSH1 0x0 PUSH2 0x4F21 PUSH2 0x4F1C DUP4 PUSH2 0x507C JUMP JUMPDEST PUSH2 0x4CF5 JUMP JUMPDEST SWAP1 POP SWAP2 SWAP1 POP JUMP JUMPDEST PUSH2 0x4F31 DUP3 PUSH2 0x505E JUMP JUMPDEST DUP2 ADD DUP2 DUP2 LT PUSH8 0xFFFFFFFFFFFFFFFF DUP3 GT OR ISZERO PUSH2 0x4F50 JUMPI PUSH2 0x4F4F PUSH2 0x502F JUMP JUMPDEST JUMPDEST DUP1 PUSH1 0x40 MSTORE POP POP POP JUMP JUMPDEST PUSH1 0x0 PUSH2 0x4F64 DUP3 PUSH2 0x4D87 JUMP JUMPDEST SWAP2 POP PUSH32 0xFFFFFFFFFFFFFFFFFFFFFFFFFFFFFFFFFFFFFFFFFFFFFFFFFFFFFFFFFFFFFFFF DUP3 EQ ISZERO PUSH2 0x4F97 JUMPI PUSH2 0x4F96 PUSH2 0x4FA2 JUMP JUMPDEST JUMPDEST PUSH1 0x1 DUP3 ADD SWAP1 POP SWAP2 SWAP1 POP JUMP JUMPDEST PUSH32 0x4E487B7100000000000000000000000000000000000000000000000000000000 PUSH1 0x0 MSTORE PUSH1 0x11 PUSH1 0x4 MSTORE PUSH1 0x24 PUSH1 0x0 REVERT JUMPDEST PUSH32 0x4E487B7100000000000000000000000000000000000000000000000000000000 PUSH1 0x0 MSTORE PUSH1 0x21 PUSH1 0x4 MSTORE PUSH1 0x24 PUSH1 0x0 REVERT JUMPDEST PUSH32 0x4E487B7100000000000000000000000000000000000000000000000000000000 PUSH1 0x0 MSTORE PUSH1 0x22 PUSH1 0x4 MSTORE PUSH1 0x24 PUSH1 0x0 REVERT JUMPDEST PUSH32 0x4E487B7100000000000000000000000000000000000000000000000000000000 PUSH1 0x0 MSTORE PUSH1 0x41 PUSH1 0x4 MSTORE PUSH1 0x24 PUSH1 0x0 REVERT JUMPDEST PUSH1 0x0 PUSH1 0x1F NOT PUSH1 0x1F DUP4 ADD AND SWAP1 POP SWAP2 SWAP1 POP JUMP JUMPDEST PUSH1 0x0 DUP2 PUSH1 0x0 SHR SWAP1 POP SWAP2 SWAP1 POP JUMP JUMPDEST PUSH1 0x0 DUP2 PUSH1 0xA0 SHR SWAP1 POP SWAP2 SWAP1 POP JUMP JUMPDEST PUSH1 0x0 DUP2 PUSH1 0x8 SHR SWAP1 POP SWAP2 SWAP1 POP JUMP JUMPDEST PUSH32 0x416374696F6E2063616E206E6F7420626520706572666F726D65642062792074 PUSH1 0x0 DUP3 ADD MSTORE PUSH32 0x686520636C69656E742121000000000000000000000000000000000000000000 PUSH1 0x20 DUP3 ADD MSTORE POP JUMP JUMPDEST PUSH32 0x5472616E73616374696F6E206661696C65642E00000000000000000000000000 PUSH1 0x0 DUP3 ADD MSTORE POP JUMP JUMPDEST PUSH32 0x4167656E7420666565207472616E73666572206661696C65642E000000000000 PUSH1 0x0 DUP3 ADD MSTORE POP JUMP JUMPDEST PUSH32 0x596F7520646F6E2774206861766520656E6F756768206355534420746F206163 PUSH1 0x0 DUP3 ADD MSTORE PUSH32 0x63657074207468697320726571756573742E0000000000000000000000000000 PUSH1 0x20 DUP3 ADD MSTORE POP JUMP JUMPDEST PUSH32 0x416374696F6E2063616E206F6E6C7920626520706572666F726D656420627920 PUSH1 0x0 DUP3 ADD MSTORE PUSH32 0x74686520636C69656E7421210000000000000000000000000000000000000000 PUSH1 0x20 DUP3 ADD MSTORE POP JUMP JUMPDEST PUSH32 0x5472616E73616374696F6E206973206E6F74206177616974696E6720636F6E66 PUSH1 0x0 DUP3 ADD MSTORE PUSH32 0x69726D6174696F6E2066726F6D20616E796F6E652E0000000000000000000000 PUSH1 0x20 DUP3 ADD MSTORE POP JUMP JUMPDEST PUSH32 0x5472616E73616374696F6E20666565207472616E73666572206661696C65642E PUSH1 0x0 DUP3 ADD MSTORE POP JUMP JUMPDEST PUSH32 0x5472616E73616374696F6E20616C72656164792070616972656420746F20616E PUSH1 0x0 DUP3 ADD MSTORE PUSH32 0x206167656E742121000000000000000000000000000000000000000000000000 PUSH1 0x20 DUP3 ADD MSTORE POP JUMP JUMPDEST PUSH32 0x4167656E7420616C726561647920636F6E6669726D6564207061796D656E7421 PUSH1 0x0 DUP3 ADD MSTORE PUSH32 0x2100000000000000000000000000000000000000000000000000000000000000 PUSH1 0x20 DUP3 ADD MSTORE POP JUMP JUMPDEST PUSH32 0x436C69656E7420616C726561647920636F6E6669726D6564207061796D656E74 PUSH1 0x0 DUP3 ADD MSTORE PUSH32 0x2121000000000000000000000000000000000000000000000000000000000000 PUSH1 0x20 DUP3 ADD MSTORE POP JUMP JUMPDEST PUSH32 0x416374696F6E2063616E206F6E6C7920626520706572666F726D656420627920 PUSH1 0x0 DUP3 ADD MSTORE PUSH32 0x746865206167656E740000000000000000000000000000000000000000000000 PUSH1 0x20 DUP3 ADD MSTORE POP JUMP JUMPDEST PUSH32 0x416374696F6E2063616E206F6E6C7920626520706572666F726D656420666F72 PUSH1 0x0 DUP3 ADD MSTORE PUSH32 0x206465706F736974207472616E73616374696F6E73206F6E6C79212100000000 PUSH1 0x20 DUP3 ADD MSTORE POP JUMP JUMPDEST PUSH32 0x416D6F756E7420746F206465706F736974206D75737420626520677265617465 PUSH1 0x0 DUP3 ADD MSTORE PUSH32 0x72207468616E20302E0000000000000000000000000000000000000000000000 PUSH1 0x20 DUP3 ADD MSTORE POP JUMP JUMPDEST PUSH32 0x416374696F6E2063616E206F6E6C7920626520706572666F726D656420666F72 PUSH1 0x0 DUP3 ADD MSTORE PUSH32 0x207769746864726177616C207472616E73616374696F6E73206F6E6C79212100 PUSH1 0x20 DUP3 ADD MSTORE POP JUMP JUMPDEST PUSH32 0x4F6E6C792074686520696E766F6C76656420706172746965732063616E206669 PUSH1 0x0 DUP3 ADD MSTORE PUSH32 0x6E616C697A6520746865207472616E73616374696F6E2E212100000000000000 PUSH1 0x20 DUP3 ADD MSTORE POP JUMP JUMPDEST PUSH32 0x5472616E73616374696F6E206E6F742079657420636F6E6669726D6564206279 PUSH1 0x0 DUP3 ADD MSTORE PUSH32 0x20626F7468207061727469657321210000000000000000000000000000000000 PUSH1 0x20 DUP3 ADD MSTORE POP JUMP JUMPDEST PUSH32 0x596F75722062616C616E6365206D757374206265206772656174657220746861 PUSH1 0x0 DUP3 ADD MSTORE PUSH32 0x6E20746865207472616E73616374696F6E2067726F737320616D6F756E742E00 PUSH1 0x20 DUP3 ADD MSTORE POP JUMP JUMPDEST PUSH1 0x5 DUP2 LT PUSH2 0x5574 JUMPI PUSH2 0x5573 PUSH2 0x4FD1 JUMP JUMPDEST JUMPDEST POP JUMP JUMPDEST PUSH1 0x2 DUP2 LT PUSH2 0x5588 JUMPI PUSH2 0x5587 PUSH2 0x4FD1 JUMP JUMPDEST JUMPDEST POP JUMP JUMPDEST PUSH2 0x5594 DUP2 PUSH2 0x4D19 JUMP JUMPDEST DUP2 EQ PUSH2 0x559F JUMPI PUSH1 0x0 DUP1 REVERT JUMPDEST POP JUMP JUMPDEST PUSH2 0x55AB DUP2 PUSH2 0x4D2B JUMP JUMPDEST DUP2 EQ PUSH2 0x55B6 JUMPI PUSH1 0x0 DUP1 REVERT JUMPDEST POP JUMP JUMPDEST PUSH1 0x5 DUP2 LT PUSH2 0x55C6 JUMPI PUSH1 0x0 DUP1 REVERT JUMPDEST POP JUMP JUMPDEST PUSH1 0x2 DUP2 LT PUSH2 0x55D6 JUMPI PUSH1 0x0 DUP1 REVERT JUMPDEST POP JUMP JUMPDEST PUSH2 0x55E2 DUP2 PUSH2 0x4D87 JUMP JUMPDEST DUP2 EQ PUSH2 0x55ED JUMPI PUSH1 0x0 DUP1 REVERT JUMPDEST POP JUMP INVALID LOG2 PUSH5 0x6970667358 0x22 SLT KECCAK256 0xCD REVERT 0xAE PUSH19 0xA17181EE996387CD3EA666924904123D5F5C22 0xB7 STOP PUSH23 0xAFB17D1A06DC64736F6C63430008040033000000000000 "},"methodIdentifiers":{"agentAcceptDepositTransaction(uint256,string)":"f6b5d658","agentAcceptWithdrawalTransaction(uint256,string)":"30a9de62","agentConfirmPayment(uint256)":"6a54c620","clientConfirmPayment(uint256)":"bcc9b5ad","countSuccessfulTransactions()":"50b8a90a","finalizeTransaction(uint256)":"4a57e1c9","getAgentFee()":"6e5f147d","getMyTransactions(uint256,uint256,uint8[],address)":"fda2789e","getNashFee()":"954bbb8b","getNextTransactionIndex()":"25322bd2","getNextUnpairedTransaction(uint256)":"91b8f099","getTransactionByIndex(uint256)":"869152e7","getTransactions(uint256,uint256,uint8)":"d677d86d","initializeDepositTransaction(uint256,string)":"3f3bf8d4","initializeWithdrawalTransaction(uint256,string)":"de22287e","isTxInStatus((uint256,uint8,address,address,uint8,uint256,uint256,uint256,uint256,bool,bool,string,string),uint8[])":"ba1005d9"}}}}}