{
  "_format": "hh-sol-artifact-1",
  "contractName": "cUSD",
  "sourceName": "contracts/cUSD.sol",
  "abi": [
    {
      "inputs": [
        {
          "internalType": "uint256",
          "name": "initialSupply",
          "type": "uint256"
        },
        {
          "internalType": "string",
          "name": "tokenName",
          "type": "string"
        },
        {
          "internalType": "uint8",
          "name": "decimalUnits",
          "type": "uint8"
        },
        {
          "internalType": "string",
          "name": "tokenSymbol",
          "type": "string"
        }
      ],
      "stateMutability": "nonpayable",
      "type": "constructor"
    },
    {
      "anonymous": false,
      "inputs": [
        {
          "indexed": true,
          "internalType": "address",
          "name": "owner",
          "type": "address"
        },
        {
          "indexed": true,
          "internalType": "address",
          "name": "spender",
          "type": "address"
        },
        {
          "indexed": false,
          "internalType": "uint256",
          "name": "value",
          "type": "uint256"
        }
      ],
      "name": "Approval",
      "type": "event"
    },
    {
      "anonymous": false,
      "inputs": [
        {
          "indexed": false,
          "internalType": "uint256",
          "name": "amount",
          "type": "uint256"
        }
      ],
      "name": "Burn",
      "type": "event"
    },
    {
      "anonymous": false,
      "inputs": [
        {
          "indexed": true,
          "internalType": "address",
          "name": "to",
          "type": "address"
        },
        {
          "indexed": false,
          "internalType": "uint256",
          "name": "amount",
          "type": "uint256"
        }
      ],
      "name": "Mint",
      "type": "event"
    },
    {
      "anonymous": false,
      "inputs": [],
      "name": "MintingFinished",
      "type": "event"
    },
    {
      "anonymous": false,
      "inputs": [
        {
          "indexed": true,
          "internalType": "address",
          "name": "previousOwner",
          "type": "address"
        },
        {
          "indexed": true,
          "internalType": "address",
          "name": "newOwner",
          "type": "address"
        }
      ],
      "name": "OwnershipTransferred",
      "type": "event"
    },
    {
      "anonymous": false,
      "inputs": [
        {
          "indexed": true,
          "internalType": "address",
          "name": "from",
          "type": "address"
        },
        {
          "indexed": true,
          "internalType": "address",
          "name": "to",
          "type": "address"
        },
        {
          "indexed": false,
          "internalType": "uint256",
          "name": "value",
          "type": "uint256"
        }
      ],
      "name": "Transfer",
      "type": "event"
    },
    {
      "inputs": [
        {
          "internalType": "address",
          "name": "",
          "type": "address"
        },
        {
          "internalType": "address",
          "name": "",
          "type": "address"
        }
      ],
      "name": "allowance",
      "outputs": [
        {
          "internalType": "uint256",
          "name": "",
          "type": "uint256"
        }
      ],
      "stateMutability": "view",
      "type": "function"
    },
    {
      "inputs": [
        {
          "internalType": "address",
          "name": "_spender",
          "type": "address"
        },
        {
          "internalType": "uint256",
          "name": "_value",
          "type": "uint256"
        }
      ],
      "name": "approve",
      "outputs": [
        {
          "internalType": "bool",
          "name": "success",
          "type": "bool"
        }
      ],
      "stateMutability": "nonpayable",
      "type": "function"
    },
    {
      "inputs": [
        {
          "internalType": "address",
          "name": "",
          "type": "address"
        }
      ],
      "name": "balanceOf",
      "outputs": [
        {
          "internalType": "uint256",
          "name": "",
          "type": "uint256"
        }
      ],
      "stateMutability": "view",
      "type": "function"
    },
    {
      "inputs": [
        {
          "internalType": "uint256",
          "name": "_amount",
          "type": "uint256"
        }
      ],
      "name": "burn",
      "outputs": [],
      "stateMutability": "nonpayable",
      "type": "function"
    },
    {
      "inputs": [],
      "name": "creator",
      "outputs": [
        {
          "internalType": "address",
          "name": "",
          "type": "address"
        }
      ],
      "stateMutability": "view",
      "type": "function"
    },
    {
      "inputs": [],
      "name": "decimals",
      "outputs": [
        {
          "internalType": "uint8",
          "name": "",
          "type": "uint8"
        }
      ],
      "stateMutability": "view",
      "type": "function"
    },
    {
      "inputs": [],
      "name": "destroyer",
      "outputs": [
        {
          "internalType": "address",
          "name": "",
          "type": "address"
        }
      ],
      "stateMutability": "view",
      "type": "function"
    },
    {
      "inputs": [],
      "name": "finishMinting",
      "outputs": [
        {
          "internalType": "bool",
          "name": "",
          "type": "bool"
        }
      ],
      "stateMutability": "nonpayable",
      "type": "function"
    },
    {
      "inputs": [
        {
          "internalType": "address",
          "name": "_to",
          "type": "address"
        },
        {
          "internalType": "uint256",
          "name": "_amount",
          "type": "uint256"
        }
      ],
      "name": "mint",
      "outputs": [
        {
          "internalType": "bool",
          "name": "",
          "type": "bool"
        }
      ],
      "stateMutability": "nonpayable",
      "type": "function"
    },
    {
      "inputs": [],
      "name": "mintingFinished",
      "outputs": [
        {
          "internalType": "bool",
          "name": "",
          "type": "bool"
        }
      ],
      "stateMutability": "view",
      "type": "function"
    },
    {
      "inputs": [
        {
          "internalType": "address[]",
          "name": "_receivers",
          "type": "address[]"
        },
        {
          "internalType": "uint256[]",
          "name": "_values",
          "type": "uint256[]"
        }
      ],
      "name": "multiTransfer",
      "outputs": [
        {
          "internalType": "bool",
          "name": "success",
          "type": "bool"
        }
      ],
      "stateMutability": "nonpayable",
      "type": "function"
    },
    {
      "inputs": [
        {
          "internalType": "address[]",
          "name": "_receivers",
          "type": "address[]"
        },
        {
          "internalType": "uint256",
          "name": "_value",
          "type": "uint256"
        }
      ],
      "name": "multiTransferSingleValue",
      "outputs": [
        {
          "internalType": "bool",
          "name": "success",
          "type": "bool"
        }
      ],
      "stateMutability": "nonpayable",
      "type": "function"
    },
    {
      "inputs": [],
      "name": "name",
      "outputs": [
        {
          "internalType": "string",
          "name": "",
          "type": "string"
        }
      ],
      "stateMutability": "view",
      "type": "function"
    },
    {
      "inputs": [],
      "name": "owner",
      "outputs": [
        {
          "internalType": "address",
          "name": "",
          "type": "address"
        }
      ],
      "stateMutability": "view",
      "type": "function"
    },
    {
      "inputs": [
        {
          "internalType": "address",
          "name": "_creator",
          "type": "address"
        }
      ],
      "name": "setCreator",
      "outputs": [],
      "stateMutability": "nonpayable",
      "type": "function"
    },
    {
      "inputs": [
        {
          "internalType": "address",
          "name": "_destroyer",
          "type": "address"
        }
      ],
      "name": "setDestroyer",
      "outputs": [],
      "stateMutability": "nonpayable",
      "type": "function"
    },
    {
      "inputs": [],
      "name": "symbol",
      "outputs": [
        {
          "internalType": "string",
          "name": "",
          "type": "string"
        }
      ],
      "stateMutability": "view",
      "type": "function"
    },
    {
      "inputs": [],
      "name": "totalSupply",
      "outputs": [
        {
          "internalType": "uint256",
          "name": "",
          "type": "uint256"
        }
      ],
      "stateMutability": "view",
      "type": "function"
    },
    {
      "inputs": [
        {
          "internalType": "address",
          "name": "_to",
          "type": "address"
        },
        {
          "internalType": "uint256",
          "name": "_value",
          "type": "uint256"
        }
      ],
      "name": "transfer",
      "outputs": [
        {
          "internalType": "bool",
          "name": "success",
          "type": "bool"
        }
      ],
      "stateMutability": "nonpayable",
      "type": "function"
    },
    {
      "inputs": [
        {
          "internalType": "address",
          "name": "_from",
          "type": "address"
        },
        {
          "internalType": "address",
          "name": "_to",
          "type": "address"
        },
        {
          "internalType": "uint256",
          "name": "_value",
          "type": "uint256"
        }
      ],
      "name": "transferFrom",
      "outputs": [
        {
          "internalType": "bool",
          "name": "success",
          "type": "bool"
        }
      ],
      "stateMutability": "nonpayable",
      "type": "function"
    },
    {
      "inputs": [
        {
          "internalType": "address",
          "name": "newOwner",
          "type": "address"
        }
      ],
      "name": "transferOwnership",
      "outputs": [],
      "stateMutability": "nonpayable",
      "type": "function"
    }
  ],
  "bytecode": "0x60806040526000600760006101000a81548160ff0219169083151502179055503480156200002c57600080fd5b5060405162002d9338038062002d93833981810160405281019062000052919062000285565b83600560003373ffffffffffffffffffffffffffffffffffffffff1673ffffffffffffffffffffffffffffffffffffffff16815260200190815260200160002081905550836003819055508260009080519060200190620000b592919062000135565b508060019080519060200190620000ce92919062000135565b5081600260006101000a81548160ff021916908360ff16021790555033600460006101000a81548173ffffffffffffffffffffffffffffffffffffffff021916908373ffffffffffffffffffffffffffffffffffffffff16021790555050505050620004de565b8280546200014390620003cf565b90600052602060002090601f016020900481019282620001675760008555620001b3565b82601f106200018257805160ff1916838001178555620001b3565b82800160010185558215620001b3579182015b82811115620001b257825182559160200191906001019062000195565b5b509050620001c29190620001c6565b5090565b5b80821115620001e1576000816000905550600101620001c7565b5090565b6000620001fc620001f6846200034c565b62000323565b9050828152602081018484840111156200021557600080fd5b6200022284828562000399565b509392505050565b600082601f8301126200023c57600080fd5b81516200024e848260208601620001e5565b91505092915050565b6000815190506200026881620004aa565b92915050565b6000815190506200027f81620004c4565b92915050565b600080600080608085870312156200029c57600080fd5b6000620002ac8782880162000257565b945050602085015167ffffffffffffffff811115620002ca57600080fd5b620002d8878288016200022a565b9350506040620002eb878288016200026e565b925050606085015167ffffffffffffffff8111156200030957600080fd5b62000317878288016200022a565b91505092959194509250565b60006200032f62000342565b90506200033d828262000405565b919050565b6000604051905090565b600067ffffffffffffffff8211156200036a57620003696200046a565b5b620003758262000499565b9050602081019050919050565b6000819050919050565b600060ff82169050919050565b60005b83811015620003b95780820151818401526020810190506200039c565b83811115620003c9576000848401525b50505050565b60006002820490506001821680620003e857607f821691505b60208210811415620003ff57620003fe6200043b565b5b50919050565b620004108262000499565b810181811067ffffffffffffffff821117156200043257620004316200046a565b5b80604052505050565b7f4e487b7100000000000000000000000000000000000000000000000000000000600052602260045260246000fd5b7f4e487b7100000000000000000000000000000000000000000000000000000000600052604160045260246000fd5b6000601f19601f8301169050919050565b620004b58162000382565b8114620004c157600080fd5b50565b620004cf816200038c565b8114620004db57600080fd5b50565b6128a580620004ee6000396000f3fe608060405234801561001057600080fd5b50600436106101375760003560e01c806340c10f19116100b85780637d64bcb41161007c5780637d64bcb4146103645780638da5cb5b1461038257806395d89b41146103a0578063a9059cbb146103be578063dd62ed3e146103ee578063f2fde38b1461041e57610137565b806340c10f191461029c57806342966c68146102cc5780635e1648cb146102e85780636a7301b81461031857806370a082311461033457610137565b806318160ddd116100ff57806318160ddd146101e45780631e89d5451461020257806323b872dd14610232578063313ce567146102625780633f5160181461028057610137565b806302d05d3f1461013c57806305d2035b1461015a57806306fdde0314610178578063095ea7b31461019657806311367b26146101c6575b600080fd5b61014461043a565b604051610151919061218a565b60405180910390f35b610162610460565b60405161016f91906121a5565b60405180910390f35b610180610473565b60405161018d91906121c0565b60405180910390f35b6101b060048036038101906101ab9190611e92565b610501565b6040516101bd91906121a5565b60405180910390f35b6101ce610635565b6040516101db919061218a565b60405180910390f35b6101ec61065b565b6040516101f99190612322565b60405180910390f35b61021c60048036038101906102179190611ece565b610661565b60405161022991906121a5565b60405180910390f35b61024c60048036038101906102479190611e43565b61075d565b60405161025991906121a5565b60405180910390f35b61026a610cab565b604051610277919061233d565b60405180910390f35b61029a60048036038101906102959190611dde565b610cbe565b005b6102b660048036038101906102b19190611e92565b610dcc565b6040516102c391906121a5565b60405180910390f35b6102e660048036038101906102e19190611f8e565b611058565b005b61030260048036038101906102fd9190611f3a565b611248565b60405161030f91906121a5565b60405180910390f35b610332600480360381019061032d9190611dde565b611317565b005b61034e60048036038101906103499190611dde565b611425565b60405161035b9190612322565b60405180910390f35b61036c61143d565b60405161037991906121a5565b60405180910390f35b61038a6114e7565b604051610397919061218a565b60405180910390f35b6103a861150d565b6040516103b591906121c0565b60405180910390f35b6103d860048036038101906103d39190611e92565b61159b565b6040516103e591906121a5565b60405180910390f35b61040860048036038101906104039190611e07565b611aac565b6040516104159190612322565b60405180910390f35b61043860048036038101906104339190611dde565b611ad1565b005b600760019054906101000a900473ffffffffffffffffffffffffffffffffffffffff1681565b600760009054906101000a900460ff1681565b600080546104809061255d565b80601f01602080910402602001604051908101604052809291908181526020018280546104ac9061255d565b80156104f95780601f106104ce576101008083540402835291602001916104f9565b820191906000526020600020905b8154815290600101906020018083116104dc57829003601f168201915b505050505081565b6000808211610545576040517f08c379a000000000000000000000000000000000000000000000000000000000815260040161053c90612302565b60405180910390fd5b81600660003373ffffffffffffffffffffffffffffffffffffffff1673ffffffffffffffffffffffffffffffffffffffff16815260200190815260200160002060008573ffffffffffffffffffffffffffffffffffffffff1673ffffffffffffffffffffffffffffffffffffffff168152602001908152602001600020819055508273ffffffffffffffffffffffffffffffffffffffff163373ffffffffffffffffffffffffffffffffffffffff167f8c5be1e5ebec7d5bd14f71427d1e84f3dd0314c0f7b2291e5b200ac8c7c3b925846040516106239190612322565b60405180910390a36001905092915050565b600860009054906101000a900473ffffffffffffffffffffffffffffffffffffffff1681565b60035481565b600060c8835111156106a8576040517f08c379a000000000000000000000000000000000000000000000000000000000815260040161069f90612262565b60405180910390fd5b60005b83518110156107525761073e8482815181106106f0577f4e487b7100000000000000000000000000000000000000000000000000000000600052603260045260246000fd5b6020026020010151848381518110610731577f4e487b7100000000000000000000000000000000000000000000000000000000600052603260045260246000fd5b602002602001015161159b565b50808061074a906125c0565b9150506106ab565b506001905092915050565b60008073ffffffffffffffffffffffffffffffffffffffff168373ffffffffffffffffffffffffffffffffffffffff1614156107ce576040517f08c379a00000000000000000000000000000000000000000000000000000000081526004016107c5906122c2565b60405180910390fd5b60008211610811576040517f08c379a000000000000000000000000000000000000000000000000000000000815260040161080890612242565b60405180910390fd5b81600560008673ffffffffffffffffffffffffffffffffffffffff1673ffffffffffffffffffffffffffffffffffffffff168152602001908152602001600020541015610893576040517f08c379a000000000000000000000000000000000000000000000000000000000815260040161088a90612202565b60405180910390fd5b600560008473ffffffffffffffffffffffffffffffffffffffff1673ffffffffffffffffffffffffffffffffffffffff1681526020019081526020016000205482600560008673ffffffffffffffffffffffffffffffffffffffff1673ffffffffffffffffffffffffffffffffffffffff1681526020019081526020016000205461091e91906123f1565b1161095e576040517f08c379a0000000000000000000000000000000000000000000000000000000008152600401610955906122a2565b60405180910390fd5b600660008573ffffffffffffffffffffffffffffffffffffffff1673ffffffffffffffffffffffffffffffffffffffff16815260200190815260200160002060003373ffffffffffffffffffffffffffffffffffffffff1673ffffffffffffffffffffffffffffffffffffffff16815260200190815260200160002054821115610a1d576040517f08c379a0000000000000000000000000000000000000000000000000000000008152600401610a14906122e2565b60405180910390fd5b610a66600560008673ffffffffffffffffffffffffffffffffffffffff1673ffffffffffffffffffffffffffffffffffffffff1681526020019081526020016000205483611bcb565b600560008673ffffffffffffffffffffffffffffffffffffffff1673ffffffffffffffffffffffffffffffffffffffff16815260200190815260200160002081905550610af2600560008573ffffffffffffffffffffffffffffffffffffffff1673ffffffffffffffffffffffffffffffffffffffff1681526020019081526020016000205483611c2a565b600560008573ffffffffffffffffffffffffffffffffffffffff1673ffffffffffffffffffffffffffffffffffffffff16815260200190815260200160002081905550610bbb600660008673ffffffffffffffffffffffffffffffffffffffff1673ffffffffffffffffffffffffffffffffffffffff16815260200190815260200160002060003373ffffffffffffffffffffffffffffffffffffffff1673ffffffffffffffffffffffffffffffffffffffff1681526020019081526020016000205483611bcb565b600660008673ffffffffffffffffffffffffffffffffffffffff1673ffffffffffffffffffffffffffffffffffffffff16815260200190815260200160002060003373ffffffffffffffffffffffffffffffffffffffff1673ffffffffffffffffffffffffffffffffffffffff168152602001908152602001600020819055508273ffffffffffffffffffffffffffffffffffffffff168473ffffffffffffffffffffffffffffffffffffffff167fddf252ad1be2c89b69c2b068fc378daa952ba7f163c4a11628f55a4df523b3ef84604051610c989190612322565b60405180910390a3600190509392505050565b600260009054906101000a900460ff1681565b600460009054906101000a900473ffffffffffffffffffffffffffffffffffffffff1673ffffffffffffffffffffffffffffffffffffffff163373ffffffffffffffffffffffffffffffffffffffff1614610d1857600080fd5b600073ffffffffffffffffffffffffffffffffffffffff168173ffffffffffffffffffffffffffffffffffffffff161415610d88576040517f08c379a0000000000000000000000000000000000000000000000000000000008152600401610d7f906122c2565b60405180910390fd5b80600760016101000a81548173ffffffffffffffffffffffffffffffffffffffff021916908373ffffffffffffffffffffffffffffffffffffffff16021790555050565b6000600760019054906101000a900473ffffffffffffffffffffffffffffffffffffffff1673ffffffffffffffffffffffffffffffffffffffff163373ffffffffffffffffffffffffffffffffffffffff1614610e2857600080fd5b600760009054906101000a900460ff1615610e4257600080fd5b600073ffffffffffffffffffffffffffffffffffffffff168373ffffffffffffffffffffffffffffffffffffffff161415610eb2576040517f08c379a0000000000000000000000000000000000000000000000000000000008152600401610ea9906122c2565b60405180910390fd5b600560008473ffffffffffffffffffffffffffffffffffffffff1673ffffffffffffffffffffffffffffffffffffffff1681526020019081526020016000205482600560008673ffffffffffffffffffffffffffffffffffffffff1673ffffffffffffffffffffffffffffffffffffffff16815260200190815260200160002054610f3d91906123f1565b11610f4757600080fd5b60035482600354610f5891906123f1565b11610f6257600080fd5b610f6e60035483611c2a565b600381905550610fbd600560008573ffffffffffffffffffffffffffffffffffffffff1673ffffffffffffffffffffffffffffffffffffffff1681526020019081526020016000205483611c2a565b600560008573ffffffffffffffffffffffffffffffffffffffff1673ffffffffffffffffffffffffffffffffffffffff168152602001908152602001600020819055508273ffffffffffffffffffffffffffffffffffffffff167f0f6798a560793a54c3bcfe86a93cde1e73087d944c0ea20544137d4121396885836040516110469190612322565b60405180910390a26001905092915050565b600860009054906101000a900473ffffffffffffffffffffffffffffffffffffffff1673ffffffffffffffffffffffffffffffffffffffff163373ffffffffffffffffffffffffffffffffffffffff16146110b257600080fd5b8060056000600860009054906101000a900473ffffffffffffffffffffffffffffffffffffffff1673ffffffffffffffffffffffffffffffffffffffff1673ffffffffffffffffffffffffffffffffffffffff16815260200190815260200160002054101580156111235750600081115b61112c57600080fd5b61119760056000600860009054906101000a900473ffffffffffffffffffffffffffffffffffffffff1673ffffffffffffffffffffffffffffffffffffffff1673ffffffffffffffffffffffffffffffffffffffff1681526020019081526020016000205482611bcb565b60056000600860009054906101000a900473ffffffffffffffffffffffffffffffffffffffff1673ffffffffffffffffffffffffffffffffffffffff1673ffffffffffffffffffffffffffffffffffffffff1681526020019081526020016000208190555061120860035482611bcb565b6003819055507fb90306ad06b2a6ff86ddc9327db583062895ef6540e62dc50add009db5b356eb8160405161123d9190612322565b60405180910390a150565b600080620f42408361125a9190612447565b905060c8845111156112a1576040517f08c379a000000000000000000000000000000000000000000000000000000000815260040161129890612262565b60405180910390fd5b60005b845181101561130b576112f78582815181106112e9577f4e487b7100000000000000000000000000000000000000000000000000000000600052603260045260246000fd5b60200260200101518361159b565b508080611303906125c0565b9150506112a4565b50600191505092915050565b600460009054906101000a900473ffffffffffffffffffffffffffffffffffffffff1673ffffffffffffffffffffffffffffffffffffffff163373ffffffffffffffffffffffffffffffffffffffff161461137157600080fd5b600073ffffffffffffffffffffffffffffffffffffffff168173ffffffffffffffffffffffffffffffffffffffff1614156113e1576040517f08c379a00000000000000000000000000000000000000000000000000000000081526004016113d8906122c2565b60405180910390fd5b80600860006101000a81548173ffffffffffffffffffffffffffffffffffffffff021916908373ffffffffffffffffffffffffffffffffffffffff16021790555050565b60056020528060005260406000206000915090505481565b6000600760019054906101000a900473ffffffffffffffffffffffffffffffffffffffff1673ffffffffffffffffffffffffffffffffffffffff163373ffffffffffffffffffffffffffffffffffffffff161461149957600080fd5b6001600760006101000a81548160ff0219169083151502179055507fb828d9b5c78095deeeeff2eca2e5d4fe046ce3feb4c99702624a3fd384ad2dbc60405160405180910390a16001905090565b600460009054906101000a900473ffffffffffffffffffffffffffffffffffffffff1681565b6001805461151a9061255d565b80601f01602080910402602001604051908101604052809291908181526020018280546115469061255d565b80156115935780601f1061156857610100808354040283529160200191611593565b820191906000526020600020905b81548152906001019060200180831161157657829003601f168201915b505050505081565b60003073ffffffffffffffffffffffffffffffffffffffff168373ffffffffffffffffffffffffffffffffffffffff1614156115d657600080fd5b600073ffffffffffffffffffffffffffffffffffffffff168373ffffffffffffffffffffffffffffffffffffffff161415611646576040517f08c379a000000000000000000000000000000000000000000000000000000000815260040161163d906122c2565b60405180910390fd5b60008211611689576040517f08c379a000000000000000000000000000000000000000000000000000000000815260040161168090612242565b60405180910390fd5b81600560003373ffffffffffffffffffffffffffffffffffffffff1673ffffffffffffffffffffffffffffffffffffffff16815260200190815260200160002054101561170b576040517f08c379a000000000000000000000000000000000000000000000000000000000815260040161170290612202565b60405180910390fd5b600560008473ffffffffffffffffffffffffffffffffffffffff1673ffffffffffffffffffffffffffffffffffffffff1681526020019081526020016000205482600560008673ffffffffffffffffffffffffffffffffffffffff1673ffffffffffffffffffffffffffffffffffffffff1681526020019081526020016000205461179691906123f1565b10156117d7576040517f08c379a00000000000000000000000000000000000000000000000000000000081526004016117ce906121e2565b60405180910390fd5b6000600560008573ffffffffffffffffffffffffffffffffffffffff1673ffffffffffffffffffffffffffffffffffffffff16815260200190815260200160002054600560003373ffffffffffffffffffffffffffffffffffffffff1673ffffffffffffffffffffffffffffffffffffffff1681526020019081526020016000205461186391906123f1565b90506118ae600560003373ffffffffffffffffffffffffffffffffffffffff1673ffffffffffffffffffffffffffffffffffffffff1681526020019081526020016000205484611bcb565b600560003373ffffffffffffffffffffffffffffffffffffffff1673ffffffffffffffffffffffffffffffffffffffff1681526020019081526020016000208190555061193a600560008673ffffffffffffffffffffffffffffffffffffffff1673ffffffffffffffffffffffffffffffffffffffff1681526020019081526020016000205484611c2a565b600560008673ffffffffffffffffffffffffffffffffffffffff1673ffffffffffffffffffffffffffffffffffffffff168152602001908152602001600020819055508373ffffffffffffffffffffffffffffffffffffffff163373ffffffffffffffffffffffffffffffffffffffff167fddf252ad1be2c89b69c2b068fc378daa952ba7f163c4a11628f55a4df523b3ef856040516119da9190612322565b60405180910390a380600560008673ffffffffffffffffffffffffffffffffffffffff1673ffffffffffffffffffffffffffffffffffffffff16815260200190815260200160002054600560003373ffffffffffffffffffffffffffffffffffffffff1673ffffffffffffffffffffffffffffffffffffffff16815260200190815260200160002054611a6d91906123f1565b14611aa1577f4e487b7100000000000000000000000000000000000000000000000000000000600052600160045260246000fd5b600191505092915050565b6006602052816000526040600020602052806000526040600020600091509150505481565b600073ffffffffffffffffffffffffffffffffffffffff168173ffffffffffffffffffffffffffffffffffffffff161415611b0b57600080fd5b8073ffffffffffffffffffffffffffffffffffffffff16600460009054906101000a900473ffffffffffffffffffffffffffffffffffffffff1673ffffffffffffffffffffffffffffffffffffffff167f8be0079c531659141344cd1fd0a4f28419497f9722a3daafe3b4186f6b6457e060405160405180910390a380600460006101000a81548173ffffffffffffffffffffffffffffffffffffffff021916908373ffffffffffffffffffffffffffffffffffffffff16021790555050565b600082821115611c10576040517f08c379a0000000000000000000000000000000000000000000000000000000008152600401611c0790612282565b60405180910390fd5b60008284611c1e91906124a1565b90508091505092915050565b6000808284611c3991906123f1565b905083811015611c7e576040517f08c379a0000000000000000000000000000000000000000000000000000000008152600401611c7590612222565b60405180910390fd5b8091505092915050565b6000611c9b611c968461237d565b612358565b90508083825260208201905082856020860282011115611cba57600080fd5b60005b85811015611cea5781611cd08882611d60565b845260208401935060208301925050600181019050611cbd565b5050509392505050565b6000611d07611d02846123a9565b612358565b90508083825260208201905082856020860282011115611d2657600080fd5b60005b85811015611d565781611d3c8882611dc9565b845260208401935060208301925050600181019050611d29565b5050509392505050565b600081359050611d6f81612841565b92915050565b600082601f830112611d8657600080fd5b8135611d96848260208601611c88565b91505092915050565b600082601f830112611db057600080fd5b8135611dc0848260208601611cf4565b91505092915050565b600081359050611dd881612858565b92915050565b600060208284031215611df057600080fd5b6000611dfe84828501611d60565b91505092915050565b60008060408385031215611e1a57600080fd5b6000611e2885828601611d60565b9250506020611e3985828601611d60565b9150509250929050565b600080600060608486031215611e5857600080fd5b6000611e6686828701611d60565b9350506020611e7786828701611d60565b9250506040611e8886828701611dc9565b9150509250925092565b60008060408385031215611ea557600080fd5b6000611eb385828601611d60565b9250506020611ec485828601611dc9565b9150509250929050565b60008060408385031215611ee157600080fd5b600083013567ffffffffffffffff811115611efb57600080fd5b611f0785828601611d75565b925050602083013567ffffffffffffffff811115611f2457600080fd5b611f3085828601611d9f565b9150509250929050565b60008060408385031215611f4d57600080fd5b600083013567ffffffffffffffff811115611f6757600080fd5b611f7385828601611d75565b9250506020611f8485828601611dc9565b9150509250929050565b600060208284031215611fa057600080fd5b6000611fae84828501611dc9565b91505092915050565b611fc0816124d5565b82525050565b611fcf816124e7565b82525050565b6000611fe0826123d5565b611fea81856123e0565b9350611ffa81856020860161252a565b61200381612696565b840191505092915050565b600061201b6008836123e0565b9150612026826126a7565b602082019050919050565b600061203e6012836123e0565b9150612049826126d0565b602082019050919050565b6000612061601b836123e0565b915061206c826126f9565b602082019050919050565b60006120846015836123e0565b915061208f82612722565b602082019050919050565b60006120a76013836123e0565b91506120b28261274b565b602082019050919050565b60006120ca601e836123e0565b91506120d582612774565b602082019050919050565b60006120ed600f836123e0565b91506120f88261279d565b602082019050919050565b60006121106017836123e0565b915061211b826127c6565b602082019050919050565b60006121336015836123e0565b915061213e826127ef565b602082019050919050565b6000612156600f836123e0565b915061216182612818565b602082019050919050565b61217581612513565b82525050565b6121848161251d565b82525050565b600060208201905061219f6000830184611fb7565b92915050565b60006020820190506121ba6000830184611fc6565b92915050565b600060208201905081810360008301526121da8184611fd5565b905092915050565b600060208201905081810360008301526121fb8161200e565b9050919050565b6000602082019050818103600083015261221b81612031565b9050919050565b6000602082019050818103600083015261223b81612054565b9050919050565b6000602082019050818103600083015261225b81612077565b9050919050565b6000602082019050818103600083015261227b8161209a565b9050919050565b6000602082019050818103600083015261229b816120bd565b9050919050565b600060208201905081810360008301526122bb816120e0565b9050919050565b600060208201905081810360008301526122db81612103565b9050919050565b600060208201905081810360008301526122fb81612126565b9050919050565b6000602082019050818103600083015261231b81612149565b9050919050565b6000602082019050612337600083018461216c565b92915050565b6000602082019050612352600083018461217b565b92915050565b6000612362612373565b905061236e828261258f565b919050565b6000604051905090565b600067ffffffffffffffff82111561239857612397612667565b5b602082029050602081019050919050565b600067ffffffffffffffff8211156123c4576123c3612667565b5b602082029050602081019050919050565b600081519050919050565b600082825260208201905092915050565b60006123fc82612513565b915061240783612513565b9250827fffffffffffffffffffffffffffffffffffffffffffffffffffffffffffffffff0382111561243c5761243b612609565b5b828201905092915050565b600061245282612513565b915061245d83612513565b9250817fffffffffffffffffffffffffffffffffffffffffffffffffffffffffffffffff048311821515161561249657612495612609565b5b828202905092915050565b60006124ac82612513565b91506124b783612513565b9250828210156124ca576124c9612609565b5b828203905092915050565b60006124e0826124f3565b9050919050565b60008115159050919050565b600073ffffffffffffffffffffffffffffffffffffffff82169050919050565b6000819050919050565b600060ff82169050919050565b60005b8381101561254857808201518184015260208101905061252d565b83811115612557576000848401525b50505050565b6000600282049050600182168061257557607f821691505b6020821081141561258957612588612638565b5b50919050565b61259882612696565b810181811067ffffffffffffffff821117156125b7576125b6612667565b5b80604052505050565b60006125cb82612513565b91507fffffffffffffffffffffffffffffffffffffffffffffffffffffffffffffffff8214156125fe576125fd612609565b5b600182019050919050565b7f4e487b7100000000000000000000000000000000000000000000000000000000600052601160045260246000fd5b7f4e487b7100000000000000000000000000000000000000000000000000000000600052602260045260246000fd5b7f4e487b7100000000000000000000000000000000000000000000000000000000600052604160045260246000fd5b6000601f19601f8301169050919050565b7f4f766572666c6f77000000000000000000000000000000000000000000000000600082015250565b7f42616c616e6365206e6f7420656e6f7567680000000000000000000000000000600082015250565b7f536166654d6174683a206164646974696f6e206f766572666c6f770000000000600082015250565b7f43616e6e6f7420757365207a65726f2076616c75650000000000000000000000600082015250565b7f546f6f206d616e7920726563697069656e747300000000000000000000000000600082015250565b7f536166654d6174683a207375627472616374696f6e206f766572666c6f770000600082015250565b7f43616e6e6f74206f766572666c6f770000000000000000000000000000000000600082015250565b7f43616e6e6f7420757365207a65726f2061646472657373000000000000000000600082015250565b7f43616e6e6f74206f76657220616c6c6f77616e63650000000000000000000000600082015250565b7f43616e6e6f7420757365207a65726f0000000000000000000000000000000000600082015250565b61284a816124d5565b811461285557600080fd5b50565b61286181612513565b811461286c57600080fd5b5056fea2646970667358221220c46f7e970b4ba4edf229cf4055c6cc12da58b373d40a92d8e91ec758f6ca2e2364736f6c63430008040033",
  "linkReferences": {},
  "deployedLinkReferences": {}
}